:100000000C9424010C943F030C940F030C94DF0216
:100010000C94AF020C947F020C944F020C94450197
:100020000C9445010C9445010C9445010C94450138
:100030000C9445010C9445010C9445010C94450128
:100040000C9445010C9445010C9445010C94450118
:100050000C9445010C9445010C9445010C94050247
:100060000C9445010C9445010C9445010C944501F8
:100070000C9445010C9445010C9445010C944501E8
:100080000C9445010C9445010C9445010C944501D8
:100090000C9445010C9445010C9445010C944501C8
:1000A0000C9445010C9445010C9445010C944501B8
:1000B0000C9445010C9445010C9445010C944501A8
:1000C0000C9445010C9445010C9445010C94450198
:1000D0000C9445010C9445010C9445010C94450188
:1000E0000C9445010C9465010C94AA010C946F01C9
:1000F0000C9484010C94A0010C949C010C94980124
:100100000C9480010C948A010C9492010C94A5012A
:100110000C948E010C946B010C9473010C94A60149
:100120000C947A010C947701000021002400270030
:100130002A002D00300033000101000004010701F6
:100140000A0100002200250028002B002E003100AB
:10015000340002010000050108010B01000020002D
:100160002300260029002C002F003200000100008F
:10017000030106010901050505050705080808082A
:10018000020202020A0A080804040404010101012F
:10019000010101010303030303030303040707072A
:1001A0000C0C0C0C0C0C0C0C0202020206060606CF
:1001B000060606060B0B0B0B0B0B0B0B010210209C
:1001C000200808102040102040800201020108048D
:1001D0000201010204081020408080402010080421
:1001E000020180040201804020100804020108047A
:1001F00002010102040810204080010204081020BE
:10020000408000000A0B02090C0D0E0807030401D0
:1002100000000000000000000000000000000000DE
:1002200000000000000000000000000000001211AB
:1002300010000000000000000000000000000000AE
:10024000000000000000000011241FBECFEFD1E22B
:10025000DEBFCDBF00E00CBF12E0A0E0B2E0E6EAF6
:10026000F8E000E00BBF02C007900D92AC30B10780
:10027000D9F722E0ACE0B2E001C01D92A531B2078F
:10028000E1F70E946F030C9451040C94000081501C
:10029000823108F05AC0E82FF0E08827ED5AFE4F6F
:1002A0008F4F0C9449047301770165016B016F0155
:1002B000A5017A01800184018A018E0192019801D1
:1002C0009C01A501A001A601AA01809180008F7761
:1002D000809380000895809180008F7DF9CF809178
:1002E0008000877FF5CF84B58F7784BD089584B56E
:1002F0008F7DFBCF8091B0008F778093B000089501
:100300008091B0008F7DF9CF809190008F7780939E
:1003100090000895809190008F7DF9CF809190009A
:10032000877FF5CF8091A0008F778093A0000895FC
:100330008091A0008F7DF9CF8091A000877FF5CFBD
:10034000809120018F778093200108958091200172
:100350008F7DF9CF80912001877FF5CFCF93DF93F9
:10036000282F30E0F901EE5FFD4F8491F901E4544C
:10037000FE4FD491F901EA58FE4FC491CC23A1F06D
:1003800081110E944701EC2FF0E0EE0FFF1FE45AAD
:10039000FE4FA591B491EC91ED2381E090E009F43A
:1003A00080E0DF91CF91089580E090E0FACF1F9335
:1003B000CF93DF93282F30E0F901EE5FFD4F84915A
:1003C000F901E454FE4FD491F901EA58FE4FC4916B
:1003D000CC23A9F0162F81110E944701EC2FF0E0E9
:1003E000EE0FFF1FEE5BFE4FA591B4918FB7F8940F
:1003F000EC91111108C0D095DE23DC938FBFDF9103
:10040000CF911F910895DE2BF8CF1F920F920FB658
:100410000F9211242F933F938F939F93AF93BF938A
:100420008091110290911202A0911302B0911402D6
:100430003091100223E0230F2D3758F50196A11DAE
:10044000B11D209310028093110290931202A09389
:100450001302B093140280910C0290910D02A091AE
:100460000E02B0910F020196A11DB11D80930C02E6
:1004700090930D02A0930E02B0930F02BF91AF9123
:100480009F918F913F912F910F900FBE0F901F90D2
:10049000189526E8230F0296A11DB11DD2CF1F92F9
:1004A0000F920FB60F9211240BB60F922F933F931A
:1004B0004F935F936F937F938F939F93AF93BF936C
:1004C000EF93FF938BE10E94AE0161E0892B09F06D
:1004D00060E08BE10E94D701FF91EF91BF91AF9156
:1004E0009F918F917F916F915F914F913F912F914C
:1004F0000F900BBE0F900FBE0F901F9018951F927C
:100500000F920FB60F9211240BB60F922F933F93B9
:100510004F935F936F937F938F939F93AF93BF930B
:10052000EF93FF938AE10E94AE0161E0892B09F00D
:1005300060E08AE10E94D701FF91EF91BF91AF91F6
:100540009F918F917F916F915F914F913F912F91EB
:100550000F900BBE0F900FBE0F901F9018951F921B
:100560000F920FB60F9211240BB60F922F933F9359
:100570004F935F936F937F938F939F93AF93BF93AB
:10058000EF93FF9389E10E94AE0161E0892B09F0AE
:1005900060E089E10E94D701FF91EF91BF91AF9197
:1005A0009F918F917F916F915F914F913F912F918B
:1005B0000F900BBE0F900FBE0F901F9018951F92BB
:1005C0000F920FB60F9211240BB60F922F933F93F9
:1005D0004F935F936F937F938F939F93AF93BF934B
:1005E000EF93FF9388E10E94AE0161E0892B09F04F
:1005F00060E088E10E94D701FF91EF91BF91AF9138
:100600009F918F917F916F915F914F913F912F912A
:100610000F900BBE0F900FBE0F901F9018951F925A
:100620000F920FB60F9211240BB60F922F933F9398
:100630004F935F936F937F938F939F93AF93BF93EA
:10064000EF93FF9387E10E94AE0161E0892B09F0EF
:1006500060E087E10E94D701FF91EF91BF91AF91D8
:100660009F918F917F916F915F914F913F912F91CA
:100670000F900BBE0F900FBE0F901F9018951F92FA
:100680000F920FB60F9211240BB60F922F933F9338
:100690004F935F936F937F938F939F93AF93BF938A
:1006A000EF93FF9386E10E94AE0161E0892B09F090
:1006B00060E086E10E94D701FF91EF91BF91AF9179
:1006C0009F918F917F916F915F914F913F912F916A
:1006D0000F900BBE0F900FBE0F901F90189578943F
:1006E00084B5826084BD84B5816084BD85B5826037
:1006F00085BD85B5816085BD80916E0081608093E8
:100700006E00109281008091810082608093810050
:100710008091810081608093810080918000816060
:10072000809380008091B10084608093B1008091BB
:10073000B00081608093B0008091910082608093CE
:100740009100809191008160809391008091900050
:100750008160809390008091A10082608093A100CD
:100760008091A10081608093A1008091A0008160B0
:100770008093A0008091210182608093210180916B
:10078000210181608093210180912001816080930B
:10079000200180917A00846080937A0080917A00B1
:1007A000826080937A0080917A00816080937A00E1
:1007B00080917A00806880937A001092C100A6E050
:1007C000B2E08D9190E0FC01E454FE4F24918A58F0
:1007D0009E4FFC0184918823C9F090E0880F991FF7
:1007E000FC01E85DFE4F45915491FC01EE5BFE4F2C
:1007F000C591D4919FB7F894FA0180812095822306
:1008000080838881E22FE823E8839FBFF2E0AC3049
:10081000BF07B9F6C0E0D2E006E012E08991282FC8
:1008200030E0F901E454FE4F44912A583E4FF9015B
:100830002491222399F030E0220F331FF901E85D63
:10084000FE4FA591B491F901EE5BFE4F25913491D5
:100850009FB7F894EC91E42BEC939FBF60E00E946B
:10086000D7010C171D07D1F6809169008FEF809397
:10087000690080916A008F6080936A008DB38F63F6
:100880008DBB7894C0E0D0E02097F1F30E94000087
:10089000FBCFEE0FFF1F881F8BBF0790F691E02D57
:0608A0001994F894FFCF4B
:0C08A600161718191A1B15141312020360
:00000001FF
