:100000000C9483000C94B4000C94B4000C94B400D1
:100010000C94B4000C94B4000C94B4000C94B40090
:100020000C94B4000C94B4000C94B4000C94B40080
:100030000C94B4000C94B4000C94B4000C94B40070
:100040000C94B4000C94B4000C94B4000C94B40060
:100050000C94B4000C94B4000C94B4000C94690299
:100060000C94B4000C94B4000C94B4000C94B40040
:100070000C94B4000C94B4000C94B4000C94B40030
:100080000C94B4000C94B4000C94B4000C94B40020
:100090000C94B4000C94B4000C94B4000C94B40010
:1000A0000C94B4000C94B4000C94B4000C94B40000
:1000B0000C94B4000C94B4000C94B4000C94B400F0
:1000C0000C94B4000C94B4000C94B4000C94DD02B5
:1000D0000C94B3020C94B4000C94B4000C94B400CF
:1000E0000C94B4000C94A3010C9449010C94F001FD
:1000F0000C943A010C945D010C94E5030C940D01F1
:100100000C946B01E50311241FBECFEFD1E2DEBFDB
:10011000CDBF00E00CBF12E0A0E0B2E0E8E3F8E001
:1001200000E00BBF02C007900D92A836B107D9F7C7
:1001300023E0A8E6B2E001C01D92AE30B207E1F7BD
:1001400010E0C3E8D0E000E006C021970109802F4D
:10015000FE010E941204C238D10780E00807A9F707
:100160000E9413030C941A040C9400003FB7F894F7
:1001700080916D0290916E02A0916F02B091700219
:1001800026B5A89B05C02F3F19F00196A11DB11DF2
:100190003FBFBA2FA92F982F8827BC01CD01620F2E
:1001A000711D811D911D42E0660F771F881F991FE9
:1001B0004A95D1F708958F929F92AF92BF92CF92B6
:1001C000DF92EF92FF924B015C010E94B6006B013F
:1001D0007C010E94B6006C197D098E099F09683E5A
:1001E000734081059105A8F321E0821A9108A108C6
:1001F000B10888EEC80E83E0D81EE11CF11C811402
:100200009104A104B10429F7FF90EF90DF90CF9003
:10021000BF90AF909F908F900895AF92BF92CF9272
:10022000DF92EF92FF920F931F93CF93DF936C01B6
:100230007B018B01040F151FEB015E01AE18BF0897
:10024000C017D10759F06991D601ED91FC91019049
:10025000F081E02DC6011995892B79F7C501DF9151
:10026000CF911F910F91FF90EF90DF90CF90BF90B3
:10027000AF900895FC01538D448D252F30E0842FDD
:1002800090E0821B930B541710F0CF9608950197BE
:100290000895FC01918D828D981761F0A28DAE0FAB
:1002A000BF2FB11D5D968C91928D9F5F9F73928F32
:1002B00090E008958FEF9FEF0895FC01918D828D5E
:1002C000981731F0828DE80FF11D858D90E008952B
:1002D0008FEF9FEF0895FC01918D228D892F90E083
:1002E000805C9F4F821B91098F739927089581E746
:1002F00092E00E946B0121E0892B09F420E0822F1B
:100300000895FC01A48DA80FB92FB11DA35ABF4FAA
:100310002C91848D90E001968F739927848FA68904
:10032000B7892C93A089B1898C91837080648C9358
:10033000938D848D981306C00288F389E02D808107
:100340008F7D80830895EF92FF920F931F93CF9339
:10035000DF93EC0181E0888F9B8D8C8D98131AC000
:10036000E889F989808185FF15C09FB7F894EE89E7
:10037000FF896083E889F989808183708064808344
:100380009FBF81E090E0DF91CF911F910F91FF908F
:10039000EF900895F62E0B8D10E00F5F1F4F0F7337
:1003A0001127E02E8C8D8E110CC00FB607FCFACFF2
:1003B000E889F989808185FFF5CFCE010E9481010E
:1003C000F1CFEB8DEC0FFD2FF11DE35AFF4FF082C3
:1003D0009FB7F8940B8FEA89FB8980818062CFCF29
:1003E000CF93DF93EC01888D8823B9F0AA89BB896C
:1003F000E889F9898C9185FD03C0808186FD0DC057
:100400000FB607FCF7CF8C9185FFF2CF808185FF77
:10041000EDCFCE010E948101E9CFDF91CF91089508
:1004200080E090E0892B49F080E090E0892B29F072
:100430000E94000081110E94000080E090E0892B62
:1004400049F080E090E0892B29F00E9400008111A2
:100450000E94000080E090E0892B29F00E94770143
:1004600081110E94000080E090E0892B49F080E03B
:1004700090E0892B29F00E94000081110C9400006B
:100480000895FC0101900020E9F73197AF01481B66
:10049000590BBC0181E792E00C940D01CF93DF93DF
:1004A0000E944102EC0182E192E00E9441028C0F25
:1004B0009D1FDF91CF910895CF93DF93CEE1D0E0E0
:1004C00082E192E00E9441022197D1F7DF91CF9122
:1004D00008951F920F920FB60F9211242F933F93FE
:1004E0008F939F93AF93BF938091690290916A021B
:1004F000A0916B02B0916C023091680223E0230F4F
:100500002D3758F50196A11DB11D209368028093E7
:10051000690290936A02A0936B02B0936C0280917F
:100520006D0290916E02A0916F02B09170020196DF
:10053000A11DB11D80936D0290936E02A0936F0276
:10054000B0937002BF91AF919F918F913F912F9186
:100550000F900FBE0F901F90189526E8230F02965C
:10056000A11DB11DD2CF1F920F920FB60F92112471
:100570000BB60F922F933F934F935F936F937F939D
:100580008F939F93AF93BF93EF93FF9381E792E095
:100590000E948101FF91EF91BF91AF919F918F9147
:1005A0007F916F915F914F913F912F910F900BBE73
:1005B0000F900FBE0F901F9018951F920F920FB6BD
:1005C0000F9211240BB60F922F938F939F93EF935B
:1005D000FF93E0918102F09182028081E091870295
:1005E000F091880282FD1DC0908180918A028F5F08
:1005F0008F7320918B02821741F0E0918A02F0E024
:10060000EF58FD4F958F80938A02FF91EF919F9154
:100610008F912F910F900BBE0F900FBE0F901F90D8
:1006200018958081F2CF789484B5826084BD84B5BA
:10063000816084BD85B5826085BD85B5816085BDDD
:1006400080916E00816080936E0010928100809195
:10065000810082608093810080918100816080931D
:100660008100809180008160809380008091B10042
:1006700084608093B1008091B00081608093B0006D
:1006800080919100826080939100809191008160BF
:100690008093910080919000816080939000809180
:1006A000A10082608093A1008091A100816080936D
:1006B000A1008091A00081608093A0008091210121
:1006C00082608093210180912101816080932101CA
:1006D0008091200181608093200180917A00846064
:1006E00080937A0080917A00826080937A00809172
:1006F0007A00816080937A0080917A00806880938C
:100700007A001092C100E0918102F091820282E0B1
:100710008083E0917D02F0917E021082E0917F0261
:10072000F09180028FEC808310928902E091850223
:10073000F091860286E08083E0918302F09184024A
:10074000808180618083E0918302F09184028081C6
:1007500088608083E0918302F091840280818068C8
:100760008083E0918302F091840280818F7D808379
:1007700064E670E080E090E00E94DB000E945C0292
:1007800085E192E00E944E0260ED77E080E090E02B
:100790000E94DB000E945C028BE292E00E944E020B
:1007A00060ED77E080E090E00E94DB000E945C0258
:1007B00088E492E00E944E0260ED77E080E090E0F5
:1007C0000E94DB000E941002D9CFE1E7F2E0138221
:1007D000128288EE93E0A0E0B0E084839583A68344
:1007E000B78384E092E09183808385ED90E09587E4
:1007F000848784ED90E09787868780ED90E0918BE9
:10080000808B81ED90E0938B828B82ED90E0958BD5
:10081000848B86ED90E0978B868B118E128E138ED3
:10082000148E0895EE0FFF1F881F8BBF0790F6915F
:08083000E02D1994F894FFCFAC
:1008380000000000A3010D013A01F0016B0149011C
:100848005D010D0A004D656E73616A6520313A20BD
:10085800486F6C61204D756E646F004D656E7361F5
:100868006A6520323A20546578746F206163747524
:10087800616C697A61646F004D656E73616A6520A9
:10088800333A204F74726F20746578746F206469EE
:08089800666572656E7465006F
:00000001FF
