:100000000C9447010C9478010C9478010C947801BD
:100010000C9478010C9478010C9478010C9478017C
:100020000C9478010C9494060C9478010C9478014B
:100030000C9478010C9478010C9478010C9478015C
:100040000C9478010C9478010C9478010C9478014C
:100050000C9478010C9478010C9478010C94C604EB
:100060000C9478010C943A050C9410050C947801CA
:100070000C9478010C9478010C9478010C9478011C
:100080000C9478010C9478010C9478010C9478010C
:100090000C9478010C9478010C9478010C94700500
:1000A0000C9478010C9478010C9478010C947801EC
:1000B0000C9478010C9478010C9478010C947801DC
:1000C0000C9478010C9478010C9478010C947801CC
:1000D0000C9478010C9478010C9478010C947801BC
:1000E0000C9478010C9479020C94C5010C9456047C
:1000F0000C94A6010C943D020C9498010C94D80128
:100100000C949B020C949E010C94CB010C94BD01A9
:100110000C94B3010C9420030C94A2010C946A0279
:100120000C94D9010C94D7030C94FA030C94D301CA
:100130000C9434020C94A3060C94D8030C94E7039B
:100140000C94D3020C94CF010C94AA010C94C1011D
:100150000C943C020C943B020C94AD010C94DD0118
:100160000C9427040C948D020C94B701000021001C
:10017000240027002A002D00300033000101000078
:10018000040107010A0100002000230026002900C5
:100190002C002F00320000010000030106010901BC
:1001A00000002200250028002B002E003100340022
:1001B00002010000050108010B0105050505070501
:1001C00008080808020202020A0A080804040404D3
:1001D00001010101010101010303030303030303FF
:1001E000040707070C0C0C0C0C0C0C0C020202028E
:1001F00006060606060606060B0B0B0B0B0B0B0B77
:100200000102102020080810204010204080020128
:10021000020108040201010204081020408080400D
:10022000201008040201800402018040201008040C
:1002300002010804020101020408102040800102AA
:1002400004081020408000000A0B02090C0D0E0863
:10025000070304010000000000000000000000008F
:10026000000000000000000000000000000000008E
:10027000000012111000000000000000000000004B
:10028000000000000000000000000000A306112490
:100290001FBECFEFD1E2DEBFCDBF00E00CBF23E039
:1002A000AEE7B2E001C01D92A43FB207E1F712E051
:1002B000A0E0B2E0E6ECF9E100E00BBF02C007907D
:1002C0000D92AE37B107D9F711E0C7E4D1E000E0F5
:1002D00006C021970109802FFE010E94C30AC6347F
:1002E000D10780E00807A9F70E94DC060C94E10C16
:1002F0000C9400008150823108F05AC0E82FF0E0E1
:100300008827EA57FE4F8F4F0C94C30AA601AA0113
:1003100098019E01A201D801AD01B301B701BD0151
:10032000C101C501CB01CF01D801D301D901DD0144
:10033000809180008F778093800008958091800065
:100340008F7DF9CF80918000877FF5CF84B58F773F
:1003500084BD089584B58F7DFBCF8091B0008F77E9
:100360008093B00008958091B0008F7DF9CF809187
:1003700090008F77809390000895809190008F7DFA
:10038000F9CF80919000877FF5CF8091A0008F7783
:100390008093A00008958091A0008F7DF9CF809177
:1003A000A000877FF5CF809120018F778093200177
:1003B0000895809120018F7DF9CF80912001877F62
:1003C000F5CF1F93CF93DF93282F30E0F901EA5B3D
:1003D000FD4F8491F901E050FE4FD491F901E654AC
:1003E000FE4FC491CC23A9F0162F81110E947A01EF
:1003F000EC2FF0E0EE0FFF1FE056FE4FA591B491F9
:100400008FB7F894EC91111108C0D095DE23DC93DE
:100410008FBFDF91CF911F910895DE2BF8CF3FB7AB
:10042000F8948091430390914403A0914503B091C7
:10043000460326B5A89B05C02F3F19F00196A11DC4
:10044000B11D3FBFBA2FA92F982F8827BC01CD011E
:10045000620F711D811D911D42E0660F771F881F7D
:10046000991F4A95D1F7089580911C0390911D031F
:10047000891B990B089508950895AF92BF92CF926A
:10048000DF92EF92FF920F931F93CF93DF936C0154
:100490007B018B01040F151FEB015E01AE18BF0835
:1004A000C017D10759F06991D601ED91FC910190E7
:1004B000F081E02DC6011995892B79F7C501DF91EF
:1004C000CF911F910F91FF90EF90DF90CF90BF9051
:1004D000AF900895FC01538D448D252F30E0842F7B
:1004E00090E0821B930B541710F0CF96089501975C
:1004F0000895FC01918D828D981761F0A28DAE0F49
:10050000BF2FB11D5D968C91928D9F5F9F73928FCF
:1005100090E008958FEF9FEF0895FC01918D828DFB
:10052000981731F0828DE80FF11D858D90E00895C8
:100530008FEF9FEF0895FC01918D228D892F90E020
:10054000805C9F4F821B91098F739927089587E4E0
:1005500093E00E949B0221E0892B09F420E0822F86
:100560000895FC01A48DA80FB92FB11DA35ABF4F48
:100570002C91848D90E001968F739927848FA689A2
:10058000B7892C93A089B1898C91837080648C93F6
:10059000938D848D981306C00288F389E02D8081A5
:1005A0008F7D80830895EF92FF920F931F93CF93D7
:1005B000DF93EC0181E0888F9B8D8C8D98131AC09E
:1005C000E889F989808185FF15C09FB7F894EE8985
:1005D000FF896083E889F9898081837080648083E2
:1005E0009FBF81E090E0DF91CF911F910F91FF902D
:1005F000EF900895F62E0B8D10E00F5F1F4F0F73D5
:100600001127E02E8C8D8E110CC00FB607FCFACF8F
:10061000E889F989808185FFF5CFCE010E94B1027A
:10062000F1CFEB8DEC0FFD2FF11DE35AFF4FF08260
:100630009FB7F8940B8FEA89FB8980818062CFCFC6
:10064000CF93DF93EC01888D8823B9F0AA89BB8909
:10065000E889F9898C9185FD03C0808186FD0DC0F4
:100660000FB607FCF7CF8C9185FFF2CF808185FF15
:10067000EDCFCE010E94B102E9CFDF91CF91089575
:1006800080E090E0892B29F00E94A70281110E944E
:10069000000080E090E0892B49F080E090E0892B19
:1006A00029F00E94000081110E94000080E090E08B
:1006B000892B49F080E090E0892B29F00E9400000E
:1006C00081110E94000080E090E0892B49F080E0D9
:1006D00090E0892B29F00E94000081110C94000009
:1006E000089520919F02260F3327331F21323105B1
:1006F000ECF420911603FC0190E080E0243069F0D6
:1007000082E00895A0919F022191AC0141585D4F74
:10071000A40FB52FB11D2C930196861798F38091E5
:100720009F02680F60939F0280E0089581E0089522
:100730001092160381E0809315031092100361E07C
:1007400084E10E94E10161E085E10E94E101E9EBC1
:10075000F0E080818E7F808380818D7F808388E43C
:100760008093B80085E48093BC000895CF93DF9315
:1007700091E090937E028823B9F0C091B800D091A7
:10078000BA008091BC008A7B8093BC0060E084E169
:100790000E94E10160E085E10E94E1010E9498036E
:1007A000D093BA00C093B800DF91CF910895089517
:1007B000E0911D0380911C03E81730F4F0E0E25E45
:1007C000FC4F808190E008958FEF9FEF0895909106
:1007D0001D0380911C032FEF3FEF981748F4E92F7A
:1007E000F0E0E25EFC4F208130E09F5F90931D03BC
:1007F000C9010895CF92DF92EF92FF920F931F935A
:10080000CF93DF937C01CB018A012091CC0222237C
:1008100089F0EB016B01C40ED51ECC15DD0569F026
:100820006991D701ED91FC910190F081E02DC70114
:100830001995F3CF642F0E947103C801DF91CF9106
:100840001F910F91FF90EF90DF90CF900895CF937D
:10085000DF931F92CDB7DEB769832091CC022223AC
:10086000F9F02091EF02203258F021E030E0FC0155
:100870003383228390E080E00F90DF91CF91089541
:100880008091CD02E82FF0E0E253FD4F99819083F3
:100890008F5F8093CD028093EF0281E090E0ECCFF8
:1008A00061E0CE0101960E947103F7CF90E080E0F5
:1008B0000895FC0101900020E9F73197AF01481B32
:1008C000590BBC0187E493E00C943D020F931F93F6
:1008D000CF93DF93EC0188819981009759F02A81A9
:1008E0003B812617370730F081E0DF91CF911F91D0
:1008F0000F9108958B016F5F7F4F0E94F00B00975F
:1009000059F0998388831B830A832C813D81232B93
:1009100059F7FC011082E8CF80E0E7CF85ED8093A6
:10092000BC008091180390911903A0911A03B09113
:100930001B030796A11DB11D23E0B695A7959795BA
:1009400087952A95D1F72091BC0024FD03C0109211
:1009500016030895409118035091190360911A03EA
:1009600070911B03452B462B472B69F30097A1057C
:10097000B10541F02AE22A95F1F700C00197A109DB
:10098000B109E1CF809117030C94B6031F920F9227
:100990000FB60F9211242F933F938F939F93AF9392
:1009A000BF9380913F0390914003A0914103B09188
:1009B000420330913E0323E0230F2D3758F5019673
:1009C000A11DB11D20933E0380933F0390934003EC
:1009D000A0934103B0934203809143039091440359
:1009E000A0914503B09146030196A11DB11D8093CE
:1009F000430390934403A0934503B0934603BF91F0
:100A0000AF919F918F913F912F910F900FBE0F90BB
:100A10001F90189526E8230F0296A11DB11DD2CF75
:100A20001F920F920FB60F9211240BB60F922F93B5
:100A30003F934F935F936F937F938F939F93AF9366
:100A4000BF93EF93FF9387E493E00E94B102FF917D
:100A5000EF91BF91AF919F918F917F916F915F9136
:100A60004F913F912F910F900BBE0F900FBE0F90A3
:100A70001F9018951F920F920FB60F9211240BB66C
:100A80000F922F938F939F93EF93FF93E0915703D0
:100A9000F09158038081E0915D03F0915E0382FD47
:100AA0001DC09081809160038F5F8F7320916103DF
:100AB000821741F0E0916003F0E0E95BFC4F958F15
:100AC00080936003FF91EF919F918F912F910F90F1
:100AD0000BBE0F900FBE0F901F9018958081F2CF24
:100AE0001F920F920FB60F9211240BB60F922F93F5
:100AF0003F934F935F936F937F938F939F93AF93A6
:100B0000BF93EF93FF938091B900887F803609F4FB
:100B10004DC008F040C0883209F4A9C028F58031E2
:100B200009F49DC0C8F4882309F4FBC0883009F497
:100B300096C0FF91EF91BF91AF919F918F917F915F
:100B40006F915F914F913F912F910F900BBE0F903E
:100B50000FBE0F901F901895883109F488C080321D
:100B600041F78093140314C0803409F49DC040F40D
:100B70008033B9F38833E9F68093140385ECB0C071
:100B8000803509F485C0883509F496C0883489F623
:100B90000E948E04CECF883909F48CC038F588378E
:100BA00029F050F4883611F0803719F683E08093ED
:100BB00016031092C10257C0883809F47BC08039EF
:100BC00019F0803809F0B5CF8091C102803208F069
:100BD00071C0E091C10281E08E0F8093C1028091CB
:100BE000BB00F0E0EF55FD4F80833DC0803B39F006
:100BF000E0F4803A09F479C0883A09F09ACF84E0A9
:100C0000809316031092A00210929F02E091C402FA
:100C1000F091C502199580919F0281110FC081E06A
:100C200080939F0210927F0209C0803C09F4A6CFF6
:100C3000883C09F4A3CF883B09F07BCFE091A00268
:100C400081E08E0F8093A002F0E0E158FD4F80819B
:100C50008093BB009091A00280919F0229C0809157
:100C600011038093BB0085EC8093BC0062CF909110
:100C7000130380911203981758F5E091130381E054
:100C80008E0F80931303F0E0E051FD4F8081E9CF98
:100C9000E091130381E08E0F809313038091BB00DA
:100CA000F0E0E051FD4F8083909113038091120397
:100CB0009817C8F285E8D8CFE091130381E08E0F32
:100CC000809313038091BB00F0E0E051FD4F8083DF
:100CD0008091150381115CCF81E08093100384EA39
:100CE0008093BC001092160324CF85EC8093BC0047
:100CF000109216038091C102803230F4E091C1025B
:100D0000F0E0EF55FD4F10826091C10270E0E0917C
:100D1000C202F091C30281EA92E019951092C102D9
:100D200008CF1092140334CF1F920F920FB60F9278
:100D300011248F9381E08093C6028F910F900FBE94
:100D40000F901F901895E7E4F3E01382128288EE6B
:100D500093E0A0E0B0E084839583A683B78322E28A
:100D600032E03183208325EC30E03587248724EC82
:100D700030E03787268720EC30E0318B208B21EC68
:100D800030E0338B228B22EC30E0358B248B26EC49
:100D900030E0378B268B118E128E138E148EE4EE7C
:100DA000F3E01382128284839583A683B78384E35E
:100DB00092E0918380830895CF93DF9300D000D099
:100DC0001F921F92CDB7DEB7789484B5826084BD40
:100DD00084B5816084BD85B5826085BD85B581603F
:100DE00085BD80916E00816080936E0010928100BD
:100DF0008091810082608093810080918100816078
:100E00008093810080918000816080938000809138
:100E1000B10084608093B1008091B00081608093C4
:100E2000B000809191008260809391008091910048
:100E30008160809391008091900081608093900008
:100E40008091A10082608093A1008091A1008160C7
:100E50008093A1008091A00081608093A000809188
:100E60002101826080932101809121018160809322
:100E700021018091200181608093200180917A007E
:100E8000846080937A0080917A00826080937A00F7
:100E900080917A00816080937A0080917A008068E6
:100EA00080937A001092C100E0915703F0915803AB
:100EB00082E08083E0915303F09154031082E0912B
:100EC0005503F09156038FEC808310925F03E091FD
:100ED0005B03F0915C0386E08083E0915903F0911D
:100EE0005A03808180618083E0915903F0915A0315
:100EF000808188608083E0915903F0915A0380815A
:100F000080688083E0915903F0915A0380818F7D3E
:100F100080830AE112E0F80181918F01282F30E0EF
:100F2000F901E050FE4F449126543E4FF9012491BF
:100F3000222399F030E0220F331FF901E459FE4FCC
:100F4000A591B491F901E056FE4F259134919FB7D8
:100F5000F894EC91E42BEC939FBF61E00E94E101D7
:100F6000F2E00E311F07B9F62AE132E0A6E1B2E065
:100F70008D9190E0FC01E050FE4F449186549E4FCD
:100F8000FC0184918823D1F090E0880F991FFC0127
:100F9000E459FE4F65917491FC01E056FE4F0591B6
:100FA00014919FB7F894FB015081842F809585237D
:100FB0008083F8018081482B40839FBF2A173B071D
:100FC000B9F68091680081608093680080916B0021
:100FD0008F6080936B00789410921D0310921C0315
:100FE0001092CD021092EF020E9498038BE392E0E0
:100FF0009093C5028093C4028CE392E09093C30265
:101000008093C20282E492E00E94590483E592E058
:101010000E945904DD24DA9445EEC42E55EC352E99
:1010200062E0262E8FB7F89440903F035090400323
:1010300060904103709042038FBF8091C8029091ED
:10104000C902A091CA02B091CB02A3019201281B50
:10105000390B4A0B5B0BDA01C901883C9105A105EC
:10106000B10508F46AC0E091C702F0E0E65EFD4F0A
:1010700061E080810E94E1018091C70290E00196C9
:10108000837099278093C702E091C702F0E0E65E83
:10109000FD4F60E080810E94E1018091C6028823BB
:1010A00079F136E1A32E32E0B32EF12CE12CF501DB
:1010B00021915F0130E0F901EA5BFD4F8491F90174
:1010C000E050FE4F0491F901E654FE4F14911123B4
:1010D000E1F081110E947A01E12FF0E0EE0FFF1F95
:1010E000EA57FE4FA591B491EC910E2371F0FFEFFA
:1010F000EF1AFF0A24E0E216F104C9F61092C602C4
:101100008BEC97E00197F1F718C01092C60240925D
:10111000C8025092C9026092CA027092CB028091BA
:10112000C70234E0839FC00111248A5F9D4FE80EFF
:10113000F91EF7011081111103C00E94400372CF04
:1011400086E592E00E945904612F87E493E00E94B3
:10115000D30283E592E00E94590481E08093CC029F
:10116000F8E0F093EE021092CD021092EF02612FA0
:1011700084EE93E00E9427040091EF02013208F010
:101180008EC00E940F022B013C0180911603811139
:1011900061C02092160381E080931503D09214035E
:1011A0001092130300931203AEECB2E0E0EFF2E012
:1011B00080E008130DC1109211038091110380612A
:1011C0008093110380911003813009F005C11092C2
:1011D00010030E940F022B013C01809111038093A8
:1011E000BB008091180390911903A0911A03B0914C
:1011F0001B03892B8A2B8B2B99F00E940F02809066
:10120000180390901903A0901A03B0901B0364195F
:1012100075098609970986169706A806B906D8F1B2
:101220008091BC0083FDD9CF3092BC000E940F0298
:101230002B013C0180911603823009F4D0C08091CB
:1012400014038F3F61F180911403803241F180914A
:10125000140325C08091180390911903A0911A03DB
:10126000B0911B03892B8A2B8B2B09F48ECF0E9404
:101270000F028090180390901903A0901A03B09069
:101280001B03641975098609970986169706A8062F
:10129000B90608F07ACF809117030E94B603109226
:1012A000CD021092EF021092CC021D3309F045CF0F
:1012B0000E940F024B015C0192E3492E512C612CDC
:1012C000712C0E940F02681979098A099B09683EEE
:1012D000734081059105A8F321E0421A5108610885
:1012E000710838EE830E33E0931EA11CB11C41142B
:1012F00051046104710429F70E940F022B013C0183
:101300008091160381118DC081E080931603809334
:101310001503D09214031092130359E05093120353
:101320008093110380911103806180931103809158
:101330001003813009F0DFC0109210030E940F02E9
:101340002B013C01809111038093BB008091180315
:1013500090911903A0911A03B0911B03892B8A2B3A
:101360008B2BA1F00E940F0200911803109119031A
:1013700020911A0330911B03641975098609970996
:10138000061717072807390708F46CC08091BC00BE
:1013900083FDD8CF3092BC000E940F022B013C018C
:1013A00080911603813009F4A9C0809113038A301B
:1013B00008F0C6C0F0901303A0EFB2E0EEE1F3E056
:1013C00080E08F1509F453C09D9191938F5FF9CF01
:1013D0009D9191938F5FEDCEC092BC0027CF8091FD
:1013E000180390911903A0911A03B0911B03892B44
:1013F0008A2B8B2B09F41ECF0E940F0280901803BA
:1014000090901903A0901A03B0901B0364197509FA
:101410008609970986169706A806B90608F00ACF26
:101420003ACF8091180390911903A0911A03B091BB
:101430001B03892B8A2B8B2B09F462CF0E940F028E
:10144000009118031091190320911A0330911B0386
:1014500064197509860997090617170728073907B8
:1014600008F04ECF809117030E94B603F12C109222
:101470001D03F0921C031A8219821C821B821E8299
:101480001D8270E060E0CE0101960E946604298111
:101490003A81811158C02115310519F0C9010E9406
:1014A000670B1A8219821E821D821C821B82809108
:1014B0001D03F81609F44FC084EE93E00E94E70381
:1014C0008F8318860D811E810F5F1F4FB801CE01DB
:1014D00001960E946604882351F329813A818D8107
:1014E0009E81BE01695F7F4F820F931F0E94DA0CBD
:1014F0001E830D83DCCFC092BC004ECF80911803B9
:1015000090911903A0911A03B0911B03892B8A2B88
:101510008B2B09F445CF0E940F0200911803109104
:10152000190320911A0330911B0364197509860968
:101530009709061717072807390708F031CF92CF08
:101540008AE0F82E39CF1E821D8265E572E0C9015E
:101550000E94DA0CACCF89E692E00E9459044D81DA
:101560005E8169817A8187E493E00E943D0283E590
:1015700092E00E94590489819A81009709F4DDCD97
:101580000E94670BDACDEE0FFF1F881F8BBF0790FD
:10159000F691E02D19940F931F93CF93DF93823030
:1015A000910510F482E090E0E091F203F091F303F2
:1015B00030E020E0B0E0A0E0309799F4211531054B
:1015C00009F44AC0281B390B24303105D8F58A812B
:1015D0009B816115710589F1FB0193838283FE0173
:1015E00011C0408151810281138148175907E0F0F1
:1015F0004817590799F4109761F012960C931297B7
:1016000013961C933296CF01DF91CF911F910F91CA
:1016100008950093F2031093F303F4CF21153105DD
:1016200051F04217530738F0A901DB019A01BD01BF
:10163000DF01F801C1CFEF01F9CF9093F30380935D
:10164000F203CDCFFE01E20FF31F8193919322505D
:10165000310939832883D7CF2091F0033091F103EA
:10166000232B41F420910202309103023093F103C5
:101670002093F003209100023091010221153105E1
:1016800041F42DB73EB74091040250910502241B4E
:10169000350BE091F003F091F103E217F307A0F4AA
:1016A0002E1B3F0B2817390778F0AC014E5F5F4FB8
:1016B0002417350748F04E0F5F1F5093F1034093F6
:1016C000F003819391939FCFF0E0E0E09CCFCF9324
:1016D000DF930097E9F0FC01329713821282A09108
:1016E000F203B091F303ED0130E020E01097A1F494
:1016F00020813181820F931F2091F0033091F103FB
:101700002817390709F061C0F093F103E093F00363
:10171000DF91CF910895EA01CE17DF07E8F54A81FE
:101720005B819E0141155105B1F7E901FB83EA8315
:1017300049915991C40FD51FEC17FD0761F48081C1
:1017400091810296840F951FE90199838883828194
:1017500093819B838A83F0E0E0E012968D919C91C7
:1017600013970097B9F52D913C911197CD010296F1
:10177000820F931F2091F0033091F103281739074E
:1017800039F6309751F51092F3031092F203B093AB
:10179000F103A093F003BCCFD383C2834081518176
:1017A000840F951FC817D90761F44E5F5F4F88817A
:1017B0009981480F591F518340838A819B8193836C
:1017C00082832115310509F0B0CFF093F303E09344
:1017D000F2039ECFFD01DC01C0CF13821282D7CF6E
:1017E0004F925F926F927F928F929F92AF92BF9231
:1017F000CF92DF92EF92FF920F931F93CF93DF93DD
:101800008C01009799F4CB01DF91CF911F910F913B
:10181000FF90EF90DF90CF90BF90AF909F908F9010
:101820007F906F905F904F900C94CB0AFC01E60F75
:10183000F71F9C0122503109E217F30708F4AEC0EC
:10184000D901CD91DC911197C617D70720F1C5308A
:10185000D10578F0CE0104978617970750F0C61B84
:10186000D70B2297C193D1936D937C93CF010E94A4
:10187000670BC801DF91CF911F910F91FF90EF90FF
:10188000DF90CF90BF90AF909F908F907F906F90A0
:101890005F904F9008955B01AC1ABD0A4C018C0E0D
:1018A0009D1EA091F203B091F303512C412CF12C19
:1018B000E12C109731F58091F0039091F103881598
:1018C000990509F05CC04616570608F058C080918B
:1018D000000290910102009741F48DB79EB74091AC
:1018E000040250910502841B950BE817F90708F0D4
:1018F00055C0F093F103E093F003F9017183608325
:10190000B8CF8D919C91119712966C901297139667
:101910007C901397A815B90559F56C0142E0C40EE7
:10192000D11CCA14DB0420F1AC014A195B09DA01AD
:101930001296159780F06282738251834083D90199
:101940006D937C93E114F10471F0D7011396FC932D
:10195000EE9312978ECF22968C0F9D1FF9019183E3
:101960008083F301EFCFF093F303E093F20381CF91
:101970004816590608F42C017D01D3019ACFCB01FA
:101980000E94CB0A7C01009749F0AE01B8010E9489
:10199000D10CC8010E94670B87016BCF10E000E0FB
:1019A00068CFFB01DC0102C001900D924150504014
:1019B000D8F70895FB01DC0101900D920020E1F7BA
:0619C0000895F894FFCF2A
:1019C6000000F40380003738392F3435362A313297
:1019D600332D43303D2B323334352E2F303100003A
:1019E6000000D3023D026A0220039B0279028D02A7
:1019F600000000002704FA035604D7033402E70365
:101A0600D8034D41455354524F206C6973746F2E61
:101A16002E2E000D0A005465636C6120707265738A
:101A2600696F6E6164613A2000526573756C74610A
:0E1A3600646F20726563696269646F3A200014
:00000001FF
