:100000000C9439010C946A010C946A010C946A01F5
:100010000C946A010C946A010C946A010C946A01B4
:100020000C946A010C946A010C946A010C946A01A4
:100030000C946A010C946A010C946A010C946A0194
:100040000C946A010C946A010C946A010C946A0184
:100050000C946A010C946A010C946A010C94AA0332
:100060000C946A010C946A010C946A010C946A0164
:100070000C946A010C946A010C946A010C946A0154
:100080000C946A010C946A010C946A010C946A0144
:100090000C946A010C946A010C946A010C94F403A8
:1000A0000C946A010C946A010C946A010C946A0124
:1000B0000C946A010C946A010C946A010C946A0114
:1000C0000C946A010C946A010C946A010C946A0104
:1000D0000C946A010C946A010C946A010C946A01F4
:1000E0000C946A010C94CB010C94CF010C94B701D1
:1000F0000C94CA010C94A5010C94AF010C940C0350
:100100000C9482020C9498010C9440030C949C0172
:100110000C948A010C94A9010C946F030C941303A2
:100120000C94C1010C949F010C9494010C94C50192
:100130000C94EA020C94F9020C9490010C94810244
:100140000C94BD010C94B3010C94E9020C94390792
:1001500000002100240027002A002D003000330079
:1001600001010000040107010A010000220025002E
:1001700028002B002E003100340002010000050190
:1001800008010B01000020002300260029002C009C
:100190002F003200000100000301060109010505DE
:1001A0000505070508080808020202020A0A0808ED
:1001B000040404040101010101010101030303031B
:1001C00003030303040707070C0C0C0C0C0C0C0CAA
:1001D0000202020206060606060606060B0B0B0BBB
:1001E0000B0B0B0B010210202008081020401020E0
:1001F00040800201020108040201010204081020EB
:1002000040808040201008040201800402018040E8
:100210002010080402010804020101020408102051
:100220004080010204081020408000000A0B0209EF
:100230000C0D0E0807030401000000000000000080
:1002400000000000000000000000000000000000AE
:10025000000000000000121110000000000000006B
:10026000000000000000000000000000000000008E
:10027000390711241FBECFEFD1E2DEBFCDBF00E0B2
:100280000CBF12E0A0E0B2E0E8EAFEE000E00BBF45
:1002900002C007900D92AA32B107D9F722E0AAE274
:1002A000B2E001C01D92A93FB207E1F711E0C9E336
:1002B000D1E000E006C021970109802FFE010E94D5
:1002C0004A07C833D10780E00807A9F70E9418053C
:1002D0000C9452070C9400008150823108F05AC0EF
:1002E000E82FF0E08827E858FE4F8F4F0C944A071C
:1002F00098019C018A0190019401CA019F01A50106
:10030000A901AF01B301B701BD01C101CA01C50116
:10031000CB01CF01809180008F778093800008957A
:10032000809180008F7DF9CF80918000877FF5CF0D
:1003300084B58F7784BD089584B58F7DFBCF809180
:10034000B0008F778093B00008958091B0008F7DCA
:10035000F9CF809190008F778093900008958091DD
:1003600090008F7DF9CF80919000877FF5CF8091AD
:10037000A0008F778093A00008958091A0008F7DCA
:10038000F9CF8091A000877FF5CF809120018F77F2
:10039000809320010895809120018F7DF9CF809175
:1003A0002001877FF5CFCF93DF93282F30E0F9012D
:1003B000E65DFD4F8491F901EC51FE4FD491F901B6
:1003C000E256FE4FC491CC23A1F081110E946C0132
:1003D000EC2FF0E0EE0FFF1FEC57FE4FA591B4910C
:1003E000EC91ED2381E090E009F480E0DF91CF9182
:1003F000089580E090E0FACF1F93CF93DF93282FEA
:1004000030E0F901E65DFD4F8491F901EC51FE4FBA
:10041000D491F901E256FE4FC491CC23A9F0162FD6
:1004200081110E946C01EC2FF0E0EE0FFF1FE659E6
:10043000FE4FA591B4918FB7F894EC91111108C0BB
:10044000D095DE23DC938FBFDF91CF911F9108956C
:10045000DE2BF8CF3FB7F8948091F5029091F60229
:10046000A091F702B091F80226B5A89B05C02F3FD6
:1004700019F00196A11DB11D3FBFBA2FA92F982FCA
:100480008827BC01CD01620F711D811D911D42E0C5
:10049000660F771F881F991F4A95D1F708958F928D
:1004A0009F92AF92BF92CF92DF92EF92FF924B0159
:1004B0005C010E942A026B017C010E942A026C19D5
:1004C0007D098E099F09683E734081059105A8F357
:1004D00021E0821A9108A108B10888EEC80E83E0D5
:1004E000D81EE11CF11C81149104A104B10429F768
:1004F000FF90EF90DF90CF90BF90AF909F908F9044
:1005000008950895089520916B02260F3327331F15
:1005100021323105ECF42091BA02FC0190E080E038
:10052000243069F082E00895A0916B022191AC0122
:10053000455B5D4FA40FB52FB11D2C930196861717
:1005400098F380916B02680F60936B0280E00895CE
:1005500081E008951092BA0281E08093B90210926E
:10056000940261E084E10E94FC0161E085E10E9467
:10057000FC01E9EBF0E080818E7F808380818D7FBC
:10058000808388E48093B80085E48093BC0008955C
:10059000CF93DF9391E090934A028823B9F0C09102
:1005A000B800D091BA008091BC008A7B8093BC00D7
:1005B00060E084E10E94FC0160E085E10E94FC01B2
:1005C0000E94AA02D093BA00C093B800DF91CF91E5
:1005D00008950895E091930280919202E81730F413
:1005E000F0E0E65DFD4F808190E008958FEF9FEF92
:1005F000089590919302809192022FEF3FEF981708
:1006000048F4E92FF0E0E65DFD4F208130E09F5F88
:1006100090939302C9010895809192029091930260
:10062000891B990B0895CF92DF92EF92FF920F935F
:100630001F93CF93DF937C01CB018A012091C002ED
:10064000222389F0EB016B01C40ED51ECC15DD050C
:1006500069F06991D701ED91FC910190F081E02D55
:10066000C7011995F3CF642F0E948302C801DF915F
:10067000CF911F910F91FF90EF90DF90CF90089551
:10068000CF93DF931F92CDB7DEB769832091C0026D
:100690002223F9F02091E302203258F021E030E0EB
:1006A000FC013383228390E080E00F90DF91CF91B3
:1006B00008958091C102E82FF0E0EE53FD4F99813B
:1006C00090838F5F8093C1028093E30281E090E08A
:1006D000ECCF61E0CE0101960E948302F7CF90E05B
:1006E00080E0089585ED8093BC008091BC029091DC
:1006F000BD02A091BE02B091BF020796A11DB11D1F
:1007000023E0B695A795979587952A95D1F72091DF
:10071000BC0024FD03C01092BA0208954091BC02AF
:100720005091BD026091BE027091BF02452B462BD5
:10073000472B69F30097A105B10541F02AE22A95FC
:10074000F1F700C00197A109B109E1CF8091BB0287
:100750000C94C8021F920F920FB60F9211242F9380
:100760003F938F939F93AF93BF938091F1029091AA
:10077000F202A091F302B091F4023091F00223E072
:10078000230F2D3758F50196A11DB11D2093F002BE
:100790008093F1029093F202A093F302B093F402DB
:1007A0008091F5029091F602A091F702B091F802C3
:1007B0000196A11DB11D8093F5029093F602A093BE
:1007C000F702B093F802BF91AF919F918F913F9143
:1007D0002F910F900FBE0F901F90189526E8230FB2
:1007E0000296A11DB11DD2CF1F920F920FB60F928C
:1007F00011240BB60F922F933F934F935F936F93F8
:100800007F938F939F93AF93BF93EF93FF938091C9
:10081000B900887F803609F44DC008F040C08832A6
:1008200009F4A9C028F5803109F49DC0C8F48823D3
:1008300009F4FBC0883009F496C0FF91EF91BF9195
:10084000AF919F918F917F916F915F914F913F9168
:100850002F910F900BBE0F900FBE0F901F90189509
:10086000883109F488C0803241F78093B80214C0FF
:10087000803409F49DC040F48033B9F38833E9F63D
:100880008093B80285ECB0C0803509F485C0883506
:1008900009F496C0883489F60E947203CECF883955
:1008A00009F48CC038F5883729F050F4883611F0F7
:1008B000803719F683E08093BA0210928D0257C0F8
:1008C000883809F47BC0803919F0803809F0B5CF39
:1008D00080918D02803208F071C0E0918D0281E03C
:1008E0008E0F80938D028091BB00F0E0E359FD4FA5
:1008F00080833DC0803B39F0E0F4803A09F479C050
:10090000883A09F09ACF84E08093BA0210926C0280
:1009100010926B02E0919002F091910219958091F2
:100920006B0281110FC081E080936B0210924B0229
:1009300009C0803C09F4A6CF883C09F4A3CF883BCA
:1009400009F07BCFE0916C0281E08E0F80936C0206
:10095000F0E0E55BFD4F80818093BB0090916C02DD
:1009600080916B0229C0809195028093BB0085EC39
:100970008093BC0062CF9091B7028091B602981725
:1009800058F5E091B70281E08E0F8093B702F0E056
:10099000EA56FD4F8081E9CFE091B70281E08E0FEA
:1009A0008093B7028091BB00F0E0EA56FD4F808350
:1009B0009091B7028091B6029817C8F285E8D8CF17
:1009C000E091B70281E08E0F8093B7028091BB0067
:1009D000F0E0EA56FD4F80838091B90281115CCF2F
:1009E00081E08093940284EA8093BC001092BA0262
:1009F00024CF85EC8093BC001092BA0280918D02C6
:100A0000803230F4E0918D02F0E0E359FD4F108226
:100A100060918D0270E0E0918E02F0918F028DE680
:100A200092E0199510928D0208CF1092B80234CF3F
:100A3000789484B5826084BD84B5816084BD85B5B9
:100A4000826085BD85B5816085BD80916E008160C5
:100A500080936E001092810080918100826080936B
:100A6000810080918100816080938100809180006D
:100A70008160809380008091B10084608093B10098
:100A80008091B00081608093B0008091910082607D
:100A9000809391008091910081608093910080917A
:100AA00090008160809390008091A100826080938B
:100AB000A1008091A10081608093A1008091A0009D
:100AC00081608093A0008091210182608093210148
:100AD00080912101816080932101809120018160BA
:100AE0008093200180917A00846080937A008091C5
:100AF0007A00826080937A0080917A00816080938E
:100B00007A0080917A00806880937A001092C10008
:100B100010929302109292021092C1021092E3027C
:100B20000E94AA0281E892E0909391028093900241
:100B300082E892E090938F0280938E0288E4809303
:100B4000B8000AE212E0C6E2D2E08991282F30E034
:100B5000F901EC51FE4F449122563E4FF901249188
:100B6000222399F030E0220F331FF901E05BFE4FA2
:100B7000A591B491F901E659FE4F259134919FB7A3
:100B8000F894EC91E42BEC939FBF61E00E94FC0190
:100B90000C171D07D1F626E232E0A2E2B2E08D91F9
:100BA00090E0FC01EC51FE4F449182569E4FFC01B7
:100BB00084918823C9F090E0880F991FFC01E05BC5
:100BC000FE4FC591D491FC01E659FE4F6591749199
:100BD0009FB7F8945881842F809585238883EB01F3
:100BE000E8814E2B48839FBF2A173B07C1F63BE1A4
:100BF000832E33E0932E45EE642E55EC552E60E0A7
:100C0000A62E60E0B62E78E0472EE2E03E2E2224AB
:100C10002A9426E2E22E22E0F22ED0E0C0E061E04B
:100C200082E40E94FC0161E083E40E94FC0161E037
:100C300084E40E94FC0161E085E40E94FC0160E024
:100C4000F70181917F010E94FC01C4010197F1F736
:100C500092E2C92E92E0D92E10E000E0F6017190E8
:100C60006F01872D0E94D301892B41F564E170E06B
:100C700080E090E00E944F02872D0E94D301892BD3
:100C8000E9F4CC0FDD1FCC0FDD1FCE5EDD4FC00FB2
:100C9000D11FC881872D0E94D301892BD9F36EE122
:100CA00070E080E090E00E944F02C11112C0A114D8
:100CB000B10409F4AECF0E940000ABCF0F5F1F4F0D
:100CC0000430110559F62196C430D10509F0A7CF9B
:100CD000EECF81E08093C0024092E2021092C10206
:100CE0001092E3026C2F84EE92E00E944003C091C8
:100CF000E302C13208F08DC00E942A026B017C0120
:100D00008091BA02811160C03092BA0281E0809372
:100D1000B9022092B8021092B702C093B602A2ECB8
:100D2000B2E0E6E9F2E080E0C8137AC010929502E2
:100D30008091950280618093950280919402813028
:100D400009F072C0109294020E942A026B017C0189
:100D5000809195028093BB008091BC029091BD026E
:100D6000A091BE02B091BF02892B8A2B8B2B99F0E8
:100D70000E942A020091BC021091BD022091BE0285
:100D80003091BF026C197D098E099F09061717075C
:100D900028073907D0F18091BC0083FDD9CF50924C
:100DA000BC000E942A026B017C018091BA02823051
:100DB000F1F18091B8028F3F61F18091B8028032E9
:100DC00041F18091B80225C08091BC029091BD0292
:100DD000A091BE02B091BF02892B8A2B8B2B09F404
:100DE0008FCF0E942A020091BC021091BD02209177
:100DF000BE023091BF026C197D098E099F0906174A
:100E000017072807390708F07BCF8091BB020E94A3
:100E1000C8021092C1021092E3021092C00247CFA2
:100E20009D9191938F5F80CF6092BC00BACF8091EB
:100E3000BC029091BD02A091BE02B091BF02892B6D
:100E40008A2B8B2B09F4B1CF0E942A020091BC029D
:100E50001091BD022091BE023091BF026C197D0934
:100E60008E099F09061717072807390708F09DCF35
:100E7000CCCFE4EEF2E01382128288EE93E0A0E0A1
:100E8000B0E084839583A683B78384E092E0918366
:100E900080830895EE0FFF1F881F8BBF0790F69188
:080EA000E02D1994F894FFCF36
:100EA80000000000400313036F03E9020C03F9027A
:100EB800EA023132332F3435362A3738392D433068
:0A0EC8003D2B22232425424344451C
:00000001FF
