:020000020000FC
:1000000000E05FEF21E032E043E001B954B910B104
:10001000121729F0131751F0141709F1F8CF55B939
:100020000E946C0005B90E946C00F1CF68E165B9CF
:100030000E946C0064E265B90E946C0062E465B9DC
:100040000E946C0061E865B90E946C0062E465B9C9
:100050000E946C0064E265B90E946C00D8CF60E831
:1000600065B90E946C0060E465B90E946C0060E2B2
:1000700065B90E946C0060E165B90E946C0068E09F
:1000800065B90E946C0064E065B90E946C0062E092
:1000900065B90E946C0061E065B90E946C0062E085
:1000A00065B90E946C0064E065B90E946C0068E06C
:1000B00065B90E946C0060E165B90E946C0060E265
:1000C00065B90E946C0060E465B90E946C0060E84C
:1000D00065B90E946C009BCFBBE10E947B00089534
:1000E0009A950917E9F708959FEF0E947000AA9565
:1000F0000A17D1F70895AFEF0E947400BA950B1755
:04010000D1F7089596
:00000001FF
