:020000020000FC
:100000004FEF40BB47B941E44093000242E44093C4
:10001000010243E44093020250E0A0E0B2E07C9190
:10002000701741F07154770F0E941C000E94260047
:100030001196F5CFA0E0F3CFEAE7F0E0E70FF01F6D
:10004000649161BB3196649168B9089500E03FE125
:100050000E94360008951A950117E9F708951FEFD9
:100060000E942B002A950217D1F708952FEF0E94C6
:100070002F003A950317D1F7089513770D5F63FFAB
:060080000DDF63F773F7CA
:00000001FF
