:100000000C9417010C9438010C9438010C943801AD
:100010000C9438010C9438010C9438010C9438017C
:100020000C9438010C9438010C9438010C9438016C
:100030000C9438010C9438010C9438010C9438015C
:100040000C9438010C9410020C9438010C94380173
:100050000C9438010C9438010C9438010C94C601AE
:100060000C9438010C9438010C9438010C9438012C
:100070000C9438010C9438010C9438010C9438011C
:100080000C9438010C9438010C9438010C9438010C
:100090000C9438010C9438010C9438010C943801FC
:1000A0000C9438010C9438010C9438010C943801EC
:1000B0000C9438010C9438010C9438010C943801DC
:1000C0000C9438010C9438010C9438010C943801CC
:1000D0000C9438010C9438010C9438010C943801BC
:1000E0000C9438010C94B2010C94B6010C946A0182
:1000F0000C94AE010C9485010C948D010C94BC0100
:100100000C9496010C946F010C94C0010C94A00106
:100110000C94A4010C9490010C9489010C9481011D
:100120000C94A8010C949A010000210024002700DF
:100130002A002D00300033000101000004010701F6
:100140000A0100002200250028002B002E003100AB
:10015000340002010000050108010B010505050539
:10016000070508080808020202020A0A080804042F
:10017000040401010101010101010303030303035D
:100180000303040707070C0C0C0C0C0C0C0C0202EC
:10019000020206060606060606060B0B0B0B0B0BE9
:1001A0000B0B010210202008081020401020408076
:1001B000020102010804020101020408102040802B
:1001C00080402010080402018004020180402010B9
:1001D0000804020108040201010204081020408002
:1001E000010204081020408000000A0B02090C0DD7
:1001F0000E080703040100000000000000000000DA
:1002000000000000000000000000000000000000EE
:1002100000000000121110000000000000000000AB
:100220000000000000000000000000000000112499
:100230001FBECFEFD1E2DEBFCDBF00E00CBF12E0AA
:10024000A0E0B2E0ECE8F6E000E00BBF02C00790EF
:100250000D92A831B107D9F722E0A8E1B2E001C0C0
:100260001D92A332B207E1F70E9435020C944403B9
:100270000C940000282F30E0F901E851FE4F9491D2
:10028000F901EE55FE4F4491245A3E4FF901249155
:10029000222309F435C0992311F191509231F8F4D9
:1002A000E92FF0E08827E85AFE4F8F4F0C9428037F
:1002B00089018D016A01810185016F01900196011B
:1002C0009A01A001A401A801AE01B2016F01B6011B
:1002D000BC01C001809180008F7780938000E22F65
:1002E000F0E0EE0FFF1FEE5BFE4FA591B4918FB7CC
:1002F000F894EC91611148C040954E234C938FBF08
:100300000895809180008F7DE8CF80918000877F65
:10031000E4CF84B58F7784BDE2CF84B58F7DFBCFEA
:100320008091B0008F778093B000D9CF8091B000DA
:100330008F7DF9CF809190008F7780939000CFCF01
:10034000809190008F7DF9CF80919000877FF5CFCD
:100350008091A0008F778093A000C1CF8091A000F2
:100360008F7DF9CF8091A000877FF5CF809120010C
:100370008F7780932001B3CF809120018F7DF9CFBB
:1003800080912001877FF5CF4E2BB8CF1F920F921F
:100390000FB60F9211242F933F938F939F93AF9398
:1003A000BF9380911F0290912002A0912102B091F1
:1003B000220230911E0223E0230F2D3758F50196BB
:1003C000A11DB11D20931E0280931F029093200255
:1003D000A0932102B093220280911A0290911B02F5
:1003E000A0911C02B0911D020196A11DB11D809328
:1003F0001A0290931B02A0931C02B0931D02BF919E
:10040000AF919F918F913F912F910F900FBE0F90C1
:100410001F90189526E8230F0296A11DB11DD2CF7B
:100420001F920F920FB60F9211245F936F937F93D9
:100430008F939F93AF93BF9380911802909119026D
:10044000019660E170E00E9414039093190280937A
:100450001802BF91AF919F918F917F916F915F91A2
:100460000F900FBE0F901F901895789484B58260FE
:1004700084BD84B5816084BD85B5826085BD85B548
:10048000816085BD80916E00816080936E001092C6
:100490008100809181008260809381008091810041
:1004A00081608093810080918000816080938000D2
:1004B0008091B10084608093B1008091B000816030
:1004C0008093B00080919100826080939100809130
:1004D0009100816080939100809190008160809371
:1004E00090008091A10082608093A1008091A10082
:1004F00081608093A1008091A00081608093A00022
:10050000809121018260809321018091210181608D
:10051000809321018091200181608093200180914E
:100520007A00846080937A0080917A008260809360
:100530007A0080917A00816080937A0080917A00BD
:10054000806880937A001092C100C0E0D2E0899167
:10055000282F30E0F901EE55FE4F9491245A3E4F7A
:10056000F9012491222399F030E0220F331FF90181
:10057000E85DFE4FA591B491F901EE5BFE4F259128
:1005800034912FB7F894EC91E92BEC932FBF61E0F5
:100590000E943A01F2E0C830DF07C9F610928100EC
:1005A00010928000809181008C6080938100109275
:1005B00085001092840084E294EF909389008093E8
:1005C000880080916F00826080936F00789490E043
:1005D000E92E90E0F92EE0911802F0911902FF2720
:1005E000E85FFD4F008180E0C82E82E0D82ED0E089
:1005F000C0E010E0B8010C2E02C0759567950A9412
:10060000E2F76095709561707727F60181916F012F
:100610000E943A012196C830D10561F7E114F10436
:10062000D1F20E940000D7CF97FB072E16F400945A
:1006300007D077FD09D00E94300307FC05D03EF4B7
:10064000909581959F4F0895709561957F4F08957E
:10065000EE0FFF1F881F8BBF0790F691E02D1994B6
:10066000AA1BBB1B51E107C0AA1FBB1FA617B707D8
:1006700010F0A61BB70B881F991F5A95A9F78095F4
:0C0680009095BC01CD010895F894FFCFC7
:10068C00363738393A3B3C3D3F065B4F666D7D074C
:08069C007F6F777C395E7971F4
:00000001FF
