:100000000C942F010C9460010C9460010C9460011D
:100010000C9460010C9460010C9460010C946001DC
:100020000C9460010C9460010C9460010C945704D2
:100030000C9460010C9460010C9460010C946001BC
:100040000C9460010C9460010C9460010C946001AC
:100050000C9460010C9460010C9460010C940D04EC
:100060000C9460010C9460010C9460010C9460018C
:100070000C9460010C9460010C9460010C9460017C
:100080000C9460010C9460010C9460010C9460016C
:100090000C9460010C9460010C9460010C9460015C
:1000A0000C9460010C9460010C9460010C9460014C
:1000B0000C9460010C9460010C9460010C9460013C
:1000C0000C9460010C9460010C9460010C9460012C
:1000D0000C9460010C9460010C9460010C9460011C
:1000E0000C9460010C9407040C94A4020C94760206
:1000F0000C9480010C94C0010C949B010C94B301EE
:100100000C948E010C9495010C94A3020C949F0105
:100110000C9486010C94C5010C94A9010C947306EF
:100120000C94B7010C94A5010C94BB010C948A01AA
:100130000C94C1010C9492010C94AD0100002100BB
:10014000240027002A002D003000330001010000A8
:10015000040107010A0100002200250028002B00ED
:100160002E003100340002010000050108010B01DE
:10017000000020002300260029002C002F00320060
:100180000001000003010601090105050505070539
:1001900008080808020202020A0A08080404040403
:1001A000010101010101010103030303030303032F
:1001B000040707070C0C0C0C0C0C0C0C02020202BE
:1001C00006060606060606060B0B0B0B0B0B0B0BA7
:1001D0000102102020080810204010204080020159
:1001E000020108040201010204081020408080403E
:1001F000201008040201800402018040201008043D
:1002000002010804020101020408102040800102DA
:1002100004081020408000000A0B02090C0D0E0893
:1002200007030401000000000000000000000000BF
:1002300000000000000000000000000000000000BE
:10024000000012111000000000000000000000007B
:1002500000000000000000000000000073061124F0
:100260001FBECFEFD1E2DEBFCDBF00E00CBF12E07A
:10027000A0E0B2E0E0E9FDE000E00BBF02C00790C3
:100280000D92AC36B107D9F722E0ACE6B2E001C07E
:100290001D92A639B207E1F711E0CFE2D1E000E00C
:1002A00006C021970109802FFE010E94AA06CE32C6
:1002B000D10780E00807A9F70E9466040C94C606DF
:1002C0000C9400008150823108F05AC0E82FF0E011
:1002D0008827E259FE4F8F4F0C94AA068E01920197
:1002E000800186018A01C00195019B019F01A50142
:1002F000A901AD01B301B701C001BB01C101C50135
:10030000809180008F778093800008958091800095
:100310008F7DF9CF80918000877FF5CF84B58F776F
:1003200084BD089584B58F7DFBCF8091B0008F7719
:100330008093B00008958091B0008F7DF9CF8091B7
:1003400090008F77809390000895809190008F7D2A
:10035000F9CF80919000877FF5CF8091A0008F77B3
:100360008093A00008958091A0008F7DF9CF8091A7
:10037000A000877FF5CF809120018F7780932001A7
:100380000895809120018F7DF9CF80912001877F92
:10039000F5CFCF93DF93282F30E0F901EA5EFD4FD0
:1003A0008491F901E053FE4FD491F901E657FE4FD5
:1003B000C491CC23A1F081110E946201EC2FF0E0E6
:1003C000EE0FFF1FE059FE4FA591B491EC91ED2384
:1003D00081E090E009F480E0DF91CF91089580E022
:1003E00090E0FACF1F93CF93DF93282F30E0F901ED
:1003F000EA5EFD4F8491F901E053FE4FD491F9017B
:10040000E657FE4FC491CC23A9F0162F81110E940C
:100410006201EC2FF0E0EE0FFF1FEA5AFE4FA591AC
:10042000B4918FB7F894EC91111108C0D095DE23E8
:10043000DC938FBFDF91CF911F910895DE2BF8CF12
:10044000CF93DF9390E0FC01E053FE4F2491865759
:100450009E4FFC0184918823D1F090E0880F991F72
:10046000FC01E45CFE4FA591B491FC01EA5AFE4FF9
:10047000C591D491623071F49FB7F8943C91822F6A
:10048000809583238C93E8812E2B28839FBFDF9157
:10049000CF9108958FB7F894EC912E2B2C938FBFAA
:1004A000F6CF3FB7F89480917A0290917B02A091A9
:1004B0007C02B0917D0226B5A89B05C02F3F19F0A4
:1004C0000196A11DB11D3FBFBA2FA92F982F8827D4
:1004D000BC01CD01620F711D811D911D42E0660FAF
:1004E000771F881F991F4A95D1F70895AF92BF9241
:1004F000CF92DF92EF92FF920F931F93CF93DF93F0
:100500006C017B018B01040F151FEB015E01AE181E
:10051000BF08C017D10759F06991D601ED91FC9140
:100520000190F081E02DC6011995892B79F7C5015D
:10053000DF91CF911F910F91FF90EF90DF90CF90BF
:10054000BF90AF900895089590E080E00895FC0179
:1005500001900020E9F73197AF01481B590BBC010E
:100560008EE792E00C947602CF93DF93EC0160E08B
:100570008E810E94F20161E08E810E94F20160E0B2
:100580008E810E94F2018BE891E00197F1F7DF91F3
:10059000CF910895CF92DF92EF92FF920F931F9326
:1005A000CF93DF936C017C0187E0E80EF11CD0E073
:1005B000C0E0062F10E0B8010C2E02C075956795BB
:1005C0000A94E2F76170F70181917F010E94F201C4
:1005D0002196C430D10579F7C601DF91CF911F91E3
:1005E0000F91FF90EF90DF90CF900C94B402CF92D8
:1005F000DF92EF92FF920F931F93CF93DF93EC0163
:10060000F62E642F8C810E94F2018D818F3F19F0AC
:1006100060E00E94F2010F2D10E08F8584FF25C05D
:100620006E0187E0C80ED11CF12CE12CB8010E2C14
:1006300002C0759567950A94E2F76170F6018191A1
:100640006F010E94F201FFEFEF1AFF0A88E0E8163F
:10065000F10461F7CE01DF91CF911F910F91FF90CF
:10066000EF90DF90CF900C94B402B80184E07595C0
:1006700067958A95E1F7CE010E94CA026F2DCE01DF
:10068000DF91CF911F910F91FF90EF90DF90CF906E
:100690000C94CA0240E0682F8EE792E00C94F702B7
:1006A00081E00E944A038BE39FE10197F1F70895EF
:1006B000CF93DF93823029F490918D0298609093CC
:1006C0008D02809391021092920280E480939302B3
:1006D00080E18093940280E58093950261E08091AF
:1006E00082020E942002809183028F3F19F061E014
:1006F0000E94200261E0809184020E942002CEE7E5
:10070000D2E09E012E57324080918D0284FD0BC0B5
:1007100084E090E021962817390744F461E08E8147
:100720000E942002EECF88E090E0F4CF8BE39DE0C2
:100730000197F1F760E0809182020E94F20160E08F
:10074000809184020E94F201809183028F3F19F010
:1007500060E00E94F20180918D0284FD34C063E06C
:100760008EE792E00E94CA02CBE4D6E4CE01019764
:10077000F1F763E08EE792E00E94CA022197F1F759
:1007800063E08EE792E00E94CA0283E592E001975F
:10079000F1F762E08EE792E00E94CA0280918D023A
:1007A00080620E944A0384E080938E028CE00E9463
:1007B0004A030E94500382E080938F0286E0DF911B
:1007C000CF910C944A0380620E944A038BE496E422
:1007D0000197F1F780918D0280620E944A0383E5C0
:1007E00092E00197F1F780918D0280620E944A03A6
:1007F000D5CF90919102891710F08FEF890FE82FD4
:10080000F0E0E258FD4F848980680C944A0341E08F
:100810000E94F70281E090E008951F920F920FB6B8
:100820000F9211242F933F938F939F93AF93BF9376
:100830008091760290917702A0917802B09179022E
:100840003091750223E0230F2D3758F50196A11D35
:10085000B11D209375028093760290937702A09346
:100860007802B093790280917A0290917B02A091F4
:100870007C02B0917D020196A11DB11D80937A0288
:1008800090937B02A0937C02B0937D02BF91AF91C5
:100890009F918F913F912F910F900FBE0F901F90BE
:1008A000189526E8230F0296A11DB11DD2CF1F92E5
:1008B0000F920FB60F9211248F9381E080937202F2
:1008C0008F910F900FBE0F901F901895CF93DF93CD
:1008D000CDB7DEB763970FB6F894DEBF0FBECDBFBE
:1008E000789484B5826084BD84B5816084BD85B50B
:1008F000826085BD85B5816085BD80916E00816017
:1009000080936E00109281008091810082608093BC
:1009100081008091810081608093810080918000BE
:100920008160809380008091B10084608093B100E9
:100930008091B00081608093B000809191008260CE
:1009400080939100809191008160809391008091CB
:1009500090008160809390008091A10082608093DC
:10096000A1008091A10081608093A1008091A000EE
:1009700081608093A0008091210182608093210199
:10098000809121018160809321018091200181600B
:100990008093200180917A00846080937A00809116
:1009A0007A00826080937A0080917A0081608093DF
:1009B0007A0080917A00806880937A001092C1005A
:1009C00005E212E0F801F1908F0161E08F2D0E94A5
:1009D000200261E08F2D0E94F201F2E009321F0730
:1009E00089F762E08EE30E94200262E08FE30E94BA
:1009F000200262E080E40E94200262E081E40E9422
:100A000020028091680084608093680080916D006E
:100A10008F6080936D00789482E00E9458030E945A
:100A20005003CE0101969B8B8A8B2E0191E1490EDA
:100A3000511C5DE1652E712C60E0262E60E0362EA3
:100A400080910402882359F00E94500380E00E94A4
:100A5000F90389E292E00E94A702109204022FB7E4
:100A6000F8948091760290917702A0917802B091EB
:100A700079022FBF40916E0250916F026091700217
:100A800070917102841B950BA60BB70B8C329140B1
:100A9000A105B10508F43FC02FB7F8948091760204
:100AA00090917702A0917802B09179022FBF809344
:100AB0006E0290936F02A0937002B0937102209126
:100AC0006C0230916D02FE0131968A899B89281B48
:100AD000390BC9018E0F9F1FB3010E949606DC01DE
:100AE000A95CBD4F8C9181934E165F0691F7198AD0
:100AF00081E00E94F903CE0101960E94A702809135
:100B00006C0290916D020196B3010E94960690933B
:100B10006D0280936C0261E086E30E94F20161E065
:100B200087E30E94F20161E088E30E94F20161E044
:100B300089E30E94F2010091730210917402F8019E
:100B4000EB5DFD4F60E080810E94F201C8010196DB
:100B500064E070E00E9496069093740280937302A2
:100B600080917202882309F47DC031E2C32E32E005
:100B7000D32EEE24EA94FE2C10E000E0F6018191E1
:100B80006F010E94C901892B09F478010F5F1F4F83
:100B90000430110599F725E2822E22E0922E0FEF04
:100BA0001FEFD12CC12CF40181914F010E94C9018A
:100BB000892B09F48601FFEFCF1ADF0A24E0C21661
:100BC000D10489F70F3F100709F44CC09FEFE916D5
:100BD000F90609F447C0000F111F000F111F0E0D79
:100BE0001F1D1093030200930202E0910202F09194
:100BF0000302EF5EFD4F80818334D9F50E945003DC
:100C000081E08093040210927202F701EF5DFD4FC4
:100C10001081812F0E94C901892BD9F30E945102B2
:100C20006B017C0186E9882E912CA12CB12C0E94AD
:100C300051026C197D098E099F09683E7340810538
:100C40009105A8F3F1E08F1A9108A108B10828EEE8
:100C5000C20E23E0D21EE11CF11C81149104A104F8
:100C6000B10429F72114310409F4EACE0E940000EE
:100C7000E7CE00910002109101020F3F100719F614
:100C8000082E000C990BC0979093010280930002EC
:100C90008130910599F082309105C1F0892BF1F4F2
:100CA00081E00E94F9030E94500385E592E00E94D2
:100CB000A7021093010200930002A2CF81E00E94DC
:100CC000F9030E9450038CE592E0F1CF81E00E948D
:100CD000F9030E94500385E692E0E9CF10930102E8
:100CE0000093000290CFEEE7F2E01382128289E0D7
:100CF00092E0918380838DE084838FEF85838CE005
:100D000086838BE087838AE0808789E0818788E01B
:100D1000828787E0838786E0848785E0858784E013
:100D2000868780E1878781E00C94580397FB072E24
:100D300016F4009407D077FD09D00E94B20607FC94
:100D400005D03EF4909581959F4F089570956195DB
:100D50007F4F0895EE0FFF1F881F8BBF0790F691FE
:100D6000E02D1994AA1BBB1B51E107C0AA1FBB1F92
:100D7000A617B70710F0A61BB70B881F991F5A9527
:100D8000A9F780959095BC01CD010895F894FFCF07
:100D9000FFFFFFFF010000000007047602A402A38A
:100DA000023738392F3435362A3132332D43303D2E
:100DB0002B3E3F404136373839456C6567697220B4
:100DC0006D6F646F3A2000302E50656469646F2D3A
:100DD000312E52656361726761722D322E506167E8
:100DE000617220200050454449444F005245434120
:0C0DF00052474152005041474152000060
:00000001FF
