:100000000C94B6010C94E7010C94E7010C94E70101
:100010000C94E7010C94E7010C94E7010C94E701C0
:100020000C94E7010C94E7010C94E7010C94E701B0
:100030000C94E7010C94E7010C94E7010C94E701A0
:100040000C94E7010C94E7010C94E7010C94E70190
:100050000C94E7010C94E7010C94E7010C94CD0A91
:100060000C94E7010C94410B0C94170B0C94E701D2
:100070000C94E7010C94E7010C94E7010C94E70160
:100080000C94E7010C94E7010C94E7010C94E70150
:100090000C94E7010C94E7010C94E7010C94E70140
:1000A0000C94E7010C94E7010C94E7010C94E70130
:1000B0000C94E7010C94E7010C94E7010C94E70120
:1000C0000C94E7010C94E7010C94E7010C94E70110
:1000D0000C94E7010C94E7010C94E7010C94E70100
:1000E0000C94E7010C9409030C943D020C9441021A
:1000F0000C9429020C9445030C944A020C94360388
:100100000C94770B0C9414020C944F070C949F03DF
:100110000C94EC030C943D040C944B020C94590386
:100120000C9437020C9425020C940A020C941C02C5
:100130000C9410020C944F020C942F020C94180291
:100140000C941F020C9467030C94EC060C9445026B
:100150000C943302556E6B6E6F776E206572726F02
:10016000720041204D4946415245205049434320A9
:10017000726573706F6E6465642077697468204E71
:10018000414B2E00546865204352435F4120646F09
:100190006573206E6F74206D617463682E00496E04
:1001A00076616C696420617267756D656E742E008E
:1001B000496E7465726E616C206572726F7220692F
:1001C0006E2074686520636F64652E2053686F75B8
:1001D0006C64206E6F742068617070656E2E0041D3
:1001E00020627566666572206973206E6F74206286
:1001F000696720656E6F7567682E0054696D656F5D
:10020000757420696E20636F6D6D756E69636174BE
:10021000696F6E2E00436F6C6C6973696F6E20643A
:10022000657465637465642E004572726F7220692F
:100230006E20636F6D6D756E69636174696F6E2E8C
:1002400000537563636573732E0000002000230064
:10025000260029002C002F003200000100000301BD
:100260000601090100002100240027002A002D00BA
:100270003000330001010000040107010A01000001
:100280002200250028002B002E003100340002013E
:100290000000050108010B01050505050705080813
:1002A0000808020202020A0A080804040404010100
:1002B0000101010101010303030303030303040715
:1002C00007070C0C0C0C0C0C0C0C020202020606AC
:1002D0000606060606060B0B0B0B0B0B0B0B01029F
:1002E0001020200808102040102040800201020148
:1002F0000804020101020408102040808040201000
:100300000804020180040201804020100804020158
:1003100008040201010204081020408001020408C0
:100320001020408000000A0B02090C0D0E08070384
:1003300004010000000000000000000000000000B8
:1003400000000000000000000000000000000000AD
:10035000121110000000000000000000000000006A
:1003600000000000000000000000770B11241FBEF9
:10037000CFEFD1E2DEBFCDBF00E00CBF24E0AAE3A7
:10038000B4E001C01D92AB3FB207E1F714E0A0E07A
:10039000B2E0E0EEF1E200E00BBF02C007900D9288
:1003A000AA33B107D9F711E0C6EBD1E000E006C0EF
:1003B00021970109802FFE010E94D00EC53BD10775
:1003C00080E00807A9F70E94AE0B0C94EE100C9485
:1003D00000008CBD9DBD08958150823108F05AC047
:1003E000E82FF0E08827E850FE4F8F4F0C94D00E96
:1003F00018021C020A02100214024A021F022502FD
:1004000029022F02330237023D0241024A0245020D
:100410004B024F02809180008F7780938000089577
:10042000809180008F7DF9CF80918000877FF5CF0C
:1004300084B58F7784BD089584B58F7DFBCF80917F
:10044000B0008F778093B00008958091B0008F7DC9
:10045000F9CF809190008F778093900008958091DC
:1004600090008F7DF9CF80919000877FF5CF8091AC
:10047000A0008F778093A00008958091A0008F7DC9
:10048000F9CF8091A000877FF5CF809120018F77F1
:10049000809320010895809120018F7DF9CF809174
:1004A0002001877FF5CF1F93CF93DF93282F30E074
:1004B000F901EC5DFC4F8491F901E252FD4FD491BA
:1004C000F901E856FD4FC491CC23A9F0162F8111F4
:1004D0000E94EC01EC2FF0E0EE0FFF1FE258FD4F01
:1004E000A591B4918FB7F894EC91111108C0D095F3
:1004F000DE23DC938FBFDF91CF911F910895DE2B18
:10050000F8CFCF93DF9390E0FC01E252FD4F2491AE
:1005100088569D4FFC0184918823D1F090E0880F8C
:10052000991FFC01EC59FD4FA591B491FC01E258D3
:10053000FD4FC591D49161110EC09FB7F8948C9175
:10054000E22FE0958E238C932881E223E8839FBFDE
:10055000DF91CF9108958FB7F894EC91E22BEC9353
:100560008FBFF6CF3FB7F89480914004909141043B
:10057000A0914204B091430426B5A89B05C02F3F2B
:1005800019F00196A11DB11D3FBFBA2FA92F982FB9
:100590008827BC01CD01620F711D811D911D42E0B4
:1005A000660F771F881F991F4A95D1F708958F927C
:1005B0009F92AF92BF92CF92DF92EF92FF924B0148
:1005C0005C010E94B2026B017C010E94B2026C19B4
:1005D0007D098E099F09683E734081059105A8F346
:1005E00021E0821A9108A108B10888EEC80E83E0C4
:1005F000D81EE11CF11C81149104A104B10429F757
:10060000FF90EF90DF90CF90BF90AF909F908F9032
:100610000895AF92BF92CF92DF92EF92FF920F9325
:100620001F93CF93DF936C017B018B01040F151F88
:10063000EB015E01AE18BF08C017D10759F06991F0
:10064000D601ED91FC910190F081E02DC601199544
:10065000892B79F7C501DF91CF911F910F91FF9001
:10066000EF90DF90CF90BF90AF900895FC01538D35
:10067000448D252F30E0842F90E0821B930B54177C
:1006800010F0CF96089501970895FC01918D828D09
:10069000981761F0A28DAE0FBF2FB11D5D968C91A2
:1006A000928D9F5F9F73928F90E008958FEF9FEFE1
:1006B0000895FC01918D828D981731F0828DE80F9D
:1006C000F11D858D90E008958FEF9FEF0895FC0157
:1006D000918D228D892F90E0805C9F4F821B910924
:1006E0008F73992708958AE494E00E94670321E0BC
:1006F000892B09F420E0822F0895FC01A48DA80F16
:10070000B92FB11DA35ABF4F2C91848D90E0019653
:100710008F739927848FA689B7892C93A089B18973
:100720008C91837080648C93938D848D981306C014
:100730000288F389E02D80818F7D80830895EF9278
:10074000FF920F931F93CF93DF93EC0181E0888F8B
:100750009B8D8C8D98131AC0E889F989808185FF5B
:1007600015C09FB7F894EE89FF896083E889F989FD
:1007700080818370806480839FBF81E090E0DF91FF
:10078000CF911F910F91FF90EF900895F62E0B8D52
:1007900010E00F5F1F4F0F731127E02E8C8D8E110D
:1007A0000CC00FB607FCFACFE889F989808185FF74
:1007B000F5CFCE010E947D03F1CFEB8DEC0FFD2F25
:1007C000F11DE35AFF4FF0829FB7F8940B8FEA892F
:1007D000FB8980818062CFCFCF93DF93EC01888D3E
:1007E0008823B9F0AA89BB89E889F9898C9185FDAC
:1007F00003C0808186FD0DC00FB607FCF7CF8C913A
:1008000085FFF2CF808185FFEDCFCE010E947D0371
:10081000E9CFDF91CF91089580E090E0892B29F016
:100820000E94730381110E94000080E090E0892BF8
:1008300049F080E090E0892B29F00E9400008111AE
:100840000E94000080E090E0892B49F080E090E079
:10085000892B29F00E94000081110E94000080E095
:1008600090E0892B49F080E090E0892B29F00E94EC
:10087000000081110C9400000895BC016E5F7F4F51
:10088000DC01ED91FC910190F081E02D40E01995A3
:1008900091E0811190E0892F08958430F1F050F4B7
:1008A000813091F030F1823091F0833099F084E51D
:1008B00091E008958630B9F098F08730B9F08F3F15
:1008C000B1F782E691E0089589E292E0089585E12A
:1008D00092E008958BEF91E008958FED91E00895F7
:1008E00080EB91E008958EE991E0089584E891E02D
:1008F000089581E492E0089508958EBD00000DB43E
:1009000007FEFDCF8EB50895DF92EF92FF920F9311
:100910001F93CF93DF937C01062FD42E152F80E5F4
:1009200090E00E94E90160E0F70186850E94530291
:1009300082E10E947D04CD2DD12F0C0F1D2F111DA2
:10094000C017D10721F089910E947D04F9CF61E0A1
:10095000F7018685DF91CF911F910F91FF90EF9066
:10096000DF900C9453021F93CF93DF93EC01162F6B
:1009700080E590E00E94E90160E08E850E945302CC
:10098000812F80680E947D0480E00E947D04182FE2
:1009900061E08E850E945302812FDF91CF911F91DC
:1009A00008950F931F93CF93DF93EC01062F142F1D
:1009B00080E590E00E94E90160E08E850E9453028C
:1009C000802F0E947D04812F0E947D0461E08E852E
:1009D000DF91CF911F910F910C945302CF92DF9230
:1009E000EF92FF920F931F93CF93DF93EC016B0174
:1009F000F42E890140E062E00E94D10444E06AE004
:100A0000CE010E94D10440E864E1CE010E94D104ED
:100A1000A6016F2DCE010E94840443E062E0CE0166
:100A20000E94D1048FB7F894C0903C04D0903D044C
:100A3000E0903E04F0903F048FBF89E5C80ED11CC2
:100A4000E11CF11C6AE0CE010E94B30482FF1BC0CE
:100A500040E062E0CE010E94D10464E4CE010E9435
:100A6000B304F801808362E4CE010E94B304F8016C
:100A7000818380E0DF91CF911F910F91FF90EF90E4
:100A8000DF90CF9008952FB7F89480913C04909117
:100A90003D04A0913E04B0913F042FBF8C159D05ED
:100AA000AE05BF0578F283E0E5CF2F923F924F92DB
:100AB0005F926F927F928F929F92AF92BF92CF92EE
:100AC000DF92EF92FF920F931F93CF93DF931F92CA
:100AD0001F92CDB7DEB73C01162F942E290180E07E
:100AE000A114B10411F0F5018081382C329490EFFB
:100AF0003922380E40E062E0C3010E94D1044FE782
:100B000068E0C3010E94D10440E864E1C3010E948F
:100B1000D104A201602FC3010E948404432D6AE125
:100B2000C3010E94D104412F62E0C3010E94D1049D
:100B30001C3051F46AE1C3010E94B304482F40689D
:100B40006AE1C3010E94D1048FB7F89420903C045D
:100B500030903D0440903E0450903F048FBFF4E23B
:100B60002F0E311C411C511C68E0C3010E94B304CC
:100B7000982F992109F0BFC080FF16C083E00F9025
:100B80000F90DF91CF911F910F91FF90EF90DF9029
:100B9000CF90BF90AF909F908F907F906F905F901D
:100BA0004F903F902F9008952FB7F89480913C0478
:100BB00090913D04A0913E04B0913F042FBF821557
:100BC0009305A405B50580F2D9CFE114F10409F429
:100BD00067C0C114D10409F463C064E1C3010E9479
:100BE000B304982EF6018081891508F47EC09082A6
:100BF0009920C9F180E590E00E94E90160E0F301ED
:100C000086850E9453029A9482E90E947D0488207E
:100C100099F00FEF10E001C0000F8A94EAF782E923
:100C20000E947D04902F9095F701208192238023CC
:100C3000982B9083882483948701080D111D8914B3
:100C400040F482E90E947D04F80181938F0183942E
:100C5000F6CF80E00E947D04F801808361E0F3011B
:100C600086850E94530268E1C3010E94B304877025
:100C7000A114B10411F0F501808353FC38C0E114D4
:100C8000F104B9F1C114D104A1F1988D992389F12E
:100C9000F6014081413031F4843029F58FEF6FCF78
:100CA00080E0EBCF4230F8F081111DC042509E0130
:100CB0002F5F3F4FB701C3010E94EE0481115FCF48
:100CC000F6019081E90EF11CF7013297208199819C
:100CD000291309C0F1E0EF1AF108F70120819A8188
:100CE000291709F44CCF87E04ACF84E048CF82E04F
:100CF00046CF80E044CF6CE0C3010E94B304582E7D
:100D0000837109F462CF81E03ACF8F92AF92BF92A4
:100D1000CF92DF92EF92FF920F93CF93DF93CDB7F5
:100D2000DEB72C970FB6F894DEBF0FBECDBF80E6BE
:100D3000898387E08A83E4E4F4E0DE0113968191FD
:100D40008D9384E0EA34F807D1F7E091E904E150AB
:100D5000FF0BE951FB4FDE011996CE010D96219153
:100D60002D93A817B907D9F71F92812CB12CA12C6C
:100D7000D12CC12CF12CE12C0CE09E012F5F3F4FB8
:100D800040E16EE087EE94E00E9455050F902C96AE
:100D90000FB6F894DEBF0FBECDBFDF91CF910F919C
:100DA000FF90EF90DF90CF90BF90AF908F9008951D
:100DB0000F931F93CF93DF938C01D62FC42F0E94E4
:100DC000B304C0954C2F48236D2FC801DF91CF91FC
:100DD0001F910F910C94D1046F927F928F92AF92DA
:100DE000BF92CF92DF92EF92FF920F93CF93DF9358
:100DF00000D01F921F92CDB7DEB73C0182E08D83F9
:100E000040E064E2C3010E94D10440E066E2C30115
:100E10000E94D10446E268E4C3010E94D10486E244
:100E20008B838D818230C8F140E86CE1C3010E9460
:100E3000D80687E08C831F92812CCE0104965C013A
:100E400001966C0104977C0101E09E012D5F3F4FEC
:100E500040E36CE0C3010E945505982F0F9081116B
:100E600019C08D818230C9F48C81811116C081E056
:100E70000F900F900F900F900F90DF91CF910F91E7
:100E8000FF90EF90DF90CF90BF90AF908F907F90CA
:100E90006F90089581E0923059F380E0E9CF2F926E
:100EA0003F924F925F926F927F928F929F92AF92FA
:100EB000BF92CF92DF92EF92FF920F931F93CF9347
:100EC000DF93CDB7DEB72E970FB6F894DEBF0FBE17
:100ED000CDBF06E0413508F046C14E873B012C01ED
:100EE00040E86CE10E94D80683E989832E8522239D
:100EF00029F081E0F3019081953008F480E0992495
:100F000093941C869C85990F990F990F1E85191B28
:100F100017FD10E032E0882319F098E89B8333E056
:100F200021E0912F977009F420E0912F95959595E8
:100F30009595290FD1F094E0811193E0291708F4D9
:100F4000922F2C85E22FF0E03196E60DF71D232F2E
:100F50004191A1E0B0E0AC0FBD1FA20FB11D4C93B9
:100F60002F5F422F431B491798F38111185F1032EE
:100F70000CF484C080E78A838B819C8189279D81C2
:100F800089279E8189278F839E01285F3F4F47E0F5
:100F9000BE016F5F7F4FC2010E94EE04082F8111D6
:100FA000E2C01A8693E09B871D87FE0137961F01DA
:100FB00009E08A84482D4295407F480D6AE1C201CC
:100FC0000E94D1041F92CE010A965C01FE013B965D
:100FD0006F0171019E012F5F3F4F40E36CE0C20142
:100FE0000E945505082F0F90823009F065C06CE112
:100FF000C2010E94B30485FDB6C08F7109F480E27E
:10100000282F30E0412F110F550B421753070CF0DA
:101010009EC0182FE22FE595E595E595EF5F922F9D
:10102000977081E009F480E0E80F81E090E08C0F98
:101030009D1F8E0F911DFC01215031092770332710
:1010400081E090E002C0880F991F2A95E2F79C0189
:101050008081822B80838BCF85E98983FE85FF2366
:1010600031F081E0F3019081983008F04BCF80E0BF
:1010700049CF87E98983F6E0FC87F9CF912F9770F4
:101080009A87812F8595859585958E5F282F229546
:10109000207F290F2A8301E0911101C000E0080F91
:1010A00022242394312C2C0E3D1E280E311CF9E0F5
:1010B000F81BFB871D877DCF811155C010E29D85F0
:1010C00090320CF457CF8B81883809F042C083E00E
:1010D00093E02C85E22FF0E03196E60DF71D980F96
:1010E000A1E0B0E0AC0FBD1FA80FB11D2C91219362
:1010F0008F5F8913F5CF8B858C87833009F04DC0C6
:101100008A8581114AC09E012D5F3F4F41E0B101A8
:10111000C2010E94EE04082F811125C09B81F101BC
:10112000818198133CC09C818281981338C0808152
:1011300082FF12C09394F2E09F1609F48DCF23E052
:10114000921609F496CF81E0981609F4CDCE05E009
:101150000AC082E094E0BDCFF3018387892D880F18
:10116000980E93949082802F2E960FB6F894DEBF3F
:101170000FBECDBFDF91CF911F910F91FF90EF90E8
:10118000DF90CF90BF90AF909F908F907F906F90A7
:101190005F904F903F902F90089501E0E4CF07E0DB
:1011A000E2CFFC0101900020E9F73197AF01481B25
:1011B000590BBC018AE494E00C94090382E292E0AA
:1011C0000C94D108CF93DF93FC0144815581608159
:1011D00071818AE494E00E940903EC010E94DE0818
:1011E0008C0F9D1FDF91CF9108950F931F93CF9385
:1011F000DF938C01D0E0C0E0F801EC0FFD1F64919B
:10120000662341F08AE494E00E949F03892B11F049
:101210002196F2CF0E94DE088C0F9D1FDF91CF91A7
:101220001F910F910895CF93DF930E94D108EC0195
:101230000E94DE088C0F9D1FDF91CF9108958F9241
:10124000AF92BF92CF92DF92EF92FF920F931F93D4
:10125000CF93DF93CDB7DEB763970FB6F894DEBFB9
:101260000FBECDBF82E18B8B0E948506182F85E2D1
:1012700092E011112EC08B89823108F445C080E3C1
:10128000898384E08A839E012D5F3F4F42E0BE0147
:101290006F5F7F4F87EE94E00E94EE04182F81115C
:1012A00016C081E08F93812CB12CA12CCE014396E6
:1012B0006C0142977C0104E09C0140E36CE087EE06
:1012C00094E00E945505182F0F908823F9F086E4CA
:1012D00092E00E94D108812F0E944D040E94F508DF
:1012E0008FEF9FEF63960FB6F894DEBF0FBECDBFB2
:1012F000DF91CF911F910F91FF90EF90DF90CF90F2
:10130000BF90AF908F90089514E0E1CF8B819C81C6
:10131000982789279827E6CF8F92AF92BF92CF92D6
:10132000DF92EF92FF920F93CF93DF93CDB7DEB7AB
:1013300064970FB6F894DEBF0FBECDBF062FE62E22
:10134000F12CA701BC01CE0101960E94DE1021E024
:1013500030E02C0F3D1F2E0D3F1D402FBE016F5F53
:101360007F4F87EE94E00E94EE04811123C082E15A
:101370008C8B1B8A0E5F1F92812CCE0143965C01E1
:1013800001966C0143977C019C0140E36CE087EE81
:1013900094E00E9455050F9081110CC08C8981301A
:1013A000D1F48B898430B9F481E099819A3009F4C1
:1013B00080E0819564960FB6F894DEBF0FBECDBF76
:1013C000DF91CF910F91FF90EF90DF90CF90BF9082
:1013D000AF908F90089581E0EDCFFC0180819181E5
:1013E000009711F00C94740F08950F931F93CF93EF
:1013F000DF93EC0188819981009759F02A813B8124
:101400002617370730F081E0DF91CF911F910F91C0
:1014100008958B016F5F7F4F0E94FD0F009759F079
:10142000998388831B830A832C813D81232B59F761
:10143000FC011082E8CF80E0E7CFEF92FF920F939C
:101440001F93CF93DF93EC01FB01E080F180E11467
:10145000F10411F10481158101151105A9F08C81A8
:101460009D81080F191FB801CE010E94F50988233C
:1014700099F0288139818C819D81B701820F931F5A
:101480000E94E7101D830C83CE01DF91CF911F9145
:101490000F91FF90EF90089588819981009711F046
:1014A0000E94740F198218821D821C821B821A826C
:1014B000EBCFEF92FF920F931F93CF93DF93EC014B
:1014C0007B018A01BA010E94F509288139818111C5
:1014D00014C02115310519F0C9010E94740F198239
:1014E00018821D821C821B821A82CE01DF91CF914D
:1014F0001F910F91FF90EF9008951D830C83B7010A
:10150000C9010E94E710F1CFEF92FF920F931F9352
:10151000CF93DF93CDB7DEB762970FB6F894DEBFF7
:101520000FBECDBF8C01CB01F80111821082138256
:101530001282158214824AE09E012F5F3F4F79018B
:10154000B9010E949B0EF70101900020E9F7319745
:10155000AF014E195F09B701C8010E94590A62968E
:101560000FB6F894DEBF0FBECDBFDF91CF911F91B4
:101570000F91FF90EF900895FC0111821082138269
:10158000128215821482FB0101900020E9F7319745
:10159000AF01461B570B0C94590A1F920F920FB6BE
:1015A0000F9211242F933F938F939F93AF93BF93E9
:1015B00080913C0490913D04A0913E04B0913F0481
:1015C00030913B0423E0230F2D3758F50196A11DE0
:1015D000B11D20933B0480933C0490933D04A09361
:1015E0003E04B0933F048091400490914104A09147
:1015F0004204B09143040196A11DB11D80934004A3
:1016000090934104A0934204B0934304BF91AF91DF
:101610009F918F913F912F910F900FBE0F901F9030
:10162000189526E8230F0296A11DB11DD2CF1F9257
:101630000F920FB60F9211240BB60F922F933F9378
:101640004F935F936F937F938F939F93AF93BF93CA
:10165000EF93FF938AE494E00E947D03FF91EF9162
:10166000BF91AF919F918F917F916F915F914F91BA
:101670003F912F910F900BBE0F900FBE0F901F90B8
:1016800018951F920F920FB60F9211240BB60F925E
:101690002F938F939F93EF93FF93E0915A04F091D0
:1016A0005B048081E0916004F091610482FD1DC0C3
:1016B0009081809163048F5F8F73209164048217FF
:1016C00041F0E0916304F0E0E65BFB4F958F80937F
:1016D0006304FF91EF919F918F912F910F900BBE1B
:1016E0000F900FBE0F901F9018958081F2CFEAE403
:1016F000F4E01382128288EE93E0A0E0B0E08483ED
:101700009583A683B7838AE092E09183808385ECFA
:1017100090E09587848784EC90E09787868780ECBB
:1017200090E0918B808B81EC90E0938B828B82ECAC
:1017300090E0958B848B86EC90E0978B868B118E56
:10174000128E138E148EE7EEF4E08CE192E091831A
:10175000808385E3868785E087870895CF93DF932D
:10176000CDB7DEB7A7970FB6F894DEBF0FBECDBFDB
:10177000789484B5826084BD84B5816084BD85B56C
:10178000826085BD85B5816085BD80916E00816078
:1017900080936E001092810080918100826080931E
:1017A0008100809181008160809381008091800020
:1017B0008160809380008091B10084608093B1004B
:1017C0008091B00081608093B00080919100826030
:1017D000809391008091910081608093910080912D
:1017E00090008160809390008091A100826080933E
:1017F000A1008091A10081608093A1008091A00050
:1018000081608093A00080912101826080932101FA
:10181000809121018160809321018091200181606C
:101820008093200180917A00846080937A00809177
:101830007A00826080937A0080917A008160809340
:101840007A0080917A00806880937A001092C100BB
:10185000E0915A04F0915B0482E08083E0915604A9
:10186000F09157041082E0915804F09159048FECE4
:10187000808310926204E0915E04F0915F0486E040
:101880008083E0915C04F0915D04808180618083BD
:10189000E0915C04F0915D04808188608083E09138
:1018A0005C04F0915D04808180688083E0915C0439
:1018B000F0915D0480818F7D80831FB7F8948091C3
:1018C0003A04811127C0EDECF2E08491E3E1F3E00A
:1018D0009491E82FF0E0EE0FFF1FEC59FD4FA5911A
:1018E000B491EC91E92321F461E085E30E94530275
:1018F00061E085E30E9481028CB580618CBD8CB56E
:1019000080648CBD61E084E30E94810261E083E336
:101910000E94810280913A048F5F80933A041FBF36
:1019200061E08091F5040E94810261E08091F504FC
:101930000E9453028091F6048F3F09F41AC160E0BF
:101940000E9481022091F60430E0F901EC5DFC4F29
:101950008491F901E252FD4F0491F901E856FD4FDF
:1019600014911111F7C061E08091F6040E94810288
:1019700060E08091F6040E94530283E090E00197BA
:10198000F1F761E08091F6040E94530262E370E097
:1019900080E090E00E94D70240E064E287EE94E0AD
:1019A0000E94D10440E066E287EE94E00E94D104F8
:1019B00046E268E487EE94E00E94D10440E864E5E2
:1019C00087EE94E00E94D10449EA66E587EE94E050
:1019D0000E94D10443E068E587EE94E00E94D104C0
:1019E00048EE6AE587EE94E00E94D10440E46AE2A2
:1019F00087EE94E00E94D1044DE362E287EE94E02A
:101A00000E94D10468E287EE94E00E94B304982F0C
:101A10009370933039F0482F436068E287EE94E08A
:101A20000E94D1048FEF80934404809345048093F7
:101A3000460480934704809348048093490489E5D1
:101A400092E00E9413098CE792E00E9413098FE94B
:101A500092E00E94130969E370E3CE0101960E94AF
:101A6000840A67EC72E0CE0182960E94BC0ABE0135
:101A70006F5F7F4FCE0182960E941D0A0E94E2088E
:101A8000CE0182960E94ED09CE0101960E94ED09D9
:101A90008BED92E00E9413090E94DE0810E53E01E2
:101AA00021E1620E711C29E3922E30EA532E87EE5B
:101AB00094E00E94EC06882309F41DC187EE94E0AF
:101AC0000E943D04882309F416C181EF92E00E9430
:101AD000130989E193E00E9413098CE293E00E94CC
:101AE000D10800E08091E904081708F05BC0802F5E
:101AF00090E0FC01E951FB4F7F018381803108F4C4
:101B000009C180E393E00E94D108F701438150E0CE
:101B100070E060E019A2FE01B196DB01CA018F708E
:101B20009927AA27BB2794E07695679557954795FF
:101B30009A95D1F78A30A4F5805D829341155105BD
:101B40006105710551F7309719F0CF010E94D10856
:101B50000F5FC8CF81110E94EC01E12FF0E0EE0F82
:101B6000FF1FE65BFD4FA591B491EC910E2309F4A4
:101B7000FACE4FE062E087EE94E00E94D10413E0D9
:101B800062E370E080E090E00E94D70262E087EEBE
:101B900094E00E94B30484FFFFCE115089F7FCCE7D
:101BA000895CCBCF0E94DE080E941F097C01019650
:101BB000029708F0A3C082E393E00E94130969E34F
:101BC00070E3CE0182960E94840A66E573E0CE013E
:101BD00001960E94BC0ABE016E5D7F4FCE01019648
:101BE0000E941D0A0E94E208CE0101960E94ED09A2
:101BF000CE0182960E94ED09FE0131961192E61502
:101C0000F705E1F719821A8280E38B839C820E9498
:101C10008506082F8FE693E0011181C05AA284E067
:101C20008BA362E0CE0182960E948C09082F81115D
:101C300074C060E1CE0101960E948C09082F8111C9
:101C40006CC088E893E00E9413090E941F09893341
:101C50009043E9F469E370E3CE0182960E94840A1E
:101C60006AEA73E0CE0101960E94BC0ABE016E5D75
:101C70007F4FCE0101960E941D0A0E94E208CE010C
:101C800001960E94ED09CE0182960E94ED0981EF36
:101C900092E00E9413090E94DE0819831A829E01B5
:101CA0002D5F3F4F42E0BE016F5F7F4F87EE94E0B4
:101CB0000E94EE04811113C01F92812CB12CA12C23
:101CC000D12CC12CF12CE12C04E09E012F5F3F4F61
:101CD00040E36CE087EE94E00E9455050F9048E0E9
:101CE00060E187EE94E00E94D80660ED77E080E046
:101CF00090E00E94D7020E940C04D9CE89EE93E0B6
:101D00000E941309B701CE0182960E94840A6AE0FC
:101D100074E0A8CF86E592E0F6CE85E294E00E94DA
:101D2000D108802F0E944D040E94F50885EC93E0B5
:101D30000E941309ACCFBB274A3031F4992322F417
:101D4000BDE2909581959F4F0C94A70EBB27FB0198
:101D50005527AA27880F991FAA1FA41710F0A41BA4
:101D600083955051B9F7A05DAA3308F0A95DA193FE
:101D7000009779F7B111B1931192CB010C94C00E79
:101D8000DC01FC01672F71917723E1F7329704C0E2
:101D90007C916D9370836291AE17BF07C8F308956D
:101DA000EE0FFF1F881F8BBF0790F691E02D19944F
:101DB0000F931F93CF93DF938230910510F482E04D
:101DC00090E0E091F904F091FA0430E020E0B0E016
:101DD000A0E0309799F42115310509F44AC0281B79
:101DE000390B24303105D8F58A819B816115710545
:101DF00089F1FB0193838283FE0111C040815181EF
:101E00000281138148175907E0F04817590799F4E0
:101E1000109761F012960C93129713961C933296BA
:101E2000CF01DF91CF911F910F9108950093F90495
:101E30001093FA04F4CF2115310551F042175307DE
:101E400038F0A901DB019A01BD01DF01F801C1CF22
:101E5000EF01F9CF9093FA048093F904CDCFFE01FE
:101E6000E20FF31F81939193225031093983288324
:101E7000D7CF2091F7043091F804232B41F420911F
:101E80000202309103023093F8042093F70420916A
:101E90000002309101022115310541F42DB73EB702
:101EA0004091040250910502241B350BE091F70488
:101EB000F091F804E217F307A0F42E1B3F0B28174C
:101EC000390778F0AC014E5F5F4F2417350748F0B3
:101ED0004E0F5F1F5093F8044093F7048193919342
:101EE0009FCFF0E0E0E09CCFCF93DF930097E9F045
:101EF000FC01329713821282A091F904B091FA0486
:101F0000ED0130E020E01097A1F420813181820FB3
:101F1000931F2091F7043091F8042817390709F02E
:101F200061C0F093F804E093F704DF91CF91089536
:101F3000EA01CE17DF07E8F54A815B819E01411572
:101F40005105B1F7E901FB83EA8349915991C40F27
:101F5000D51FEC17FD0761F4808191810296840FF3
:101F6000951FE90199838883828193819B838A836A
:101F7000F0E0E0E012968D919C9113970097B9F5EF
:101F80002D913C911197CD010296820F931F2091C4
:101F9000F7043091F8042817390739F6309751F5CE
:101FA0001092FA041092F904B093F804A093F70485
:101FB000BCCFD383C28340815181840F951FC81742
:101FC000D90761F44E5F5F4F88819981480F591F8F
:101FD000518340838A819B819383828321153105BC
:101FE00009F0B0CFF093FA04E093F9049ECFFD011D
:101FF000DC01C0CF13821282D7CF4F925F926F92D3
:102000007F928F929F92AF92BF92CF92DF92EF9288
:10201000FF920F931F93CF93DF938C01009799F456
:10202000CB01DF91CF911F910F91FF90EF90DF9047
:10203000CF90BF90AF909F908F907F906F905F9068
:102040004F900C94D80EFC01E60FF71F9C01225014
:102050003109E217F30708F4AEC0D901CD91DC9144
:102060001197C617D70720F1C530D10578F0CE01FA
:1020700004978617970750F0C61BD70B2297C1937A
:10208000D1936D937C93CF010E94740FC801DF91AF
:10209000CF911F910F91FF90EF90DF90CF90BF9065
:1020A000AF909F908F907F906F905F904F9008952A
:1020B0005B01AC1ABD0A4C018C0E9D1EA091F90467
:1020C000B091FA04512C412CF12CE12C109731F5F0
:1020D0008091F7049091F8048815990509F05CC087
:1020E0004616570608F058C08091000290910102F0
:1020F000009741F48DB79EB74091040250910502BC
:10210000841B950BE817F90708F055C0F093F80405
:10211000E093F704F90171836083B8CF8D919C91AE
:10212000119712966C90129713967C901397A8159E
:10213000B90559F56C0142E0C40ED11CCA14DB0488
:1021400020F1AC014A195B09DA011296159780F06B
:102150006282738251834083D9016D937C93E11431
:10216000F10471F0D7011396FC93EE9312978ECF82
:1021700022968C0F9D1FF90191838083F301EFCF8D
:10218000F093FA04E093F90481CF4816590608F455
:102190002C017D01D3019ACFCB010E94D80E7C0186
:1021A000009749F0AE01B8010E94DE10C8010E94FC
:1021B000740F87016BCF10E000E068CFFB01DC01FA
:1021C00002C001900D9241505040D8F70895FB0194
:1021D000DC0101900D920020E1F70895F894FFCF03
:1021E0000000FB048000000000009F030903360389
:1021F000EC03670345035903000000004F07EC069A
:102200003D040D0A004572726F722064652061758D
:1022100074656E7469636163696F6E20616C206CB4
:102220006565723A20004572726F7220616C206C95
:102230006565723A20002030003D3D3D3D3D3D3D0D
:102240003D3D3D2053697374656D6120524649449C
:10225000203D3D3D3D3D3D3D3D3D3D005072696D64
:10226000657261206C6563747572613A20457363B1
:102270007269626520656C206E756D65726F0053C2
:1022800069677569656E746573206C6563747572D2
:1022900061733A20536F6C6F206C656520656C200C
:1022A0006E756D65726F004E756D65726F20612081
:1022B00065736372696269723A2000416365726393
:1022C0006120756E61207461726A6574612E2E2EB4
:1022D000002D2D2D2D2D2D2D2D2D2D2D2D2D2D2D5B
:1022E0002D2D2D2D2D2D2D2D2D2D2D2D2D2D2D2D1E
:1022F0002D2D2D2D2D2D2D2D005461726A657461AB
:102300002064657465637461646121005549443AD1
:102310002000E28692205461726A657461207661C1
:10232000636961206F207072696D657261206C65F0
:10233000637475726100E28692204573637269620C
:1023400069656E646F206E756D65726F3A20004529
:1023500072726F7220646520617574656E74696352
:102360006163696F6E3A2000E29C93204E756D6543
:10237000726F206573637269746F20636F72726528
:102380006374616D656E74652100E29C93205665EF
:1023900072696669636163696F6E20657869746FDD
:1023A00073613A2000E29C97204572726F7220613F
:1023B0006C20657363726962697220656E206C615E
:1023C000207461726A65746100E28692204C6579BE
:1023D000656E646F206E756D65726F20616C6D61E6
:1023E00063656E61646F2E2E2E00E29C93204E7505
:1023F0006D65726F20656E206C61207461726A6514
:1024000074613A20004572726F7220616C206573AE
:0A2410006372696269723A200000ED
:00000001FF
