:020000040000FA
:100000000C94A1010C94C2010C94C2010C94C20185
:100010000C94C2010C94C2010C94C2010C94C20154
:100020000C94C2010C94C2010C94C2010C94A90559
:100030000C94C2010C94C2010C94C2010C94C20134
:100040000C94C2010C94C2010C94C2010C94C20124
:100050000C94C2010C94C2010C94C2010C944D0585
:100060000C9497050C94C2010C94C2010C94C2012B
:100070000C94C2010C94C2010C94C2010C94C201F4
:100080000C94C2010C94C2010C94C2010C94C201E4
:100090000C94C2010C94C2010C94C2010C94C201D4
:1000A0000C94C2010C94C2010C94C2010C94C201C4
:1000B0000C94C2010C94C2010C94C2010C94C201B4
:1000C0000C94C2010C94C2010C94C2010C94C201A4
:1000D0000C94C2010C94C2010C94C2010C94C20194
:1000E0000C94C2010C94EC010C9407020C941502C0
:1000F0000C94E2010C9401020C940F020C9419026E
:100100000C94F0010C94E8010C9423020C94270247
:100110000C940B020C941D020C94F7010C94FD013D
:100120000C9422020C94F40100407A10F35A00A0BF
:10013000724E18090010A5D4E80000E876481700B0
:1001400000E40B54020000CA9A3B000000E1F505F0
:10015000000080969800000040420F000000A0863A
:1001600001000000102700000000E803000000006C
:100170006400000000000A00000000000100000010
:1001800000002C76D888DC674F0823DFC1DFAE592A
:10019000E1B1B796E5E3E453C63AE651997696E8BD
:1001A000E6C28426EB898C9B62ED407C6FFCEFBC41
:1001B0009C9F40F2BAA56FA5F490055A2AF75C936C
:1001C0006B6CF9676DC11BFCE0E40D47FEF520E6A2
:1001D000B500D0ED902E0300943577050080841E85
:1001E000080000204E0A000000C80C333333330FE0
:1001F000986E12831141EF8D2114893BE65516CF7D
:10020000FEE6DB18D1844B381BF77C1D901DA4BB88
:10021000E424203284725E228100C9F124ECA1E53D
:100220003D2700002100240027002A002D00300077
:10023000330001010000040107010A01000022004F
:10024000250028002B002E003100340002010000A0
:10025000050108010B0100002000230026002900F1
:100260002C002F00320000010000030106010901EB
:1002700005050505070508080808020202020A0A22
:100280000808040404040101010101010101030340
:10029000030303030303040707070C0C0C0C0C0CEB
:1002A0000C0C0202020206060606060606060B0BE8
:1002B0000B0B0B0B0B0B0102102020080810204029
:1002C000102040800201020108040201010204081A
:1002D00010204080804020100804020180040201A8
:1002E00080402010080402010804020101020408F1
:1002F00010204080010204081020408000000A0BFA
:1003000002090C0D0E0807030401000000000000A4
:1003100000000000000000000000000000000000DD
:10032000000000000000000012111000000000009A
:1003300000000000000000000000000000000000BD
:10034000000011241FBECFEFD1E2DEBFCDBF00E021
:100350000CBF12E0A0E0B2E0E2ECF6E100E00BBF7F
:1003600002C007900D92A633B107D9F722E0A6E3A9
:10037000B2E001C01D92AD35B207E1F70E94B805A9
:100380000C945F0B0C9400008150823108F05AC02D
:10039000E82FF0E08827E053FE4F8F4F0C94220B9C
:1003A000F001F401E201E801EC012202F701FD0194
:1003B000010207020B020F021502190222021D029E
:1003C00023022702809180008F7780938000089518
:1003D000809180008F7DF9CF80918000877FF5CF5D
:1003E00084B58F7784BD089584B58F7DFBCF8091D0
:1003F000B0008F778093B00008958091B0008F7D1A
:10040000F9CF809190008F7780939000089580912C
:1004100090008F7DF9CF80919000877FF5CF8091FC
:10042000A0008F778093A00008958091A0008F7D19
:10043000F9CF8091A000877FF5CF809120018F7741
:10044000809320010895809120018F7DF9CF8091C4
:100450002001877FF5CFCF93DF93282F30E0F9017C
:10046000E450FD4F8491F901EA54FD4FD491F90114
:10047000E059FD4FC491CC23A1F081110E94C40129
:10048000EC2FF0E0EE0FFF1FEA5AFD4FA591B4915B
:10049000EC91ED2381E090E009F480E0DF91CF91D1
:1004A000089580E090E0FACF1F93CF93DF93282F39
:1004B00030E0F901E450FD4F8491F901EA54FD4F19
:1004C000D491F901E059FD4FC491CC23A9F0162F26
:1004D00081110E94C401EC2FF0E0EE0FFF1FE45CDD
:1004E000FD4FA591B4918FB7F894EC91111108C00C
:1004F000D095DE23DC938FBFDF91CF911F910895BC
:10050000DE2BF8CFCF93DF9390E0FC01EA54FD4F50
:10051000249180599D4FFC0184918823D1F090E073
:10052000880F991FFC01EE5DFD4FA591B491FC0170
:10053000E45CFD4FC591D491623071F49FB7F8949B
:100540003C91822F809583238C93E8812E2B2883E6
:100550009FBFDF91CF9108958FB7F894EC912E2B28
:100560002C938FBFF6CF3FB7F894809159029091AA
:100570005A02A0915B02B0915C0226B5A89B05C00F
:100580002F3F19F00196A11DB11D3FBFBA2FA92F12
:10059000982F8827BC01CD01620F711D811D911D0F
:1005A00042E0660F771F881F991F4A95D1F708957B
:1005B0008F929F92AF92BF92CF92DF92EF92FF9273
:1005C0004B015C010E94B3026B017C010E94B302EB
:1005D0006C197D098E099F09683E7340810591055C
:1005E000A8F321E0821A9108A108B10888EEC80E8C
:1005F00083E0D81EE11CF11C81149104A104B10414
:1006000029F7FF90EF90DF90CF90BF90AF909F9031
:100610008F900895E9E3F2E081E1DF011D928A9570
:10062000E9F7109238021092370208951F93CF9382
:10063000DF93182F682F617089E00E945402C12F48
:10064000D0E0BE0175956795617088E00E94540204
:10065000BE017595679575956795617087E00E94F5
:100660005402BE0123E0759567952A95E1F7617004
:1006700086E00E945402BE0134E0759567953A9574
:10068000E1F7617085E00E945402BE0145E0759576
:1006900067954A95E1F7617084E00E94540256E044
:1006A000D595C7955A95E1F76C2F617083E00E944C
:1006B0005402612F661F6627661F82E00E94540263
:1006C00061E08BE00E94540260E08BE00E945402E3
:1006D00083EC90E00197F1F7DF91CF911F9108959E
:1006E000EF92FF920F931F93CF938C0183ECE82E30
:1006F000F12CF801C1918F01CC2359F061E08CE01D
:100700000E9454028C2F0E941603C7010197F1F733
:10071000F0CFCF911F910F91FF90EF900895CF935D
:10072000C82F60E08CE00E9454028C2FCF910C9473
:1007300016034F925F926F927F928F929F92AF9229
:10074000BF92EF92FF920F931F93CF93DF93CDB79A
:10075000DEB7A3970FB6F894DEBF0FBECDBFF82E5D
:1007600023E482131CC081E00E948F030E940A03CD
:1007700010924E02A3960FB6F894DEBF0FBECDBF07
:10078000DF91CF911F910F91FF90EF90BF90AF90AD
:100790009F908F907F906F905F904F900895809181
:1007A0004E02882309F473C08F2D8D7F8D3229F07E
:1007B00086ED8F0D823008F06AC00E940A036091B6
:1007C0004A0270914B0280914C0290914D028E0131
:1007D0000F5F1F4F24E040E00E942A07B80189E321
:1007E00092E00E94580B89E392E0FC010190002006
:1007F000E9F7CF018A5392409093380280933702F1
:10080000E9E3F2E09F012953324041914032D1F3B4
:1008100021153105A1F0D901A75CBD4FE9E3F2E054
:10082000821B930B9F0129533240821793071CF0C0
:100830002D912193F7CF90933802809337028091C6
:10084000370290913802803191050CF091CF9C01D4
:100850002F5F3F4F3093380220933702875C9D4FC4
:10086000FC01F082275C3D4FF901108281E00E947B
:100870008F0362E070E080E090E00E94D80280E8A0
:100880000E948F0389E392E00E94700371CF8091F0
:10089000360281116FCF8091370290913802FDE3CB
:1008A000FF12E4C0875C9D4FFC01108281E08093C1
:1008B000360221E1CE014396FC01322F11923A9586
:1008C000E9F7AE014F5F5F4F7A01FA0111922A9565
:1008D000E9F720913902B0E0A0E02D3219F42B8B1A
:1008E000A1E0B0E09D01275C3D4FA80FB91FBD01FD
:1008F000681B790BF90111919F01112341F040ED23
:10090000410F4A3010F01E3211F41D93F0CFDC017C
:10091000A60FB71F1C92FB013196212F2D7F2D3280
:1009200021F026ED210F2230B0F4E75CFD4FD70116
:10093000AD014E195F092191222331F030ED320FC4
:100940003A3090F02E3281F0F701E40FF51F10825B
:100950002B8921110BC080EF882E83E2982E84E72B
:10096000A82E89ECB82E3DC02D93E2CF29812223F9
:1009700091F30E9448074B015C01C7010E944807A0
:100980002B013C011B3219F13CF41A3221F7A5016D
:1009900094010E94FE0A21C01D3209F459C01F3281
:1009A000D1F64114510461047104A9F2C501B401E6
:1009B0000E944E0A4B015C01C301B2010E944E0A23
:1009C0009B01AC01C501B4010E94DA0908C0C50150
:1009D000B401640D751D861D971D0E944E0A4B01C2
:1009E0005C0180924A0290924B02A0924C02B0921B
:1009F0004D0281E00E948F0362E070E080E090E0B1
:100A00000E94D80280E80E948F0320EF33E244E77F
:100A100059ECC501B4010E94D509882301F1870171
:100A200024E040E0C501B4010E942A07C701FFEF9E
:100A3000EF1AFF0AFC0120812032C1F30E947003EB
:100A400081E080934E020E940A031092360292CEF9
:100A5000C501B4016419750986099709BECF8EE2F4
:100A600092E00E94700310924E02EDCF803191050A
:100A70000CF080CE9C012F5F3F4F309338022093C3
:100A80003702875C9D4FFC01F08261E08CE00E94A0
:100A900054028F2D0E9416036DCE1F920F920FB637
:100AA0000F9211242F933F938F939F93AF93BF93F4
:100AB0008091550290915602A0915702B091580230
:100AC0003091540223E0230F2D3758F50196A11DD4
:100AD000B11D209354028093550290935602A09327
:100AE0005702B09358028091590290915A02A091F6
:100AF0005B02B0915C020196A11DB11D8093590269
:100B000090935A02A0935B02B0935C02BF91AF91A5
:100B10009F918F913F912F910F900FBE0F901F903B
:100B2000189526E8230F0296A11DB11DD2CF1F9262
:100B30000F920FB60F9211248F938EB580935002AF
:100B400081E0809351028F910F900FBE0F901F9004
:100B500018951F920F920FB60F9211248F9381E078
:100B600080934F028F910F900FBE0F901F9018959A
:100B7000789484B5826084BD84B5816084BD85B578
:100B8000826085BD85B5816085BD80916E00816084
:100B900080936E001092810080918100826080932A
:100BA000810080918100816080938100809180002C
:100BB0008160809380008091B10084608093B10057
:100BC0008091B00081608093B0008091910082603C
:100BD0008093910080919100816080939100809139
:100BE00090008160809390008091A100826080934A
:100BF000A1008091A10081608093A1008091A0005C
:100C000081608093A0008091210182608093210106
:100C10008091210181608093210180912001816078
:100C20008093200180917A00846080937A00809183
:100C30007A00826080937A0080917A00816080934C
:100C40007A0080917A00806880937A001092C100C7
:100C50005EE2E52E52E0F52ECAE2D2E0199161E0A3
:100C6000812F0E94820261E0812F0E945402EC16C3
:100C7000FD06A1F762E082E20E94820262E083E266
:100C80000E94820262E084E20E94820262E085E2C7
:100C90000E94820280916800846080936800809145
:100CA0006D00806F80936D007894C2E0D2E08881FF
:100CB000229661E00E94820282E0C631D807B9F72D
:100CC00064E170E080E090E00E94D80288E30E9436
:100CD0008F03C3ECD0E0CE010197F1F786E00E94CC
:100CE0008F03CE010197F1F78FE00E948F03CE01B1
:100CF0000197F1F784E10E948F032197F1F781E0DA
:100D00000E948F0362E070E080E090E00E94D802D1
:100D10000E940A0361E082E30E9482028CB5806433
:100D20008CBD8CB580688CBD34E0E32EF12C40E0A6
:100D3000C42E40E0D42E61E082E40E94540261E0BF
:100D400083E40E94540261E084E40E94540261E062
:100D500085E40E945402C0915202D0915302FE01D8
:100D6000E65DFD4F60E080810E945402CE01019655
:100D7000B7010E940E0B9093530280935202809110
:100D80005102882331F0809150020E949903109201
:100D9000510280914F02882309F455C026E2A22E09
:100DA00022E0B22E0FEF1FEFD0E0C0E0F5018191FD
:100DB0005F010E942B02892B09F48E012196C43019
:100DC000D105A1F79AE2892E92E0992ECFEFDFEFBD
:100DD000B12CA12CF40181914F010E942B02892B8F
:100DE00009F4E501FFEFAF1ABF0A84E0A816B104C9
:100DF00089F7CF3FDC0739F10F3F100721F1CC0F06
:100E0000DD1FCC0FDD1FC00FD11FD0930102C09397
:100E10000002E0910002F0910102EA5EFD4F808144
:100E20000E94990310924F02F801EA5DFD4FC081C4
:100E30008C2F0E942B02892BD9F366E970E080E0A9
:100E400090E00E94D802C114D10409F474CF0E942A
:100E5000000071CFEF920F931F93CF93DF93E801C0
:100E600034E047FD34E1042E000C550B57FF03C05E
:100E7000519541955109E32E022F242FAE010E9476
:100E80008407CE01DF91CF911F910F91EF900895CC
:100E90001F93FC0199278827BC01E8941191103217
:100EA000E9F3193010F01E30C8F31B3251F01D3237
:100EB00049F4689406C00E946F07610F711D811D7F
:100EC000911D119110531A30B0F33EF49095809516
:100ED000709561957F4F8F4F9F4F1F910895592FA8
:100EE000482F372F262F660F771F881F991F660FF1
:100EF000771F881F991F620F731F841F951F660F2E
:100F0000771F881F991F08958F929F92AF92BF926B
:100F1000CF92DF92EF92FF920F931F93CF93DF93C5
:100F200000D000D000D0CDB7DEB76A01F22EB02ECF
:100F3000102FFBE3AF2EA01608F41BE31F5F012F59
:100F400027E0AE014F5F5F4F0E94FD08BC01898121
:100F5000982F9970913009F44EC09BE2E1FC04C0D7
:100F60009E2D9170E0FC49C05E2D5071E82FE87015
:100F700083FF55C084E0911101C083E0EF2DE81B91
:100F80008F1508F0E0E0D6018E2F20E25523C9F13D
:100F9000992329F0D6019C93C60101966C01960114
:100FA0002D5F3F4FE2FE33C08EE4D6018C9391E477
:100FB00011969C93119712968C93D9018E2F90E2E3
:100FC00081112AC0E20FF32FF11D10828EEF9FEFE7
:100FD00029960FB6F894DEBF0FBECDBFDF91CF913B
:100FE0001F910F91FF90EF90DF90CF90BF90AF9047
:100FF0009F908F9008959DE2B7CF90E2B5CF2D934B
:1010000081508111FCCFCE0ED11CE0E0C1CF8EE625
:10101000D6018C9391E6CCCF9D938150D1CF482FB0
:10102000447082FF3DC084E0911101C083E08F15C0
:1010300010F4EF2DE81BD6018E2F20E2552309F185
:10104000992329F0D6019C93C60101966C01960163
:101050002D5F3F4FE2FE1BC089E4D6018C938EE4E6
:1010600011968C93119786E412968C93D9018E2F4A
:1010700090E2882309F4A6CF9D938150FACF2D9357
:1010800081508111FCCFCE0ED11CE0E0D9CF89E692
:10109000D6018C938EE611968C93119786E6E4CF59
:1010A0009B0177FF02C030E020E0A1E0B0E09111A9
:1010B00002C0B0E0A0E0F9013196AE0FBF1F8B2C4B
:1010C000912CBB2009F461C05401EFEFAE1ABE0AA7
:1010D000AA0DBB1DFA161B0619F014F04F2D4A1B62
:1010E000511188C0E3FC59C07601A42FB0E2A111D0
:1010F0004FC0C40ED11C992309F45BC040E0D60157
:101100001196F60190836D01552309F448C0012F13
:10111000060F9A81582F507184FF03C0913309F450
:10112000015010160CF047C0093008F008E0EEE25C
:10113000FE2E5B01A01AB10885019194819491085B
:101140002F3F320729F4D601FC92F60131966F0148
:101150006217730794F1021713077CF5DB01A21BDA
:10116000B30BAA24A394B12CAC0EBD1EAA0DBB1DBB
:1011700011968C9121503109D60111962815390507
:10118000F4F0F60180836D01DBCFB12CA12CA0CF50
:10119000F701B1937F01A150AACF9111B0CFD60131
:1011A000942F50E302C05D9391509111FCCFC40E77
:1011B000D11C40E0ACCF01E0BACF80E3DBCF6217B7
:1011C000730731F4963388F4953311F4552369F09D
:1011D000F6018083FD01842F90E2811108C0A40FE5
:1011E000B11D1C9290E080E0F3CE81E3F1CF9193AA
:1011F0008150F3CF911183CF8ACF283008F027E0B8
:101200003327DA01990F311D87FD91600096610542
:10121000710539F432602E5F3D9330E32A95E1F792
:1012200008959F3F30F080387105610509F03C5FFB
:101230003C5F3D93913008F08068911DDF93CF9320
:101240001F930F93FF92EF92192F987F9695E92F96
:1012500096959695E90FFF27EE57FE4F992733276E
:10126000EE24FF24A701E70105900894079428F4D1
:10127000360FE71EF81E491F511D660F771F881F86
:10128000991F0694A1F70590079428F4E70EF81E1D
:10129000491F561FC11D770F881F991F661F06948F
:1012A000A1F70590079428F4F80E491F561FC71F91
:1012B000D11D880F991F661F771F0694A1F705900F
:1012C000079420F4490F561FC71FD81F990F661F98
:1012D000771F881F0694A9F784911095177041F025
:1012E000D695C79557954795F794E7941A95C1F702
:1012F000E8E2F1E06894159015913591659195912A
:1013000005907FE27395E118F10A430B560BC90B68
:10131000D009C0F7E10CF11E431F561FC91FD01D95
:101320007EF4703311F48A95E6CFE894015030F0E2
:10133000080F0AF40027021708F4202F2395022F24
:101340007A3328F079E37D932A95E9F710C07D93ED
:101350002A9589F60694979567953795179517946A
:10136000E118F10A430B560BC90BD00998F02395ED
:101370007E9173957A3308F070E37C932013B8F76D
:101380007E9170617D9330F0839571E37D9370E37E
:101390002A95E1F71124EF90FF900F911F91CF91C3
:1013A000DF91992787FD909508950E94890A08F496
:1013B00081E008950E94EE090C94C40A0E94BD0ABF
:1013C00058F00E94B60A40F029F45F3F29F00C94CF
:1013D000AD0A51110C94F80A0C94B30A0E94D50A74
:1013E00068F39923B1F3552391F3951B550BBB2754
:1013F000AA2762177307840738F09F5F5F4F220F99
:10140000331F441FAA1FA9F335D00E2E3AF0E0E88F
:1014100032D091505040E695001CCAF72BD0FE2FD9
:1014200029D0660F771F881FBB1F2617370748076D
:10143000AB07B0E809F0BB0B802DBF01FF27935825
:101440005F4F3AF09E3F510578F00C94AD0A0C9432
:10145000F80A5F3FE4F3983ED4F386957795679555
:10146000B795F7959F5FC9F7880F911D969587955A
:1014700097F90895E1E0660F771F881FBB1F621779
:1014800073078407BA0720F0621B730B840BBA0B37
:10149000EE1F88F7E0950895E89409C097FB3EF4A5
:1014A00090958095709561957F4F8F4F9F4F9923B1
:1014B000A9F0F92F96E9BB279395F695879577952F
:1014C0006795B795F111F8CFFAF4BB0F11F460FFEF
:1014D0001BC06F5F7F4F8F4F9F4F16C0882311F047
:1014E00096E911C0772321F09EE8872F762F05C05B
:1014F000662371F096E8862F70E060E02AF09A95F6
:10150000660F771F881FDAF7880F9695879597F9EA
:101510000895990F0008550FAA0BE0E8FEEF161684
:101520001706E807F907C0F012161306E407F507D7
:1015300098F0621B730B840B950B39F40A2661F04B
:10154000232B242B252B21F408950A2609F4A140EE
:10155000A6958FEF811D811D089597F99F6780E8FB
:1015600070E060E008959FEF80EC089500240A94F5
:101570001616170618060906089500240A9412166E
:101580001306140605060895092E0394000C11F4A1
:10159000882352F0BB0F40F4BF2B11F460FF04C04E
:1015A0006F5F7F4F8F4F9F4F089557FD9058440FA7
:1015B000551F59F05F3F71F04795880F97FB991FB2
:1015C00061F09F3F79F0879508951216130614066F
:1015D000551FF2CF4695F1DF08C0161617061806FC
:1015E000991FF1CF86957105610508940895E894D7
:1015F000BB2766277727CB0197F90895DB018F93E7
:101600009F930E942A0BBF91AF91A29F800D911DC5
:10161000A39F900DB29F900D1124089597FB072E64
:1016200016F4009407D077FD09D00E94350B07FC13
:1016300005D03EF4909581959F4F089570956195E2
:101640007F4F0895EE0FFF1F881F8BBF0790F69105
:10165000E02D19940E94490BA59F900DB49F900D09
:10166000A49F800D911D11240895AA1BBB1B51E15D
:1016700007C0AA1FBB1FA617B70710F0A61BB70B02
:10168000881F991F5A95A9F780959095BC01CD01A7
:101690000895A29FB001B39FC001A39F700D811D4B
:1016A0001124911DB29F700D811D1124911D08956B
:1016B000FB01DC0101900D920020E1F70895F89400
:1016C000FFCFFFFF0C000B00090008000700060019
:1016D00005000400030002003738392F3435362A5C
:1016E0003132332D43303D2B2223242542434445C0
:0816F0004572726F72210000C7
:020000040003F7
:10E000000D9489F10D94B2F10D94B2F10D94B2F129
:10E010000D94B2F10D94B2F10D94B2F10D94B2F1F0
:10E020000D94B2F10D94B2F10D94B2F10D94B2F1E0
:10E030000D94B2F10D94B2F10D94B2F10D94B2F1D0
:10E040000D94B2F10D94B2F10D94B2F10D94B2F1C0
:10E050000D94B2F10D94B2F10D94B2F10D94B2F1B0
:10E060000D94B2F10D94B2F10D94B2F10D94B2F1A0
:10E070000D94B2F10D94B2F10D94B2F10D94B2F190
:10E080000D94B2F10D94B2F10D94B2F10D94B2F180
:10E090000D94B2F10D94B2F10D94B2F10D94B2F170
:10E0A0000D94B2F10D94B2F10D94B2F10D94B2F160
:10E0B0000D94B2F10D94B2F10D94B2F10D94B2F150
:10E0C0000D94B2F10D94B2F10D94B2F10D94B2F140
:10E0D0000D94B2F10D94B2F10D94B2F10D94B2F130
:10E0E0000D94B2F141546D656761323536300041AF
:10E0F000726475696E6F206578706C6F72657220DE
:10E1000073746B3530305632206279204D4C530099
:10E11000426F6F746C6F616465723E004875683F52
:10E1200000436F6D70696C6564206F6E203D200048
:10E130004350552054797065202020203D20005FF9
:10E140005F4156525F415243485F5F3D2000415658
:10E1500052204C696243205665723D20004743437C
:10E160002056657273696F6E203D20004350552024
:10E1700049442020202020203D20004C6F7720663D
:10E18000757365202020203D20004869676820665F
:10E190007573652020203D200045787420667573D6
:10E1A00065202020203D20004C6F636B2066757336
:10E1B000652020203D20004D617220203720323024
:10E1C000313300312E362E3800342E332E350056A2
:10E1D00023202020414444522020206F7020636F70
:10E1E00064652020202020696E73747275637469E1
:10E1F0006F6E2061646472202020496E74657272B3
:10E20000757074006E6F20766563746F7200726A49
:10E210006D702020006A6D70200057686174207056
:10E220006F72743A00506F7274206E6F7420737541
:10E2300070706F72746564004D7573742062652030
:10E2400061206C6574746572002000577269747483
:10E25000696E672045450052656164696E672045B7
:10E26000450045452065727220636E743D00504F35
:10E27000525400303D5A65726F2061646472003FF1
:10E280003D43505520737461747300403D454550C3
:10E29000524F4D207465737400423D426C696E6B41
:10E2A000204C454400453D44756D70204545505215
:10E2B0004F4D00463D44756D7020464C415348001B
:10E2C000483D48656C70004C3D4C69737420492F83
:10E2D0004F20506F72747300513D51756974005234
:10E2E0003D44756D702052414D00563D73686F7707
:10E2F00020696E7465727275707420566563746FF0
:10E30000727300593D506F727420626C696E6B00BD
:10E310002A0011241FBECFEFD1E2DEBFCDBF01E046
:10E320000CBF12E0A0E0B2E0EEE1FDEF03E00BBFB6
:10E3300002C007900D92A030B107D9F712E0A0E01B
:10E34000B2E001C01D92AE30B107E1F70F9460F367
:10E350000D948DFE01E20EBF0FEF0DBF11241FBE05
:10E360000D9460F30D9400F020E030E040ED57E0B4
:10E3700005C0FA013197F1F72F5F3F4F2817390792
:10E38000C0F308959C01260F311DC901A0E0B0E043
:10E390002F5F3F4FABBFFC018791882361F08093D3
:10E3A000C6008091C00086FFFCCF8091C0008064D1
:10E3B0008093C000EACF08958DE08093C6008091DD
:10E3C000C00086FFFCCF8091C00080648093C000B5
:10E3D0008AE08093C6008091C00086FFFCCF8091C8
:10E3E000C00080648093C00008950F94C2F10F9420
:10E3F000DCF10895FC019081992359F09093C600B7
:10E400008091C00086FFFCCF8091C0008064809323
:10E41000C0003196992379F70895282F982F929567
:10E420009F70892F805D8A3308F0895F8093C600D2
:10E430008091C00086FFFCCF8091C00080648093F3
:10E44000C000822F8F70982F905D9A3308F0995FEB
:10E450009093C6008091C00086FFFCCF8091C000E1
:10E4600080648093C00008959C01FB01853691056E
:10E470001CF46330710594F0C90164E670E00F94F8
:10E480002EFE605D7F4F6093C6008091C00086FFC6
:10E49000FCCF8091C00080648093C0002B30310598
:10E4A00014F43297B4F0C90164E670E00F942EFEC4
:10E4B0006AE070E00F942EFE605D7F4F6093C600AF
:10E4C0008091C00086FFFCCF8091C0008064809363
:10E4D000C000C9016AE070E00F942EFEC0968093E0
:10E4E000C6008091C00086FFFCCF8091C000806490
:10E4F0008093C00008951F93182F8EE692EE60E07F
:10E500000F94C2F11093C6008091C00086FFFCCF2B
:10E510008091C00080648093C0000F94DCF11F9153
:10E5200008952F923F924F925F926F927F928F92B7
:10E530009F92AF92BF92CF92DF92EF92FF920F9392
:10E540001F93DF93CF93CDB7DEB762970FB6F894E2
:10E55000DEBF0FBECDBF382E622ECA01DB015C01CB
:10E560006D01772420E2222E2E010894411C511CBB
:10E570008BC081E0A81680E0B80681E0C80680E084
:10E58000D80628F0C601AA27BB270F940DF2BB2797
:10E59000AD2D9C2D8B2D0F940DF28A2D0F940DF225
:10E5A0002092C6008091C00086FFFCCF8091C00001
:10E5B00080648093C0009DE29093C6008091C0006B
:10E5C00086FFFCCF8091C00080648093C0002092C1
:10E5D000C6008091C00086FFFCCF8091C00080649F
:10E5E0008093C00019828601750188249924A1E0D6
:10E5F0003A1651F03A1620F0B2E03B1661F409C029
:10E600000BBFF701779007C0C7010F9477FE782EF4
:10E6100002C0F7017080872D0F940DF22092C60082
:10E620008091C00086FFFCCF8091C0008064809301
:10E63000C000872D8052F401EF70F0708F3520F408
:10E64000E40DF51D708204C0E40DF51D8EE280839B
:10E650000894E11CF11C011D111D0894811C911CE2
:10E6600090E18916910409F0C2CF80E190E0A0E02A
:10E67000B0E0A80EB91ECA1EDB1E198AC2010F9493
:10E68000FAF10F94DCF16A94662009F072CF629679
:10E690000FB6F894DEBF0FBECDBFCF91DF911F91B3
:10E6A0000F91FF90EF90DF90CF90BF90AF909F9031
:10E6B0008F907F906F905F904F903F902F90089534
:10E6C0002F923F924F925F926F927F928F929F9282
:10E6D000AF92BF92CF92DF92EF92FF920F931F9370
:10E6E000DF93CF93CDB7DEB7CD53D1400FB6F894BB
:10E6F000DEBF0FBECDBF01E20EBF0FEF0DBF94B75F
:10E70000F894A89514BE80916000886180936000A1
:10E7100010926000789493FF05C0E0910002F091A0
:10E7200001021995279A2F9A8091C00082608093E8
:10E73000C00080E18093C40088E18093C1000000A4
:10E74000EE24FF24870144E0A42EB12CCC24DD2448
:10E7500024C0C5010197F1F70894E11CF11C011DCB
:10E76000111D21E2E2162EE4F20620E0020720E06D
:10E77000120718F031E0C32ED12CC801B70127ECE5
:10E780003BE140E050E00F9441FE611571058105C9
:10E79000910519F485B1805885B98091C00087FD35
:10E7A00003C0C114D104A9F2A6014F5F5F4FC25E3E
:10E7B000DE4F59834883CE51D140C25EDE4F8881FF
:10E7C0009981CE51D140019711F00D9410FEC05D9A
:10E7D000DE4F19821882C053D14060E0C15DDE4F28
:10E7E0001882CF52D14088249924C35DDE4F19820C
:10E7F0001882CD52D140C05EDE4F188219821A8233
:10E800001B82C052D140CE5CDE4F188219821A8220
:10E810001B82C253D140EE24FF2487010BBFF701B6
:10E8200007911691C45CDE4F19830883CC53D14005
:10E830000D940BFEC25EDE4F28813981CE51D1404E
:10E840002130310509F52091C600C25EDE4F1982E4
:10E850001882CE51D14022C02F5F3F4F4F4F5F4FA4
:10E86000213082E138078AE7480780E0580780F0C6
:10E87000C45CDE4FE881F981CC53D140EF5FFF4F9C
:10E8800019F0EE27FF27099420E030E040E050E047
:10E890008091C00087FFE0CF2091C600C35DDE4FAE
:10E8A00048815981CD52D1404F5F5F4FC35DDE4FEC
:10E8B00059834883CD52D140213209F063C64A3092
:10E8C000510508F05FC60894811C911C53E0851621
:10E8D000910409F059C600E010E018C081E280936D
:10E8E000C6008091C00086FFFCCF8091C00080648C
:10E8F0008093C0002F5F3F4F2931310579F70F9486
:10E90000DCF10F5F1F4F0530110519F020E030E0FA
:10E91000E5CF10920A0210920B0210920C02109294
:10E920000D02109206021092070210920802109235
:10E930000902109202021092030210920402109235
:10E9400005028FEE90EE60E00F94F5F180E191EE1C
:10E9500060E00F94C2F18091C00087FFFCCF9091DE
:10E96000C600903608F09F759032B8F09093C600BC
:10E970008091C00086FFFCCF8091C00080648093AE
:10E98000C000A0E2A093C6008091C00086FFFCCF2B
:10E990008091C00080648093C000983409F4D7C18E
:10E9A0009934B8F4923409F459C1933458F490333B
:10E9B00019F1903308F4E3C59F33A1F1903409F0C5
:10E9C000DEC5BDC0953409F470C1963409F0D7C5D1
:10E9D00098C1923509F42BC2933538F49C3409F46C
:10E9E000F5C1913509F0CBC518C2963509F445C279
:10E9F000993509F0C4C567C483E792EE62E00F94CD
:10EA0000F5F110920602109207021092080210927D
:10EA1000090210920A0210920B0210920C0210923C
:10EA20000D0213C18FE792EE62E00F94F5F18FEEC5
:10EA300090EE60E00F94F5F181E291EE60E00F94CA
:10EA4000C2F187EB91EE60E00F94F5F180E391EE77
:10EA500060E00F94C2F184EE90EE60E00F94F5F167
:10EA60008FE391EE60E00F94C2F186E090E061E008
:10EA700070E00F9434F20F94DCF18DE591EE60E0DC
:10EA80000F94C2F189EC91EE60E00F94F5F18EE401
:10EA900091EE60E00F94C2F183EC91EE60E00F9490
:10EAA000F5F18CE691EE60E00F94C2F18EE10F94E7
:10EAB0000DF288E90F940DF281E00F940DF20F949E
:10EAC000DCF18BE791EE60E00F94C2F119E0E0E039
:10EAD000F0E010935700E4918E2F0F940DF20F94F5
:10EAE000DCF18AE891EE60E00F94C2F1E3E0F0E03F
:10EAF00010935700E4918E2F0F940DF20F94DCF1D8
:10EB000089E991EE60E00F94C2F1E2E0F0E0109349
:10EB10005700E4918E2F0F940DF20F94DCF188EAE8
:10EB200091EE60E00F94C2F1E1E0F0E01093570045
:10EB30001491812F0F940DF20F94DCF107CF8BE825
:10EB400092EE62E00F94F5F18BE492EE60E00F94A8
:10EB5000F5F10F94DCF100E010E019C0C8016F2D51
:10EB60000F947FFEFF2031F489E492EE60E00F9471
:10EB7000C2F10BC0F092C6008091C00086FFFCCFAE
:10EB80008091C00080648093C0000F5F1F4FC80158
:10EB900081519F41A0E0B0E0ABBFFC01F790BAE229
:10EBA000FB1621F0E2E000301E07C1F60F94DCF105
:10EBB0000F94DCF187E592EE60E00F94F5F10F948D
:10EBC000DCF1CC24DD2400E010E01EC0C8010F946D
:10EBD00077FEF82E882331F489E492EE60E00F94FA
:10EBE000C2F10BC08093C6008091C00086FFFCCFAD
:10EBF0008091C00080648093C000FE1419F00894D6
:10EC0000C11CD11C0F5F1F4FC80181519F41A0E063
:10EC1000B0E0ABBFFC01E790FAE2EF1621F022E092
:10EC20000030120799F60F94DCF10F94DCF182E6C4
:10EC300092EE60E00F94C2F1C60161E070E00F94C3
:10EC400034F20F94DCF10F94DCF110920202109276
:10EC50000302109204021092050278CE89E992EE26
:10EC600062E00F94F5F1279A2F9A16C02F9880E052
:10EC700090E0E0EDF7E03197F1F7019684369105E9
:10EC8000C1F72F9A80E090E0E0EDF7E03197F1F7DF
:10EC9000019684369105C1F78091C00087FFE6CFC9
:10ECA0008091C00087FFFCCF64C485EA92EE62E0E9
:10ECB0000F94F5F140910202509103026091040219
:10ECC0007091050281E020E10F9491F2809102029F
:10ECD00090910302A0910402B091050280509F4FD1
:10ECE000AF4FBF4F8093020290930302A0930402A0
:10ECF000B093050280509041A040B04008F426CE69
:10ED0000A4CF83EB92EE62E00F94F5F140910602FE
:10ED100050910702609108027091090280E020E1A1
:10ED20000F9491F28091060290910702A09108023F
:10ED3000B091090280509F4FAF4FBF4F80930602A2
:10ED400090930702A0930802B0930902FFCD80ECD4
:10ED500092EE62E00F94F5F183E792EE60E00F949B
:10ED6000F5F18FE792EE60E00F94F5F18BE892EE0B
:10ED700060E00F94F5F189E992EE60E00F94F5F10F
:10ED800085EA92EE60E00F94F5F183EB92EE60E09D
:10ED90000F94F5F180EC92EE60E00F94F5F187ECC2
:10EDA00092EE60E00F94F5F188ED92EE60E00F9442
:10EDB000F5F18FED92EE60E00F94F5F18AEE92EEB0
:10EDC00060E00F94F5F183E093EEBDCD87EC92EE19
:10EDD00062E00F94F5F181E40F947BF282E40F94EA
:10EDE0007BF283E40F947BF284E40F947BF285E45E
:10EDF0000F947BF286E40F947BF287E40F947BF20E
:10EE000088E40F947BF28AE40F947BF28BE40F94F6
:10EE10007BF28CE40F947BF299CD88ED92EE62E068
:10EE20000F94F5F1772473948824992409C48FED05
:10EE300092EE62E00F94F5F140910A0250910B02BC
:10EE400060910C0270910D0282E020E10F9491F22A
:10EE500080910A0290910B02A0910C02B0910D02D8
:10EE600080509F4FAF4FBF4F80930A0290930B0289
:10EE7000A0930C02B0930D0269CD8AEE92EE62E08F
:10EE80000F94F5F184EE90EE60E00F94F5F18FECC5
:10EE900091EE60E00F94F5F1662477244301CC5D98
:10EEA000DE4F19821882C452D140D401C301B695F5
:10EEB000A79597958795CA5DDE4F88839983AA8326
:10EEC000BB83C652D140CC5DDE4FA881B981C4520C
:10EED000D1401196CC5DDE4FB983A883C452D14096
:10EEE000CD0162E070E00F9434F2B0E2B093C6005E
:10EEF0008091C00086FFFCCF8091C0008064809329
:10EF0000C000EDE2E093C6008091C00086FFFCCF18
:10EF10008091C00080648093C000F0E2F093C6004E
:10EF20008091C00086FFFCCF8091C00080648093F8
:10EF3000C000CA5DDE4FE880F9800A811B81C6529D
:10EF4000D140BB27A12F902F8F2D0F940DF2CA5DBA
:10EF5000DE4F8881C652D1400F940DF2B0E2FB2EF5
:10EF6000F092C6008091C00086FFFCCF8091C00067
:10EF700080648093C0000DE30093C6008091C000C0
:10EF800086FFFCCF8091C00080648093C00010E2B7
:10EF90001093C6008091C00086FFFCCF8091C00016
:10EFA00080648093C0008BBEF3012791C65DDE4F65
:10EFB0002883CA52D140A22EBB24CC24DD2408943D
:10EFC000611C711C811C911C8BBEF3018791282E42
:10EFD0003324442455240894611C711C811C911C09
:10EFE0008BBEF3013791C55DDE4F3883CB52D140E4
:10EFF0000894611C711C811C911C8BBEF30147910C
:10F00000C45DDE4F4883CC52D140ADEFEA2EAFEF66
:10F01000FA2EAFEF0A2FAFEF1A2F6E0C7F1C801E57
:10F02000911E142D032DF22CEE24EA0CFB1C0C1D5A
:10F030001D1D0F940DF220E22093C6008091C000A8
:10F0400086FFFCCF8091C00080648093C000C65DC5
:10F05000DE4F8881CA52D1400F940DF230E23093D6
:10F06000C6008091C00086FFFCCF8091C000806404
:10F070008093C000C45DDE4F8881CC52D1400F9494
:10F080000DF240E24093C6008091C00086FFFCCFA5
:10F090008091C00080648093C000C55DDE4F888190
:10F0A000CB52D1400F940DF250E25093C6008091A4
:10F0B000C00086FFFCCF8091C00080648093C000B8
:10F0C0008FEFE8168FEFF80680E0080780E018075A
:10F0D00031F484E092EE60E00F94C2F1DFC0D80119
:10F0E000C7018070907CA070B0708050904CA040A0
:10F0F000B040D1F52FEF3FE340E050E0E222F322B1
:10F1000004231523CA5DDE4FA880B980CA80DB8046
:10F11000C652D140AE0CBF1CC01ED11EAA0CBB1CD7
:10F12000CC1CDD1C8EE092EE60E00F94C2F1BB2798
:10F13000A12F902F8F2D0F940DF28E2D0F940DF285
:10F1400030E23093C6008091C00086FFFCCF8091F2
:10F15000C00080648093C0004EE34093C60080915D
:10F16000C00086FFFCCF87C08EE09EEFA0E0B0E03D
:10F17000E822F9220A231B239CE0E91694E9F90608
:10F1800090E0090790E0190709F088C0C45DDE4FE0
:10F19000A881CC52D140EA2EFF2400E010E0102FCD
:10F1A0000F2DFE2CEE24C55DDE4FB881CB52D14031
:10F1B000EB0EF11C011D111DD601C501817090706F
:10F1C000A070B070DC0199278827E80EF91E0A1F8D
:10F1D0001B1F20EF30E040E050E0A222B322C42207
:10F1E000D52241E1AA0CBB1CCC1CDD1C4A95D1F7F1
:10F1F000EA0CFB1C0C1D1D1D81E090E0A0E0B0E0BE
:10F20000282239224A225B2235E1220C331C441C7D
:10F21000551C3A95D1F7E20CF31C041D151D57013E
:10F220006801AA0CBB1CCC1CDD1C85E192EE60E0E1
:10F230000F94C2F1C801AA27BB270F940DF2BB2778
:10F24000A12F902F8F2D0F940DF28E2D0F940DF274
:10F2500090E29093C6008091C00086FFFCCF809121
:10F26000C00080648093C000AEE3A093C60080918C
:10F27000C00086FFFCCF8091C00080648093C000F6
:10F28000C601AA27BB270F940DF2BB27AD2D9C2DDD
:10F290008B2D0F940DF28A2D0F940DF20F94DCF14B
:10F2A000CC5DDE4FE881F981C452D140F99709F471
:10F2B0004DCBF4E0EF2EF12C012D112D6E0C7F1CA7
:10F2C000801E911EF2CD83E093EE62E00F94F5F183
:10F2D0008AE192EE60E00F94C2F18091C00087FF56
:10F2E000FCCF1091C6001F751093C6008091C0001E
:10F2F00086FFFCCF8091C00080648093C0000F9493
:10F30000DCF1812F81548A3108F036C1163409F4BA
:10F3100095C0173490F4133409F44EC0143430F40B
:10F320001134F1F0123409F01DC130C0143409F465
:10F3300059C0153409F016C16BC01A3409F4C4C0A1
:10F340001B3438F4173409F48FC0183409F00AC19B
:10F35000A1C01B3409F4D2C01C3409F003C1E8C0B9
:10F360008FEF81B90DC082B1809582B980E090E0C5
:10F37000E0EDF7E03197F1F70196883C9105C1F790
:10F380008091C00087FFEFCF12B8EFC08FEF84B934
:10F390000DC085B1809585B980E090E0E0EDF7E0A3
:10F3A0003197F1F70196883C9105C1F78091C00033
:10F3B00087FFEFCF15B8D9C08FEF87B90DC088B1DF
:10F3C000809588B980E090E0E0EDF7E03197F1F7C3
:10F3D0000196883C9105C1F78091C00087FFEFCF6F
:10F3E00018B8C3C08FEF8AB90DC08BB180958BB9A7
:10F3F00080E090E0E0EDF7E03197F1F70196883C8E
:10F400009105C1F78091C00087FFEFCF1BB8ADC059
:10F410008FEF8DB90DC08EB180958EB980E090E0F0
:10F42000E0EDF7E03197F1F70196883C9105C1F7DF
:10F430008091C00087FFEFCF1EB897C08FEF80BBD1
:10F440000DC081B3809581BB80E090E0E0EDF7E0F6
:10F450003197F1F70196883C9105C1F78091C00082
:10F4600087FFEFCF11BA81C08FEF83BB0DC084B38C
:10F47000809584BB80E090E0E0EDF7E03197F1F714
:10F480000196883C9105C1F78091C00087FFEFCFBE
:10F4900014BA6BC08FEF809301010FC080910201FD
:10F4A00080958093020180E090E0E0EDF7E03197F5
:10F4B000F1F70196883C9105C1F78091C00087FF64
:10F4C000EDCF1092020151C08FEF809304010FC065
:10F4D0008091050180958093050180E090E0E0ED4A
:10F4E000F7E03197F1F70196883C9105C1F78091DB
:10F4F000C00087FFEDCF1092050137C08FEF8093DA
:10F5000007010FC08091080180958093080180E079
:10F5100090E0E0EDF7E03197F1F70196883C910536
:10F52000C1F78091C00087FFEDCF109208011DC088
:10F530008FEF80930A010FC080910B01809580931B
:10F540000B0180E090E0E0EDF7E03197F1F70196F4
:10F55000883C9105C1F78091C00087FFEDCF1092E4
:10F560000B0103C085E292EEEEC98091C00087FFD7
:10F57000FCCF8091C600EAC988E392EEE4C98CE131
:10F5800091EEE1C988249924933011F1943028F444
:10F59000913089F09230B8F408C0953061F195301F
:10F5A000F0F0963009F048C043C02B3109F042C951
:10F5B00091E06BE13FC96227C15DDE4F2883CF52E6
:10F5C000D14092E037C9B22FA0E0622793E032C960
:10F5D000822F90E0A82BB92B622794E02BC92E3004
:10F5E00009F039C3622795E0C05DDE4F19821882A9
:10F5F000C053D1401FC9E1E0F0E0EC0FFD1FC05D3A
:10F60000DE4F08811981C053D140E00FF11F2083E4
:10F610000F5F1F4FC05DDE4F19830883C053D14079
:10F6200062270A171B0709F005C9D80196E002C92D
:10F63000261709F010C303C0973009F0FBC87724E0
:10F640009981933109F412C19431C8F4963009F4C8
:10F65000D8C0973050F4923009F406C1933009F4C1
:10F660006DC0913009F059C253C0913109F477C08F
:10F67000923108F0BBC0903109F04FC2F5C098310B
:10F6800009F487C0993150F4953109F4EFC09531F0
:10F6900008F4C6C1963109F040C2C2C19A3109F4DA
:10F6A0006CC09A3108F491C09B3109F45BC09D3164
:10F6B00009F033C29D81903359F48F81882311F46E
:10F6C0009EE11CC0813011F091E018C098E916C08D
:10F6D000892F807591F0903539F4E0E0F0E089E011
:10F6E0008093570094910AC0983539F4E3E0F0E034
:10F6F00089E080935700949101C090E01A821B82A8
:10F700008D818C831D829E831F8227E030E009C299
:10F710001A8288E08B8381E48C8386E58D8382E581
:10F720008E8389E48F8383E5888780E589878FE5E9
:10F730008A8782E38B872BE030E0F3C18A818139AD
:10F7400041F0823941F0803911F48FE005C080E04A
:10F7500003C082E001C08AE01A828B8344C0772410
:10F76000739482C08D81882311F48EE12CC0813086
:10F7700011F081E028C088E926C01A82E1E0F0E0BB
:10F7800089E08093570084918B831C8224E030E0D1
:10F79000C8C18B81803589F48C81883039F4E2E0EE
:10F7A000F0E089E08093570084910DC0E0E0F0E044
:10F7B00089E080935700849106C0E3E0F0E089E09F
:10F7C0008093570084911A82DFCF8D81836C99E0FA
:10F7D000E1E0F0E0082E90935700E89507B600FCB2
:10F7E000FDCF1A821B8223E030E09BC180EC8A832C
:10F7F000CE5CDE4F188219821A821B82C253D1401E
:10F800008EC18A8190E0A0E0B0E0582F44273327D2
:10F8100022278B8190E0A0E0B0E0DC0199278827C7
:10F82000282B392B4A2B5B2B8D8190E0A0E0B0E098
:10F83000282B392B4A2B5B2B8C8190E0A0E0B0E089
:10F84000BA2FA92F982F8827282B392B4A2B5B2BCF
:10F85000220F331F441F551FC05EDE4F288339839C
:10F860004A835B83C052D1401A8259C13A81C95C34
:10F87000DE4F3883C753D140CA5CDE4F1882C6536F
:10F88000D1408B81C82EDD24CA5CDE4F488159816E
:10F89000C653D140C42AD52A933109F082C0CE5C28
:10F8A000DE4F88819981AA81BB81C253D1408050AB
:10F8B000904CA340B04030F583E0CE5CDE4FE88052
:10F8C000F9800A811B81C253D140F70100935B008C
:10F8D00080935700E89507B600FCFDCFCE5CDE4F65
:10F8E000088119812A813B81C253D14000501F4FAA
:10F8F0002F4F3F4FCE5CDE4F088319832A833B8313
:10F90000C253D140C05EDE4F488159816A817B81FC
:10F91000C052D140DE011B9631E08C9111962C91A2
:10F9200011971296C75CDE4F2883C953D140C85C3B
:10F93000DE4F1882C853D14090E0C85CDE4FE881AA
:10F94000F981C853D1408E2B9F2B0C01FA01609393
:10F950005B0030935700E89511244E5F5F4F6F4F67
:10F960007F4F0EEFE02E0FEFF02ECE0CDF1CC114F8
:10F97000D10499F685E0C05EDE4F088119812A81A5
:10F980003B81C052D140F80120935B008093570027
:10F99000E89507B600FCFDCF81E180935700E8951C
:10F9A00035C0C05EDE4F88819981AA81BB81C0527B
:10F9B000D140B695A795979587957C018601ABE0D8
:10F9C000AA2EB12CAC0EBD1E0BC0D5016D915D01F0
:10F9D000C7010F947FFE0894E11CF11C01501040F8
:10F9E0000115110591F7A60160E070E0440F551F65
:10F9F000661F771FC05EDE4FE880F9800A811B8199
:10FA0000C052D1404E0D5F1D601F711F1A82C05E33
:10FA1000DE4F488359836A837B83C052D1407FC0C5
:10FA2000FA80C55CDE4FF882CB53D140C65CDE4F16
:10FA30001882CA53D1408B81C82EDD24C65CDE4FAC
:10FA400008811981CA53D140C02AD12A1A828981DA
:10FA5000BE016D5F7F4F843121F59601C05EDE4FA0
:10FA6000E880F9800A811B81C052D1400BBFF701A9
:10FA700087919691DB018C9311969C936E5F7F4FDB
:10FA8000D801C7010296A11DB11DC05EDE4F88835B
:10FA90009983AA83BB83C052D14022503040F1F6F3
:10FAA00036C0C05EDE4F288139814A815B81C052F9
:10FAB000D1400894C108D108760100E010E0089414
:10FAC000C11CD11C0894E11CF11C011D111DE20E8A
:10FAD000F31E041F151F21BDBB27A52F942F832FB5
:10FAE00082BD2F5F3F4F4F4F5F4FF89A80B5DB01CC
:10FAF0008D93BD012E153F054007510761F7C05E8C
:10FB0000DE4F288339834A835B83C052D1409601FC
:10FB10002D5F3F4FFB01108204C080EC8A8322E0FE
:10FB200030E08BE18093C6008091C00086FFFCCF5F
:10FB30008091C00080648093C000C15DDE4FF88179
:10FB4000CF52D140F093C6008091C00086FFFCCF19
:10FB50008091C00080648093C000432F3093C60022
:10FB60008091C00086FFFCCF8091C00080648093AC
:10FB7000C000922F2093C6008091C00086FFFCCF6A
:10FB80008091C00080648093C0008EE08093C600A6
:10FB90008091C00086FFFCCF8091C000806480937C
:10FBA000C00065E1C15DDE4FE880CF52D1406E25D7
:10FBB00069276427FE01319610C090819093C6009A
:10FBC0008091C00086FFFCCF31968091C000806498
:10FBD0008093C0006927215030402115310569F715
:10FBE0006093C6008091C00086FFFCCF8091C0006A
:10FBF00080648093C00085B1805885B9772081F4F6
:10FC0000C15DDE4F0881CF52D1400F5FC15DDE4F35
:10FC10000883CF52D14090E0A0E0B0E00D941AF4F8
:10FC200027982F9880E090E020ED37E0F901319798
:10FC3000F1F7019684369105C9F700008091C00064
:10FC40008D7F8093C00081E180935700E895EE2777
:10FC5000FF270994FFCF90E00D941AF497FB092E2B
:10FC600007260AD077FD04D02ED006D000201AF443
:10FC7000709561957F4F0895F6F7909581959F4F08
:10FC80000895A1E21A2EAA1BBB1BFD010DC0AA1FDD
:10FC9000BB1FEE1FFF1FA217B307E407F50720F0F5
:10FCA000A21BB30BE40BF50B661F771F881F991F70
:10FCB0001A9469F760957095809590959B01AC01B9
:10FCC000BD01CF010895AA1BBB1B51E107C0AA1FAC
:10FCD000BB1FA617B70710F0A61BB70B881F991FED
:10FCE0005A95A9F780959095BC01CD010895F99991
:10FCF000FECF92BD81BDF89A992780B50895262F31
:10FD0000F999FECF1FBA92BD81BD20BD0FB6F89400
:0EFD1000FA9AF99A0FBE01960895F894FFCF63
:00000001FF
