:100000000C94A1010C94C2010C94C2010C94C20185
:100010000C94C2010C94C2010C94C2010C94C20154
:100020000C94C2010C94C2010C94C2010C94E30321
:100030000C94C2010C94C2010C94C2010C94C20134
:100040000C94C2010C94C2010C94C2010C94C20124
:100050000C94C2010C94C2010C94C2010C9499033B
:100060000C94C2010C94C2010C94C2010C94C20104
:100070000C94C2010C94C2010C94C2010C94C201F4
:100080000C94C2010C94C2010C94C2010C94C201E4
:100090000C94C2010C94C2010C94C2010C94C201D4
:1000A0000C94C2010C94C2010C94C2010C94C201C4
:1000B0000C94C2010C94C2010C94C2010C94C201B4
:1000C0000C94C2010C94C2010C94C2010C94C201A4
:1000D0000C94C2010C94C2010C94C2010C94C20194
:1000E0000C94C2010C9427020C9407020C94010298
:1000F0000C9423020C940B020C940F020C94EC0150
:100100000C9422020C94F0010C941D020C94F70143
:100110000C9419020C94FD010C94F4010C94E80168
:100120000C94E2010C94150200407A10F35A00A0DE
:10013000724E18090010A5D4E80000E876481700B0
:1001400000E40B54020000CA9A3B000000E1F505F0
:10015000000080969800000040420F000000A0863A
:1001600001000000102700000000E803000000006C
:100170006400000000000A00000000000100000010
:1001800000002C76D888DC674F0823DFC1DFAE592A
:10019000E1B1B796E5E3E453C63AE651997696E8BD
:1001A000E6C28426EB898C9B62ED407C6FFCEFBC41
:1001B0009C9F40F2BAA56FA5F490055A2AF75C936C
:1001C0006B6CF9676DC11BFCE0E40D47FEF520E6A2
:1001D000B500D0ED902E0300943577050080841E85
:1001E000080000204E0A000000C80C333333330FE0
:1001F000986E12831141EF8D2114893BE65516CF7D
:10020000FEE6DB18D1844B381BF77C1D901DA4BB88
:10021000E424203284725E228100C9F124ECA1E53D
:100220003D2700002100240027002A002D00300077
:10023000330001010000040107010A01000022004F
:10024000250028002B002E003100340002010000A0
:10025000050108010B0100002000230026002900F1
:100260002C002F00320000010000030106010901EB
:1002700005050505070508080808020202020A0A22
:100280000808040404040101010101010101030340
:10029000030303030303040707070C0C0C0C0C0CEB
:1002A0000C0C0202020206060606060606060B0BE8
:1002B0000B0B0B0B0B0B0102102020080810204029
:1002C000102040800201020108040201010204081A
:1002D00010204080804020100804020180040201A8
:1002E00080402010080402010804020101020408F1
:1002F00010204080010204081020408000000A0BFA
:1003000002090C0D0E0807030401000000000000A4
:1003100000000000000000000000000000000000DD
:10032000000000000000000012111000000000009A
:1003300000000000000000000000000000000000BD
:10034000000011241FBECFEFD1E2DEBFCDBF00E021
:100350000CBF12E0A0E0B2E0E2E1F5E100E00BBF8B
:1003600002C007900D92A633B107D9F722E0A6E3A9
:10037000B2E001C01D92AA35B207E1F70E94F20374
:100380000C94870A0C9400008150823108F05AC006
:10039000E82FF0E08827E053FE4F8F4F0C94510A6E
:1003A000F001F401E201E801EC012202F701FD0194
:1003B000010207020B020F021502190222021D029E
:1003C00023022702809180008F7780938000089518
:1003D000809180008F7DF9CF80918000877FF5CF5D
:1003E00084B58F7784BD089584B58F7DFBCF8091D0
:1003F000B0008F778093B00008958091B0008F7D1A
:10040000F9CF809190008F7780939000089580912C
:1004100090008F7DF9CF80919000877FF5CF8091FC
:10042000A0008F778093A00008958091A0008F7D19
:10043000F9CF8091A000877FF5CF809120018F7741
:10044000809320010895809120018F7DF9CF8091C4
:100450002001877FF5CFCF93DF93282F30E0F9017C
:10046000E450FD4F8491F901EA54FD4FD491F90114
:10047000E059FD4FC491CC23A1F081110E94C40129
:10048000EC2FF0E0EE0FFF1FEA5AFD4FA591B4915B
:10049000EC91ED2381E090E009F480E0DF91CF91D1
:1004A000089580E090E0FACF1F93CF93DF93282F39
:1004B00030E0F901E450FD4F8491F901EA54FD4F19
:1004C000D491F901E059FD4FC491CC23A9F0162F26
:1004D00081110E94C401EC2FF0E0EE0FFF1FE45CDD
:1004E000FD4FA591B4918FB7F894EC91111108C00C
:1004F000D095DE23DC938FBFDF91CF911F910895BC
:10050000DE2BF8CFCF93DF9390E0FC01EA54FD4F50
:10051000249180599D4FFC0184918823D1F090E073
:10052000880F991FFC01EE5DFD4FA591B491FC0170
:10053000E45CFD4FC591D491623071F49FB7F8949B
:100540003C91822F809583238C93E8812E2B2883E6
:100550009FBFDF91CF9108958FB7F894EC912E2B28
:100560002C938FBFF6CF3FB7F894809156029091AD
:100570005702A0915802B091590226B5A89B05C018
:100580002F3F19F00196A11DB11D3FBFBA2FA92F12
:10059000982F8827BC01CD01620F711D811D911D0F
:1005A00042E0660F771F881F991F4A95D1F708957B
:1005B0008F929F92AF92BF92CF92DF92EF92FF9273
:1005C0004B015C010E94B3026B017C010E94B302EB
:1005D0006C197D098E099F09683E7340810591055C
:1005E000A8F321E0821A9108A108B10888EEC80E8C
:1005F00083E0D81EE11CF11C81149104A104B10414
:1006000029F7FF90EF90DF90CF90BF90AF909F9031
:100610008F900895EAE3F2E081E1DF011D928A956F
:10062000E9F710924C0210924B0208951F93CF935A
:10063000DF93182F682F617089E00E945402C12F48
:10064000D0E0BE0175956795617088E00E94540204
:10065000BE017595679575956795617087E00E94F5
:100660005402BE0123E0759567952A95E1F7617004
:1006700086E00E945402BE0134E0759567953A9574
:10068000E1F7617085E00E945402BE0145E0759576
:1006900067954A95E1F7617084E00E94540256E044
:1006A000D595C7955A95E1F76C2F617083E00E944C
:1006B0005402612F661F6627661F82E00E94540263
:1006C00061E08BE00E94540260E08BE00E945402E3
:1006D00083EC90E00197F1F7DF91CF911F9108959E
:1006E000EF92FF920F931F93CF938C0183ECE82E30
:1006F000F12CF801C1918F01CC2359F061E08CE01D
:100700000E9454028C2F0E941603C7010197F1F733
:10071000F0CFCF911F910F91FF90EF900895CF935D
:10072000C82F60E08CE00E9454028C2FCF910C9473
:1007300016031F920F920FB60F9211242F933F931F
:100740008F939F93AF93BF938091520290915302E6
:10075000A0915402B09155023091510223E0230F31
:100760002D3758F50196A11DB11D2093510280939C
:10077000520290935302A0935402B0935502809179
:10078000560290915702A0915802B09159020196D9
:10079000A11DB11D8093560290935702A093580259
:1007A000B0935902BF91AF919F918F913F912F913B
:1007B0000F900FBE0F901F90189526E8230F0296FA
:1007C000A11DB11DD2CF1F920F920FB60F9211240F
:1007D0008F9381E080934E028F910F900FBE0F9008
:1007E0001F901895CF93DF93CDB7DEB76B970FB6F9
:1007F000F894DEBF0FBECDBF789484B5826084BD0F
:1008000084B5816084BD85B5826085BD85B5816014
:1008100085BD80916E00816080936E001092810092
:10082000809181008260809381008091810081604D
:10083000809381008091800081608093800080910E
:10084000B10084608093B1008091B000816080939A
:10085000B00080919100826080939100809191001E
:1008600081608093910080919000816080939000DE
:100870008091A10082608093A1008091A10081609D
:100880008093A1008091A00081608093A00080915E
:1008900021018260809321018091210181608093F8
:1008A00021018091200181608093200180917A0054
:1008B000846080937A0080917A00826080937A00CD
:1008C00080917A00816080937A0080917A008068BC
:1008D00080937A001092C1000AE212E0D801FD90E4
:1008E0008D0161E08F2D0E94820261E08F2D0E94B8
:1008F0005402B2E00E321B0789F7809168008460D1
:100900008093680080916D008F6080936D00789473
:1009100062E08EE30E94820262E08FE30E94820224
:1009200062E080E40E94820262E081E40E9482022E
:1009300002E012E0F80180810E5F1F4F61E00E942B
:100940008202F2E006311F07A9F764E170E080E05F
:1009500090E00E94D80288E30E948F0303EC10E02D
:10096000C8010197F1F786E00E948F03C801019743
:10097000F1F78FE00E948F03C8010197F1F784E13E
:100980000E948F03C8010197F1F781E00E948F0355
:1009900062E070E080E090E00E94D8020E940A03CA
:1009A0006E0183E1C80ED11CDE0111967D0161E06C
:1009B00085E30E94540261E084E30E94540261E0F6
:1009C00083E30E94540261E082E30E94540200919A
:1009D0004F0210915002F801E65DFD4F60E080810A
:1009E0000E945402C801019664E070E00E943D0A32
:1009F0009093500280934F0280914E02882309F415
:100A00005DC036E2A32E32E0B32E66246A94762CC3
:100A100010E000E0F50181915F010E942B02892B1B
:100A200009F438010F5F1F4F0430110599F72AE2CE
:100A3000822E22E0922E0FEF1FEFB12CA12CD401B9
:100A40008D914D010E942B02892B09F48501BFEF86
:100A5000AB1ABB0AE4E0AE16B10489F70F3F1007EA
:100A600069F18FEF6816780649F1000F111F000F2A
:100A7000111F060D171D1093010200930002E09153
:100A80000002F0910102EA5EFD4F10811334F1F48F
:100A900081E00E948F030E940A0310924E02F3012C
:100AA000EA5DFD4F1081812F0E942B02892BD9F323
:100AB00066E970E080E090E00E94D802E0E0F0E0BB
:100AC000EF2B09F474CF0E94000071CF80914D028A
:100AD0008111E3CF80914B0290914C021D3309F0BC
:100AE000D1C0865C9D4FDC011C9281E080934D0259
:100AF000F60189E011928A95E9F7D701E9E01D92A4
:100B0000EA95E9F72AE332E0D60190E080E0F901C6
:100B100011919F01FC013196112339F040ED410FF5
:100B20004A3018F41D93CF01F2CF8C0D9D1DDC01CE
:100B30001C92812F8D7F8D3221F086ED810F8230C6
:100B400038F5E65CFD4FD701CD018E199F09219143
:100B500030ED320F3A3010F42D93F6CFF701E80F55
:100B6000F91F10828B89882399F08981882381F06D
:100B7000C6010E9477064B015C01C7010E947706FF
:100B80001B012C011B3241F164F41A3209F472C0CA
:100B900080EF882E83E2982E84E7A82E89ECB82E69
:100BA00025C01D3209F45FC01F3291F721143104B2
:100BB0004104510469F3C501B4010E947D094B0150
:100BC0005C01C201B1010E947D099B01AC01C5011C
:100BD000B4010E94090908C0C501B401620D731D6A
:100BE000841D951D0E947D094B015C018092360297
:100BF00090923702A0923802B092390281E00E94AE
:100C00008F0362E070E080E090E00E94D80280E80C
:100C10000E948F0320EF33E244E759ECC501B40191
:100C20000E940409882359F1870124E040E0C501AE
:100C3000B4010E9459069701C9012F5F3F4FFC0183
:100C400040814032C9F30E9470030E940A0368EB9E
:100C50007BE080E090E00E94D80281E00E948F0358
:100C600010924D021ACFC501B401621973098409AB
:100C70009509B8CFA50194010E942D0AB3CF8EE249
:100C800092E0E1CF803191050CF007CF9C012F5FFE
:100C90003F4F30934C0220934B02865C9D4FDC010A
:100CA0001C9361E08CE00E945402812F0E94160385
:100CB000F4CEEF920F931F93CF93DF93E80134E0CC
:100CC00047FD34E1042E000C550B57FF03C051952E
:100CD00041955109E32E022F242FAE010E94B30645
:100CE000CE01DF91CF911F910F91EF9008951F9347
:100CF000FC0199278827BC01E89411911032E9F38F
:100D0000193010F01E30C8F31B3251F01D3249F477
:100D1000689406C00E949E06610F711D811D911D81
:100D2000119110531A30B0F33EF490958095709560
:100D300061957F4F8F4F9F4F1F910895592F482FD7
:100D4000372F262F660F771F881F991F660F771F73
:100D5000881F991F620F731F841F951F660F771FCF
:100D6000881F991F08958F929F92AF92BF92CF9242
:100D7000DF92EF92FF920F931F93CF93DF9300D0F8
:100D800000D000D0CDB7DEB76A01F22EB02E102F02
:100D9000FBE3AF2EA01608F41BE31F5F012F27E033
:100DA000AE014F5F5F4F0E942C08BC018981982FD4
:100DB0009970913009F44EC09BE2E1FC04C09E2D75
:100DC0009170E0FC49C05E2D5071E82FE87083FF00
:100DD00055C084E0911101C083E0EF2DE81B8F1511
:100DE00008F0E0E0D6018E2F20E25523C9F19923C7
:100DF00029F0D6019C93C60101966C0196012D5FE6
:100E00003F4FE2FE33C08EE4D6018C9391E41196FD
:100E10009C93119712968C93D9018E2F90E2811199
:100E20002AC0E20FF32FF11D10828EEF9FEF29965B
:100E30000FB6F894DEBF0FBECDBFDF91CF911F91EB
:100E40000F91FF90EF90DF90CF90BF90AF909F9069
:100E50008F9008959DE2B7CF90E2B5CF2D9381504A
:100E60008111FCCFCE0ED11CE0E0C1CF8EE6D601C1
:100E70008C9391E6CCCF9D938150D1CF482F447075
:100E800082FF3DC084E0911101C083E08F1510F412
:100E9000EF2DE81BD6018E2F20E2552309F199236F
:100EA00029F0D6019C93C60101966C0196012D5F35
:100EB0003F4FE2FE1BC089E4D6018C938EE411966D
:100EC0008C93119786E412968C93D9018E2F90E221
:100ED000882309F4A6CF9D938150FACF2D9381509A
:100EE0008111FCCFCE0ED11CE0E0D9CF89E6D6012E
:100EF0008C938EE611968C93119786E6E4CF9B0136
:100F000077FF02C030E020E0A1E0B0E0911102C024
:100F1000B0E0A0E0F9013196AE0FBF1F8B2C912CF1
:100F2000BB2009F461C05401EFEFAE1ABE0AAA0D4E
:100F3000BB1DFA161B0619F014F04F2D4A1B511158
:100F400088C0E3FC59C07601A42FB0E2A1114FC0C4
:100F5000C40ED11C992309F45BC040E0D601119660
:100F6000F60190836D01552309F448C0012F060F47
:100F70009A81582F507184FF03C0913309F40150B6
:100F800010160CF047C0093008F008E0EEE2FE2E23
:100F90005B01A01AB10885019194819491082F3FBB
:100FA000320729F4D601FC92F60131966F016217DF
:100FB000730794F1021713077CF5DB01A21BB30B37
:100FC000AA24A394B12CAC0EBD1EAA0DBB1D119674
:100FD0008C9121503109D601119628153905F4F06C
:100FE000F60180836D01DBCFB12CA12CA0CFF701DE
:100FF000B1937F01A150AACF9111B0CFD601942F08
:1010000050E302C05D9391509111FCCFC40ED11CEE
:1010100040E0ACCF01E0BACF80E3DBCF62177307CB
:1010200031F4963388F4953311F4552369F0F601C1
:101030008083FD01842F90E2811108C0A40FB11DAF
:101040001C9290E080E0F3CE81E3F1CF9193815048
:10105000F3CF911183CF8ACF283008F027E03327D0
:10106000DA01990F311D87FD9160009661057105C8
:1010700039F432602E5F3D9330E32A95E1F708950D
:101080009F3F30F080387105610509F03C5F3C5F9F
:101090003D93913008F08068911DDF93CF931F93AB
:1010A0000F93FF92EF92192F987F9695E92F9695BF
:1010B0009695E90FFF27EE57FE4F99273327EE2429
:1010C000FF24A701E70105900894079428F4360F40
:1010D000E71EF81E491F511D660F771F881F991FB5
:1010E0000694A1F70590079428F4E70EF81E491F0F
:1010F000561FC11D770F881F991F661F0694A1F701
:101100000590079428F4F80E491F561FC71FD11DDC
:10111000880F991F661F771F0694A1F70590079403
:1011200020F4490F561FC71FD81F990F661F771F3E
:10113000881F0694A9F784911095177041F0D695F1
:10114000C79557954795F794E7941A95C1F7E8E244
:10115000F1E0689415901591359165919591059000
:101160007FE27395E118F10A430B560BC90BD009C6
:10117000C0F7E10CF11E431F561FC91FD01D7EF49E
:10118000703311F48A95E6CFE894015030F0080FDF
:101190000AF40027021708F4202F2395022F7A3330
:1011A00028F079E37D932A95E9F710C07D932A957D
:1011B00089F6069497956795379517951794E118D2
:1011C000F10A430B560BC90BD00998F023957E9179
:1011D00073957A3308F070E37C932013B8F77E910F
:1011E00070617D9330F0839571E37D9370E32A9570
:1011F000E1F71124EF90FF900F911F91CF91DF91B4
:10120000992787FD909508950E94B80908F481E018
:1012100008950E941D090C94F3090E94EC0958F0EE
:101220000E94E50940F029F45F3F29F00C94DC09A5
:1012300051110C94270A0C94E2090E94040A68F3E5
:101240009923B1F3552391F3951B550BBB27AA277F
:1012500062177307840738F09F5F5F4F220F331FB9
:10126000441FAA1FA9F335D00E2E3AF0E0E832D081
:1012700091505040E695001CCAF72BD0FE2F29D084
:10128000660F771F881FBB1F261737074807AB0756
:10129000B0E809F0BB0B802DBF01FF2793585F4FCB
:1012A0003AF09E3F510578F00C94DC090C94270A23
:1012B0005F3FE4F3983ED4F3869577956795B795AD
:1012C000F7959F5FC9F7880F911D9695879597F9B8
:1012D0000895E1E0660F771F881FBB1F6217730731
:1012E0008407BA0720F0621B730B840BBA0BEE1F46
:1012F00088F7E0950895E89409C097FB3EF490952F
:101300008095709561957F4F8F4F9F4F9923A9F0DE
:10131000F92F96E9BB279395F6958795779567956D
:10132000B795F111F8CFFAF4BB0F11F460FF1BC0B1
:101330006F5F7F4F8F4F9F4F16C0882311F096E944
:1013400011C0772321F09EE8872F762F05C06623F2
:1013500071F096E8862F70E060E02AF09A95660FAB
:10136000771F881FDAF7880F9695879597F9089564
:10137000990F0008550FAA0BE0E8FEEF16161706A6
:10138000E807F907C0F012161306E407F50798F00E
:10139000621B730B840B950B39F40A2661F0232B27
:1013A000242B252B21F408950A2609F4A140A695A3
:1013B0008FEF811D811D089597F99F6780E870E088
:1013C00060E008959FEF80EC089500240A941616BB
:1013D000170618060906089500240A941216130623
:1013E000140605060895092E0394000C11F48823B1
:1013F00052F0BB0F40F4BF2B11F460FF04C06F5FCD
:101400007F4F8F4F9F4F089557FD9058440F551FA2
:1014100059F05F3F71F04795880F97FB991F61F076
:101420009F3F79F087950895121613061406551FED
:10143000F2CF4695F1DF08C0161617061806991F59
:10144000F1CF86957105610508940895E894BB274E
:1014500066277727CB0197F90895DB018F939F9338
:101460000E94590ABF91AF91A29F800D911DA39F29
:10147000900DB29F900D1124089597FB072E16F43E
:10148000009407D077FD09D00E94640A07FC05D0BC
:101490003EF4909581959F4F0895709561957F4F8B
:1014A0000895EE0FFF1F881F8BBF0790F691E02D68
:1014B00019940E94780AA59F900DB49F900DA49F47
:1014C000800D911D11240895AA1BBB1B51E107C07B
:1014D000AA1FBB1FA617B70710F0A61BB70B881FC4
:1014E000991F5A95A9F780959095BC01CD01089553
:1014F000A29FB001B39FC001A39F700D811D112455
:10150000911DB29F700D811D1124911D0895F894B5
:02151000FFCF0B
:10151200FFFF0C000B000900080007000600050091
:101522000400030002003738392F3435362A3132AD
:10153200332D43303D2B3E3F4041353433324572EB
:06154200726F722100002F
:00000001FF
