:100000000C942F010C9460010C9460010C9460011D
:100010000C9460010C9460010C9460010C946001DC
:100020000C9460010C9460010C9460010C943C04ED
:100030000C9460010C9460010C9460010C946001BC
:100040000C9460010C9460010C9460010C946001AC
:100050000C9460010C9460010C9460010C94F20308
:100060000C9460010C9460010C9460010C9460018C
:100070000C9460010C9460010C9460010C9460017C
:100080000C9460010C9460010C9460010C9460016C
:100090000C9460010C9460010C9460010C9460015C
:1000A0000C9460010C9460010C9460010C9460014C
:1000B0000C9460010C9460010C9460010C9460013C
:1000C0000C9460010C9460010C9460010C9460012C
:1000D0000C9460010C9460010C9460010C9460011C
:1000E0000C9460010C94EC030C94A4020C94800119
:1000F0000C94B7010C9476020C94A5010C948A011F
:100100000C9492010C94B3010C94AB050C949F01D8
:100110000C94A3020C9495010C94C5010C94A901B4
:100120000C94C1010C9486010C94C0010C94AD0197
:100130000C948E010C949B010C94BB0100002100D7
:10014000240027002A002D003000330001010000A8
:10015000040107010A0100002200250028002B00ED
:100160002E003100340002010000050108010B01DE
:10017000000020002300260029002C002F00320060
:100180000001000003010601090105050505070539
:1001900008080808020202020A0A08080404040403
:1001A000010101010101010103030303030303032F
:1001B000040707070C0C0C0C0C0C0C0C02020202BE
:1001C00006060606060606060B0B0B0B0B0B0B0BA7
:1001D0000102102020080810204010204080020159
:1001E000020108040201010204081020408080403E
:1001F000201008040201800402018040201008043D
:1002000002010804020101020408102040800102DA
:1002100004081020408000000A0B02090C0D0E0893
:1002200007030401000000000000000000000000BF
:1002300000000000000000000000000000000000BE
:10024000000012111000000000000000000000007B
:10025000000000000000000000000000AB051124B9
:100260001FBECFEFD1E2DEBFCDBF00E00CBF12E07A
:10027000A0E0B2E0E0E0FCE000E00BBF02C00790CD
:100280000D92A632B107D9F722E0A6E2B2E001C092
:100290001D92AA34B207E1F711E0CFE2D1E000E00D
:1002A00006C021970109802FFE010E94E205CE328F
:1002B000D10780E00807A9F70E944B040C94FE05C3
:1002C0000C9400008150823108F05AC0E82FF0E011
:1002D0008827E259FE4F8F4F0C94E2058E01920160
:1002E000800186018A01C00195019B019F01A50142
:1002F000A901AD01B301B701C001BB01C101C50135
:10030000809180008F778093800008958091800095
:100310008F7DF9CF80918000877FF5CF84B58F776F
:1003200084BD089584B58F7DFBCF8091B0008F7719
:100330008093B00008958091B0008F7DF9CF8091B7
:1003400090008F77809390000895809190008F7D2A
:10035000F9CF80919000877FF5CF8091A0008F77B3
:100360008093A00008958091A0008F7DF9CF8091A7
:10037000A000877FF5CF809120018F7780932001A7
:100380000895809120018F7DF9CF80912001877F92
:10039000F5CFCF93DF93282F30E0F901EA5EFD4FD0
:1003A0008491F901E053FE4FD491F901E657FE4FD5
:1003B000C491CC23A1F081110E946201EC2FF0E0E6
:1003C000EE0FFF1FE059FE4FA591B491EC91ED2384
:1003D00081E090E009F480E0DF91CF91089580E022
:1003E00090E0FACF1F93CF93DF93282F30E0F901ED
:1003F000EA5EFD4F8491F901E053FE4FD491F9017B
:10040000E657FE4FC491CC23A9F0162F81110E940C
:100410006201EC2FF0E0EE0FFF1FEA5AFE4FA591AC
:10042000B4918FB7F894EC91111108C0D095DE23E8
:10043000DC938FBFDF91CF911F910895DE2BF8CF12
:10044000CF93DF9390E0FC01E053FE4F2491865759
:100450009E4FFC0184918823D1F090E0880F991F72
:10046000FC01E45CFE4FA591B491FC01EA5AFE4FF9
:10047000C591D491623071F49FB7F8943C91822F6A
:10048000809583238C93E8812E2B28839FBFDF9157
:10049000CF9108958FB7F894EC912E2B2C938FBFAA
:1004A000F6CF3FB7F89480912E0290912F02A09141
:1004B0003002B091310226B5A89B05C02F3F19F03C
:1004C0000196A11DB11D3FBFBA2FA92F982F8827D4
:1004D000BC01CD01620F711D811D911D42E0660FAF
:1004E000771F881F991F4A95D1F70895AF92BF9241
:1004F000CF92DF92EF92FF920F931F93CF93DF93F0
:100500006C017B018B01040F151FEB015E01AE181E
:10051000BF08C017D10759F06991D601ED91FC9140
:100520000190F081E02DC6011995892B79F7C5015D
:10053000DF91CF911F910F91FF90EF90DF90CF90BF
:10054000BF90AF900895089590E080E00895CF9314
:10055000DF93EC0160E08E810E94F20161E08E8108
:100560000E94F20160E08E810E94F2018BE891E02E
:100570000197F1F7DF91CF910895CF92DF92EF923B
:10058000FF920F931F93CF93DF936C017C0187E061
:10059000E80EF11CD0E0C0E0062F10E0B8010C2EF0
:1005A00002C0759567950A94E2F76170F701819131
:1005B0007F010E94F2012196C430D10579F7C6016E
:1005C000DF91CF911F910F91FF90EF90DF90CF902F
:1005D0000C94A702CF92DF92EF92FF920F931F939A
:1005E000CF93DF93EC01F62E642F8C810E94F201F1
:1005F0008D818F3F19F060E00E94F2010F2D10E015
:100600008F8584FF25C06E0187E0C80ED11CF12CB8
:10061000E12CB8010E2C02C0759567950A94E2F79B
:100620006170F60181916F010E94F201FFEFEF1AF4
:10063000FF0A88E0E816F10461F7CE01DF91CF915F
:100640001F910F91FF90EF90DF90CF900C94A70235
:10065000B80184E0759567958A95E1F7CE010E940F
:10066000BD026F2DCE01DF91CF911F910F91FF90B1
:10067000EF90DF90CF900C94BD0240E0682F82E3B2
:1006800092E00C94EA0281E00E943D038BE39FE13B
:100690000197F1F70895CF93DF93823029F4909179
:1006A0004102986090934102809345021092460265
:1006B00080E48093470280E18093480280E5809344
:1006C000490261E0809136020E9420028091370247
:1006D0008F3F19F061E00E94200261E080913802B2
:1006E0000E942002C2E3D2E09E0122533240809158
:1006F000410284FD0BC084E090E021962817390761
:1007000044F461E08E810E942002EECF88E090E008
:10071000F4CF8BE39DE00197F1F760E08091360222
:100720000E94F20160E0809138020E94F201809103
:1007300037028F3F19F060E00E94F2018091410280
:1007400084FD34C063E082E392E00E94BD02CBE40A
:10075000D6E4CE010197F1F763E082E392E00E94D4
:10076000BD022197F1F763E082E392E00E94BD02AF
:1007700083E592E00197F1F762E082E392E00E9464
:10078000BD028091410280620E943D0384E080931B
:1007900042028CE00E943D030E94430382E080936A
:1007A000430286E0DF91CF910C943D0380620E946A
:1007B0003D038BE496E40197F1F78091410280625A
:1007C0000E943D0383E592E00197F1F78091410299
:1007D00080620E943D03D5CF41E00E94EA0281E0A1
:1007E00090E008951F920F920FB60F9211242F934D
:1007F0003F938F939F93AF93BF9380912A029091E1
:100800002B02A0912C02B0912D023091290223E0FD
:10081000230F2D3758F50196A11DB11D20932902F4
:1008200080932A0290932B02A0932C02B0932D0266
:1008300080912E0290912F02A0913002B09131024E
:100840000196A11DB11D80932E0290932F02A093BB
:100850003002B0933102BF91AF919F918F913F9140
:100860002F910F900FBE0F901F90189526E8230F21
:100870000296A11DB11DD2CF1F920F920FB60F92FB
:1008800011248F9381E0809326028F910F900FBEE9
:100890000F901F901895789484B5826084BD84B5BC
:1008A000816084BD85B5826085BD85B5816085BD6B
:1008B00080916E00816080936E0010928100809123
:1008C00081008260809381008091810081608093AB
:1008D0008100809180008160809380008091B100D0
:1008E00084608093B1008091B00081608093B000FB
:1008F000809191008260809391008091910081604D
:10090000809391008091900081608093900080910D
:10091000A10082608093A1008091A10081608093FA
:10092000A1008091A00081608093A00080912101AE
:100930008260809321018091210181608093210157
:100940008091200181608093200180917A008460F1
:1009500080937A0080917A00826080937A008091FF
:100960007A00816080937A0080917A008068809319
:100970007A001092C100C2E2D2E0199161E0812FA9
:100980000E94200261E0812F0E94F20122E0C63223
:10099000D20799F762E08EE30E94200262E08FE3C3
:1009A0000E94200262E080E40E94200262E081E472
:1009B0000E9420028091680084608093680080918A
:1009C0006D008F6080936D00789482E00E944B03ED
:1009D0000E944303E1E0809145028111E0E0E1954E
:1009E000F0E0EE5CFD4F848980680E943D0344E0A6
:1009F000E42EF12C50E0C52E50E0D52E61E086E3C8
:100A00000E94F20161E087E30E94F20161E088E365
:100A10000E94F20161E089E30E94F201C091270285
:100A2000D0912802FE01EE5DFD4F60E080810E94C2
:100A3000F201CE010196B7010E94CE0590932802E3
:100A40008093270280912602882309F477C03EE133
:100A5000A32E32E0B32E0FEF1FEFD0E0C0E0F50180
:100A600081915F010E94C901892B09F48E012196B1
:100A7000C430D105A1F722E2822E22E0922ECFEFE0
:100A8000DFEFB12CA12CF40181914F010E94C9012B
:100A9000892B09F4E501FFEFAF1ABF0A24E0A21683
:100AA000B10489F7CF3FDC0709F448C00F3F1007B6
:100AB00009F444C0CC0FDD1FCC0FDD1FC00FD11FC8
:100AC000D0930102C0930002E0910002F091010274
:100AD000E25FFD4F60816334C1F50E9443031092D1
:100AE0002602F801E25EFD4FC0818C2F0E94C901F1
:100AF000892BD9F30E9451022B013C0186E9882EF3
:100B0000912CA12CB12C0E945102641975098609FF
:100B10009709683E734081059105A8F3F1E08F1AAB
:100B20009108A108B10828EE420E23E0521E611C74
:100B3000711C81149104A104B10429F7C114D104DA
:100B400009F45CCF0E94000059CF41E082E392E0BB
:100B50000E94EA02C4CFE2E3F2E01382128286E04E
:100B600092E0918380838DE084838FEF85838CE096
:100B700086838BE087838AE0808789E0818788E0AD
:100B8000828787E0838786E0848785E0858784E0A5
:100B9000868780E1878781E00C944B0397FB072EC3
:100BA00016F4009407D077FD09D00E94EA0507FCEF
:100BB00005D03EF4909581959F4F0895709561956D
:100BC0007F4F0895EE0FFF1F881F8BBF0790F69190
:100BD000E02D1994AA1BBB1B51E107C0AA1FBB1F24
:100BE000A617B70710F0A61BB70B881F991F5A95B9
:100BF000A9F780959095BC01CD010895F894FFCF99
:100C0000FFFF00000000EC037602A402A3023738C5
:100C1000392F3435362A3132332D43303D2B3E3F88
:060C20004041363738396F
:00000001FF
