:100000000C9417010C9438010C9438010C943801AD
:100010000C9438010C9438010C9438010C9438017C
:100020000C9438010C9438010C9438010C9438016C
:100030000C9438010C9438010C9438010C9438015C
:100040000C9438010C9438010C9438010C9438014C
:100050000C9438010C9438010C9438010C948102F2
:100060000C9438010C9438010C9438010C9438012C
:100070000C9438010C9438010C9438010C9438011C
:100080000C9438010C9438010C9438010C9438010C
:100090000C9438010C9438010C9438010C943801FC
:1000A0000C9438010C9438010C9438010C943801EC
:1000B0000C9438010C9438010C9438010C943801DC
:1000C0000C9438010C9438010C9438010C943801CC
:1000D0000C9438010C9438010C9438010C943801BC
:1000E0000C9438010C94A0010C94A4010C949A0176
:1000F0000C946A010C94C0010C94B2010C948D0113
:100100000C94BC010C9481010C9489010C94900115
:100110000C9496010C94AE010C94A8010C946F0100
:100120000C94B6010C9485010000210024002700E6
:100130002A002D00300033000101000004010701F6
:100140000A0100002200250028002B002E003100AB
:10015000340002010000050108010B010505050539
:10016000070508080808020202020A0A080804042F
:10017000040401010101010101010303030303035D
:100180000303040707070C0C0C0C0C0C0C0C0202EC
:10019000020206060606060606060B0B0B0B0B0BE9
:1001A0000B0B010210202008081020401020408076
:1001B000020102010804020101020408102040802B
:1001C00080402010080402018004020180402010B9
:1001D0000804020108040201010204081020408002
:1001E000010204081020408000000A0B02090C0DD7
:1001F0000E080703040100000000000000000000DA
:1002000000000000000000000000000000000000EE
:1002100000000000121110000000000000000000AB
:100220000000000000000000000000000000112499
:100230001FBECFEFD1E2DEBFCDBF00E00CBF12E0AA
:10024000A0E0B2E0EEE6F7E000E00BBF02C00790EE
:100250000D92AC32B107D9F722E0ACE2B2E001C0B6
:100260001D92A533B207E1F70E94CB020C94B503AF
:100270000C940000282F30E0F901E851FE4F9491D2
:10028000F901EE55FE4F4491245A3E4FF901249155
:10029000222309F435C0992311F191509231F8F4D9
:1002A000E92FF0E08827E85AFE4F8F4F0C94AD03FA
:1002B00089018D016A01810185016F01900196011B
:1002C0009A01A001A401A801AE01B2016F01B6011B
:1002D000BC01C001809180008F7780938000E22F65
:1002E000F0E0EE0FFF1FEE5BFE4FA591B4918FB7CC
:1002F000F894EC91611148C040954E234C938FBF08
:100300000895809180008F7DE8CF80918000877F65
:10031000E4CF84B58F7784BDE2CF84B58F7DFBCFEA
:100320008091B0008F778093B000D9CF8091B000DA
:100330008F7DF9CF809190008F7780939000CFCF01
:10034000809190008F7DF9CF80919000877FF5CFCD
:100350008091A0008F778093A000C1CF8091A000F2
:100360008F7DF9CF8091A000877FF5CF809120010C
:100370008F7780932001B3CF809120018F7DF9CFBB
:1003800080912001877FF5CF4E2BB8CF3FB7F894EF
:100390008091310290913202A0913302B0913402E7
:1003A00026B5A89B05C02F3F19F00196A11DB11DD0
:1003B0003FBFBA2FA92F982F8827BC01CD01620F0C
:1003C000711D811D911D42E0660F771F881F991FC7
:1003D0004A95D1F708958F929F92AF92BF92CF9294
:1003E000DF92EF92FF924B015C010E94C6016B010C
:1003F0007C010E94C6016C197D098E099F09683E27
:10040000734081059105A8F321E0821A9108A108A3
:10041000B10888EEC80E83E0D81EE11CF11C8114DF
:100420009104A104B10429F7FF90EF90DF90CF90E1
:10043000BF90AF909F908F9008951F93CF93DF93BD
:10044000182F682F617089E00E943A01C12FD0E017
:10045000BE0175956795617088E00E943A01BE0102
:100460007595679575956795617087E00E943A016B
:10047000BE0123E0759567952A95E1F7617086E0E6
:100480000E943A01BE0134E0759567953A95E1F70F
:10049000617085E00E943A01BE0145E0759567955F
:1004A0004A95E1F7617084E00E943A0156E0D595E3
:1004B000C7955A95E1F76C2F617083E00E943A016D
:1004C000612F661F6627661F82E00E943A0161E085
:1004D0008BE00E943A0160E08BE00E943A0183ECDD
:1004E00090E00197F1F7DF91CF911F910895CF939D
:1004F000C82F60E08CE00E943A018C2FCF910C94C1
:100500001D021F920F920FB60F9211242F933F934B
:100510008F939F93AF93BF9380912D0290912E0262
:10052000A0912F02B091300230912C0223E0230FD2
:100530002D3758F50196A11DB11D20932C028093F3
:100540002D0290932E02A0932F02B093300280913F
:10055000310290913202A0913302B091340201969F
:10056000A11DB11D8093310290933202A0933302FA
:10057000B0933402BF91AF919F918F913F912F9192
:100580000F900FBE0F901F90189526E8230F02962C
:10059000A11DB11DD2CF789484B5826084BD84B58D
:1005A000816084BD85B5826085BD85B5816085BD6E
:1005B00080916E00816080936E0010928100809126
:1005C00081008260809381008091810081608093AE
:1005D0008100809180008160809380008091B100D3
:1005E00084608093B1008091B00081608093B000FE
:1005F0008091910082608093910080919100816050
:100600008093910080919000816080939000809110
:10061000A10082608093A1008091A10081608093FD
:10062000A1008091A00081608093A00080912101B1
:10063000826080932101809121018160809321015A
:100640008091200181608093200180917A008460F4
:1006500080937A0080917A00826080937A00809102
:100660007A00816080937A0080917A00806880931C
:100670007A001092C100A2E0B2E026E132E08D9152
:100680009D919927FC01EE55FE4F4491845A9E4F4F
:10069000FC018491882399F090E0880F991FFC0158
:1006A000E85DFE4FC591D491FC01EE5BFE4F859154
:1006B00094918FB7F894E881E42BE8838FBF2A17D1
:1006C0003B07E9F664E170E080E090E00E94EB0116
:1006D00088E30E947702C3ECD0E0CE010197F1F7E6
:1006E0008CE00E947702CE010197F1F786E00E942C
:1006F00077022197F1F781E00E94770262E070E0D3
:1007000080E090E00E94EB0183ECC82ED12C90E0B9
:10071000E92E90E0F92E809100029091010201975C
:10072000B1F406E112E0F801C1918F01CC2359F038
:1007300061E08CE00E943A018C2F0E941D02C601EC
:100740000197F1F7F0CF1092010210920002E1142C
:10075000F10409F30E940000DECFEE0FFF1F881F97
:0E0760008BBF0790F691E02D1994F894FFCF0F
:10076E0001000C000B000900080007000600050040
:10077E000400030002004E4F4F4F4F4F4F4F4F4F4D
:0C078E004F4F4F4F4F4F4F4F4F4F4F00FA
:00000001FF
