:100000000C9417010C9438010C9438010C943801AD
:100010000C9438010C9438010C9438010C9438017C
:100020000C9438010C9438010C9438010C9438016C
:100030000C9438010C9438010C9438010C9438015C
:100040000C9438010C9454020C9438010C9438012F
:100050000C9438010C9438010C9438010C94E5018F
:100060000C9438010C9438010C9438010C9438012C
:100070000C9438010C9438010C9438010C9438011C
:100080000C942F020C9438010C9438010C94380114
:100090000C9438010C9438010C9438010C943801FC
:1000A0000C9438010C9438010C9438010C943801EC
:1000B0000C9438010C9438010C9438010C943801DC
:1000C0000C9438010C9438010C9438010C943801CC
:1000D0000C9438010C9438010C9438010C943801BC
:1000E0000C9438010C948E010C9489010C94C3017A
:1000F0000C94D1010C94A4010C94D5010C94BF0173
:100100000C94B5010C94DB010C94DF010C94AC0150
:100110000C94A0010C94CD010C94C7010C94A8017F
:100120000C94B9010C94AF0100000A0B02090C0DEC
:100130000E0807030401000000000000000000009A
:1001400000000000000000000000000000000000AF
:10015000000000001211100000000000000000006C
:10016000000000000000000000000000000000008F
:100170002200250028002B002E003100340002014F
:100180000000050108010B010000210024002700E8
:100190002A002D0030003300010100000401070196
:1001A0000A010505050507050808080802020202FC
:1001B0000A0A080804040404010101010101010103
:1001C0000303030303030303040707070C0C0C0CCE
:1001D0000C0C0C0C020202020606060606060606B7
:1001E0000B0B0B0B0B0B0B0B010210202008081044
:1001F0002040102040800201020108040201010297
:10020000040810204080804020100804020180046F
:1002100002018040201008040201080402010102CA
:10022000040810204080010204081020408011249E
:100230001FBECFEFD1E2DEBFCDBF00E00CBF12E0AA
:10024000A0E0B2E0EEE6F7E000E00BBF02C00790EE
:100250000D92A232B107D9F722E0A2E2B2E001C0CA
:100260001D92AD32B207E1F70E9479020C94B503FA
:100270000C94000090E0FC01E851FE4F24918E5553
:100280009E4FFC018491882399F090E0880F991F7C
:10029000FC01E857FE4FA591B491FC01E259FE4FD5
:1002A000859194918FB7F894EC91E22BEC938FBFEA
:1002B0000895282F30E0F901E85DFE4F9491F9018F
:1002C000E851FE4F44912E553E4FF90124912223CF
:1002D00009F435C0992311F191509231F8F4E92FC6
:1002E000F0E08827E958FE4F8F4F0C949903A8013E
:1002F000AC018901A001A4018E01AF01B501B901D2
:10030000BF01C301C701CD01D1018E01D501DB01C0
:10031000DF01809180008F7780938000E22FF0E0F2
:10032000EE0FFF1FE259FE4FA591B4918FB7F894DD
:10033000EC91611148C040954E234C938FBF0895B6
:10034000809180008F7DE8CF80918000877FE4CF0F
:1003500084B58F7784BDE2CF84B58F7DFBCF80914C
:10036000B0008F778093B000D9CF8091B0008F7D9F
:10037000F9CF809190008F7780939000CFCF8091BC
:1003800090008F7DF9CF80919000877FF5CF80918D
:10039000A0008F778093A000C1CF8091A0008F7DB7
:1003A000F9CF8091A000877FF5CF809120018F77D2
:1003B00080932001B3CF809120018F7DF9CF809170
:1003C0002001877FF5CF4E2BB8CF1F920F920FB62B
:1003D0000F9211242F933F938F939F93AF93BF93CB
:1003E0008091290290912A02A0912B02B0912C02B7
:1003F0003091280223E0230F2D3758F50196A11DD7
:10040000B11D209328028093290290932A02A09381
:100410002B02B0932C028091240290912502A0918E
:100420002602B09127020196A11DB11D80932402DE
:1004300090932502A0932602B0932702BF91AF911B
:100440009F918F913F912F910F900FBE0F901F9012
:10045000189526E8230F0296A11DB11DD2CF1F9239
:100460000F920FB60F9211245F936F937F938F9328
:100470009F93AF93BF9380910002909101020196E8
:1004800060E170E00E948503909301028093000276
:10049000BF91AF919F918F917F916F915F910F90DD
:1004A0000FBE0F901F9018951F920F920FB60F92CC
:1004B00011245F936F937F938F939F93AF93BF9319
:1004C0008091220290912302019660E170E00E94E7
:1004D00085039093230280932202BF91AF919F9155
:1004E0008F917F916F915F910F900FBE0F901F9032
:1004F0001895789484B5826084BD84B5816084BD8C
:1005000085B5826085BD85B5816085BD80916E00B1
:10051000816080936E0010928100809181008260E2
:10052000809381008091810081608093810080911F
:1005300080008160809380008091B100846080930E
:10054000B1008091B00081608093B00080919100F3
:1005500082608093910080919100816080939100EE
:10056000809190008160809390008091A1008260D2
:100570008093A1008091A10081608093A10080916F
:10058000A00081608093A00080912101826080930F
:1005900021018091210181608093210180912001BE
:1005A00081608093200180917A00846080937A003A
:1005B00080917A00826080937A0080917A008160D5
:1005C00080937A0080917A00806880937A001092FC
:1005D000C1003AE0E32E32E0F32EC2E0D2E01991FE
:1005E000812F0E943A0161E0812F0E945901F70199
:1005F00011917F01812F0E943A0161E0812F0E94B9
:100600005901F2E0CA30DF0751F7109281001092D1
:100610008000809181008C60809381001092850021
:100620001092840024E234EF3093890020938800F4
:1006300080916F00826080936F0010929100109201
:100640009000809191008C608093910010929500B1
:10065000109294003093990020939800809171003B
:10066000826080937100789420E0E22E20E0F22EE8
:10067000E0912202F0912302FF27EE5EFD4F008100
:1006800092E0C92E92E0D92ED0E0C0E010E0B8018F
:100690000C2E02C0759567950A94E2F760957095E7
:1006A00061707727F60181916F010E9459012196AF
:1006B000C830D10561F7E0910002F0910102FF27F7
:1006C000EE5EFD4F00818AE0C82E82E0D82ED0E099
:1006D000C0E010E0B8010C2E02C0759567950A9431
:1006E000E2F76095709561707727F60181916F014F
:1006F0000E9459012196C830D10561F7E114F10437
:1007000009F4B6CF0E940000B3CF97FB072E16F472
:10071000009407D077FD09D00E94A10307FC05D003
:100720003EF4909581959F4F0895709561957F4F08
:100730000895EE0FFF1F881F8BBF0790F691E02DE5
:100740001994AA1BBB1B51E107C0AA1FBB1FA61708
:10075000B70710F0A61BB70B881F991F5A95A9F76A
:0E07600080959095BC01CD010895F894FFCFCF
:10076E000200363738393A3B3C3D161718191A1B1A
:10077E001C003F065B4F666D7D077F6F777C395E91
:02078E0079717F
:00000001FF
