:100000000C9444010C9406120C94E1110C947501AB
:100010000C9475010C9475010C9475010C94750188
:100020000C9475010C9475010C9475010C94F711E6
:100030000C9475010C9475010C9475010C94750168
:100040000C9475010C9475010C9475010C94750158
:100050000C9475010C9475010C9475010C94371176
:100060000C9475010C94AB110C9481110C947501D6
:100070000C9475010C9475010C9475010C94750128
:100080000C9475010C9475010C9475010C94750118
:100090000C9475010C9475010C9475010C94750108
:1000A0000C9475010C9475010C9475010C947501F8
:1000B0000C9475010C9475010C9475010C947501E8
:1000C0000C9475010C9475010C9475010C947501D8
:1000D0000C9475010C9475010C9475010C947501C8
:1000E0000C9475010C947A010C94E0020C94DE03DC
:1000F0000C9415120C94D9010C949D010C94B70723
:100100000C94DF020C9489010C94D2020C94D60258
:100110000C9439090C94CC020C94A9020C94B402EE
:100120000C94A5020C9414040C94B1020C94C80213
:100130000C94DF0A0C9454070C94C4020C94361BE4
:100140000C9426020C94E4020C94DA020C94AB0199
:100150000C94BA020C94BE020C94AD020C943A09B1
:100160000C949F0200002100240027002A002D008B
:100170003000330001010000040107010A01000002
:100180002200250028002B002E003100340002013F
:100190000000050108010B010000200023002600DB
:1001A00029002C002F00320000010000030106018D
:1001B00009010505050507050808080802020202ED
:1001C0000A0A0808040404040101010101010101F3
:1001D0000303030303030303040707070C0C0C0CBE
:1001E0000C0C0C0C020202020606060606060606A7
:1001F0000B0B0B0B0B0B0B0B010210202008081034
:100200002040102040800201020108040201010286
:10021000040810204080804020100804020180045F
:1002200002018040201008040201080402010102BA
:1002300004081020408001020408102040800000C3
:100240000A0B02090C0D0E08070304010000000050
:10025000000000000000000000000000000000009E
:10026000000000000000000000001211100000005B
:10027000000000000000000000000000000000007E
:10028000000000001512361B11241FBECFEFD1E273
:10029000DEBFCDBF00E00CBF29E0AAEBB5E001C096
:1002A0001D92A539B207E1F715E0A0E0B2E0ECEF4E
:1002B000FCE300E00BBF02C007900D92AA3BB10720
:1002C000D9F711E0C3E4D1E000E006C021970109AD
:1002D000802FFE010E94211CC234D10780E0080754
:1002E000A9F70E947A120C946C1E0C9400008CBD2D
:1002F0009DBD0895FC01538D448D252F30E0842F42
:1003000090E0821B930B541710F0CF96089501973D
:100310000895FC01918D828D981761F0A28DAE0F2A
:10032000BF2FB11D5D968C91928D9F5F9F73928FB1
:1003300090E008958FEF9FEF0895FC01918D828DDD
:10034000981731F0828DE80FF11D858D90E00895AA
:100350008FEF9FEF0895FC01918D228D892F90E002
:10036000805C9F4F821B91098F7399270895FC0130
:10037000A48DA80FB92FB11DA35ABF4F2C91848D06
:1003800090E001968F739927848FA689B7892C9363
:10039000A089B1898C91837080648C93938D848DB6
:1003A000981306C00288F389E02D80818F7D8083B9
:1003B0000895EF92FF920F931F93CF93DF93EC0179
:1003C00081E0888F9B8D8C8D98131AC0E889F989FC
:1003D000808185FF15C09FB7F894EE89FF896083FF
:1003E000E889F98980818370806480839FBF81E080
:1003F00090E0DF91CF911F910F91FF90EF900895C2
:10040000F62E0B8D10E00F5F1F4F0F731127E02E9C
:100410008C8D8E110CC00FB607FCFACFE889F989D4
:10042000808185FFF5CFCE010E94B701F1CFEB8D22
:10043000EC0FFD2FF11DE35AFF4FF0829FB7F894A8
:100440000B8FEA89FB8980818062CFCFCF93DF93C6
:10045000EC01888D8823B9F0AA89BB89E889F989DC
:100460008C9185FD03C0808186FD0DC00FB607FC11
:10047000F7CF8C9185FFF2CF808185FFEDCFCE0144
:100480000E94B701E9CFDF91CF91089580EC98E009
:100490000E94AB0121E0892B09F420E0822F08950E
:1004A00080E090E0892B29F00E94460281110E9491
:1004B000000080E090E0892B49F080E090E0892BFB
:1004C00029F00E94000081110E94000080E090E06D
:1004D000892B49F080E090E0892B29F00E940000F0
:1004E00081110E94000080E090E0892B49F080E0BB
:1004F00090E0892B29F00E94000081110C940000EB
:1005000008958150823108F05AC0E82FF0E0882722
:10051000E357FD4F8F4F0C94211CAD02B1029F0297
:10052000A502A902DF02B402BA02BE02C402C802D6
:10053000CC02D202D602DF02DA02E002E4028091AB
:1005400080008F77809380000895809180008F7D58
:10055000F9CF80918000877FF5CF84B58F7784BDF8
:10056000089584B58F7DFBCF8091B0008F77809305
:10057000B00008958091B0008F7DF9CF80919000F8
:100580008F77809390000895809190008F7DF9CFB0
:1005900080919000877FF5CF8091A0008F77809326
:1005A000A00008958091A0008F7DF9CF8091A000D8
:1005B000877FF5CF809120018F7780932001089568
:1005C000809120018F7DF9CF80912001877FF5CF29
:1005D000CF93DF93282F30E0F901E25CFD4F849147
:1005E000F901E850FE4FD491F901EE54FE4FC49149
:1005F000CC23A1F081110E948102EC2FF0E0EE0FDC
:10060000FF1FE856FE4FA591B491EC91ED2381E0D8
:1006100090E009F480E0DF91CF91089580E090E0D0
:10062000FACF1F93CF93DF93282F30E0F901E25CDC
:10063000FD4F8491F901E850FE4FD491F901EE5439
:10064000FE4FC491CC23A9F0162F81110E94810284
:10065000EC2FF0E0EE0FFF1FE258FE4FA591B49192
:100660008FB7F894EC91111108C0D095DE23DC937C
:100670008FBFDF91CF911F910895DE2BF8CFCF93DD
:10068000DF9390E0FC01E850FE4F24918E549E4F82
:10069000FC0184918823C9F090E0880F991FFC0128
:1006A000EC59FE4FA591B491FC01E258FE4FC59163
:1006B000D49161110DC09FB7F8948C91209582233D
:1006C0008C938881282328839FBFDF91CF91089541
:1006D000623051F49FB7F8943C91822F8095832328
:1006E0008C93E8812E2BEFCF8FB7F894EC912E2BC3
:1006F0002C938FBFEACF3FB7F89480913607909143
:100700003707A0913807B091390726B5A89B05C0D7
:100710002F3F19F00196A11DB11D3FBFBA2FA92F80
:10072000982F8827BC01CD01620F711D811D911D7D
:1007300042E0660F771F881F991F4A95D1F70895E9
:100740008F929F92AF92BF92CF92DF92EF92FF92E1
:100750004B015C010E947B036B017C010E947B03C7
:100760006C197D098E099F09683E734081059105CA
:10077000A8F321E0821A9108A108B10888EEC80EFA
:1007800083E0D81EE11CF11C81149104A104B10482
:1007900029F7FF90EF90DF90CF90BF90AF909F90A0
:1007A0008F9008952FB7F8946091320770913307B6
:1007B00080913407909135072FBF0895AF92BF9273
:1007C000CF92DF92EF92FF920F931F93CF93DF931D
:1007D0006C017B018B01040F151FEB015E01AE184C
:1007E000BF08C017D10759F06991D601ED91FC916E
:1007F0000190F081E02DC6011995892B79F7C5018B
:10080000DF91CF911F910F91FF90EF90DF90CF90EC
:10081000BF90AF900895FC01448155816081718142
:100820008DE599E00C94DE03BC016E5F7F4FDC0127
:10083000ED91FC910190F081E02D40E0199591E05F
:10084000811190E0892F089508958EBD00000DB4A8
:1008500007FEFDCF8EB50895DF92EF92FF920F93C2
:100860001F93CF93DF937C01062FD42E152F80E5A5
:1008700090E00E94770160E0F70186850E941103F5
:1008800082E10E942504CD2DD12F0C0F1D2F111DAB
:10089000C017D10721F089910E942504F9CF61E0AA
:1008A000F7018685DF91CF911F910F91FF90EF9017
:1008B000DF900C9411031F93CF93DF93EC01162F5D
:1008C00080E590E00E94770160E08E850E94110330
:1008D000812F80680E94250480E00E942504182F43
:1008E00061E08E850E941103812FDF91CF911F91CE
:1008F00008950F931F93CF93DF93EC01062F142FCE
:1009000080E590E00E94770160E08E850E941103EF
:10091000802F0E942504812F0E94250461E08E858E
:10092000DF91CF911F910F910C941103CF9361E050
:1009300080918F090E943F0361E080918F090E949E
:100940001103809190098F3F09F46AC060E00E9412
:100950003F03809190090E94E802892B09F060C052
:1009600061E0809190090E943F0360E080919009CE
:100970000E94110383E090E00197F1F761E080911C
:1009800090090E94110362E370E080E090E00E9411
:10099000A00340E064E281E899E00E94790440E02D
:1009A00066E281E899E00E94790446E268E481E821
:1009B00099E00E94790440E864E581E899E00E94AA
:1009C000790449EA66E581E899E00E94790443E008
:1009D00068E581E899E00E94790448EE6AE581E8DB
:1009E00099E00E94790440E46AE281E899E00E947B
:1009F00079044DE362E281E899E00E94790468E2BB
:100A000081E899E00E945B04982F93709330F9F08D
:100A1000482F436068E281E899E0CF910C94790413
:100A20004FE062E081E899E00E947904C3E062E36C
:100A300070E080E090E00E94A00362E081E899E02D
:100A40000E945B0484FFA5CFC15089F7A2CFCF914C
:100A50000895CF92DF92EF92FF920F931F93CF935F
:100A6000DF93EC016B01F42E890140E062E00E940B
:100A7000790444E06AE0CE010E94790440E864E130
:100A8000CE010E947904A6016F2DCE010E942C0494
:100A900043E062E0CE010E9479040E94D2036B0120
:100AA0007C0129E5C20ED11CE11CF11C6AE0CE01DB
:100AB0000E945B0482FF1BC040E062E0CE010E9406
:100AC000790464E4CE010E945B04F801808362E44F
:100AD000CE010E945B04F801818380E0DF91CF9119
:100AE0001F910F91FF90EF90DF90CF9008950E949B
:100AF000D2036C157D058E059F05C0F283E0EECF15
:100B00002F923F924F925F926F927F928F929F921D
:100B1000AF92BF92CF92DF92EF92FF920F931F930B
:100B2000CF93DF931F921F92CDB7DEB73C01162FF4
:100B3000942E290180E0A114B10411F0F501808107
:100B4000382C329490EF3922380E40E062E0C30135
:100B50000E9479044FE768E0C3010E94790440E8ED
:100B600064E1C3010E947904A201602FC3010E94C5
:100B70002C04432D6AE1C3010E947904412F62E0F5
:100B8000C3010E9479041C3051F46AE1C3010E9440
:100B90005B04482F40686AE1C3010E9479040E9407
:100BA000D2031B012C01F4E22F0E311C411C511CFD
:100BB00068E0C3010E945B04982F992109F0B6C038
:100BC00080FF16C083E00F900F90DF91CF911F91AF
:100BD0000F91FF90EF90DF90CF90BF90AF909F90DC
:100BE0008F907F906F905F904F903F902F900895DF
:100BF0000E94D2036215730584059505C8F2E2CF01
:100C0000E114F10409F467C0C114D10409F463C00C
:100C100064E1C3010E945B04982EF601808189156E
:100C200008F47EC090829920C9F180E590E00E948E
:100C3000770160E0F30186850E9411039A9482E9AE
:100C40000E942504882099F00FEF10E001C0000FEA
:100C50008A94EAF782E90E942504902F9095F70183
:100C6000208192238023982B90838824839487016A
:100C7000080D111D891440F482E90E942504F80131
:100C800081938F018394F6CF80E00E942504F801C0
:100C9000808361E0F30186850E94110368E1C3014E
:100CA0000E945B048770A114B10411F0F5018083E8
:100CB00053FC38C0E114F104B9F1C114D104A1F11D
:100CC000988D992389F1F6014081413031F48430C7
:100CD00029F58FEF78CF80E0EBCF4230F8F081112B
:100CE0001DC042509E012F5F3F4FB701C3010E94BC
:100CF0002905811168CFF6019081E90EF11CF701F9
:100D0000329720819981291309C0F1E0EF1AF10887
:100D1000F70120819A81291709F455CF87E053CF35
:100D200084E051CF82E04FCF80E04DCF6CE0C30133
:100D30000E945B04582E837109F462CF81E043CF97
:100D40008F92AF92BF92CF92DF92EF92FF920F936A
:100D5000CF93DF93CDB7DEB72C970FB6F894DEBFF5
:100D60000FBECDBF80E6898387E08A83EAEBF8E097
:100D7000DE01139681918D9388E0E03CF807D1F76E
:100D8000E0918309E150FF0BEF57F64FDE01199612
:100D9000CE010D9621912D93A817B907D9F71F926F
:100DA000812CB12CA12CD12CC12CF12CE12C0CE0EC
:100DB0009E012F5F3F4F40E16EE081E899E00E9485
:100DC00080050F902C960FB6F894DEBF0FBECDBFF6
:100DD000DF91CF910F91FF90EF90DF90CF90BF9078
:100DE000AF908F9008956F927F928F92AF92BF9243
:100DF000CF92DF92EF92FF920F931F93CF93DF93E7
:100E000000D01F92CDB7DEB73C0180E589831A82FE
:100E10009E012D5F3F4F42E0BE016F5F7F4FC301D8
:100E20000E942905182F811118C01F92812CB12C06
:100E3000A12CD12CC12CF12CE12C04E09E012F5FC0
:100E40003F4F40E36CE0C3010E9480050F90833068
:100E500021F0182F811101C011E0812F0F900F9008
:100E60000F900F90DF91CF911F910F91FF90EF9016
:100E7000DF90CF90BF90AF908F907F906F9008954C
:100E80000F931F93CF93DF938C01D62FC42F0E9413
:100E90005B04C0954C2F48236D2FC801DF91CF9183
:100EA0001F910F910C9479046F927F928F92AF9261
:100EB000BF92CF92DF92EF92FF920F93CF93DF9387
:100EC00000D01F921F92CDB7DEB73C0182E08D8328
:100ED00040E064E2C3010E94790440E066E2C3019D
:100EE0000E94790446E268E4C3010E94790486E224
:100EF0008B838D818230C8F140E86CE1C3010E9490
:100F0000400787E08C831F92812CCE0104965C0100
:100F100001966C0104977C0101E09E012D5F3F4F1B
:100F200040E36CE0C3010E948005982F0F9081116F
:100F300019C08D818230C9F48C81811116C081E085
:100F40000F900F900F900F900F90DF91CF910F9116
:100F5000FF90EF90DF90CF90BF90AF908F907F90F9
:100F60006F90089581E0923059F380E0E9CF2F929D
:100F70003F924F925F926F927F928F929F92AF9229
:100F8000BF92CF92DF92EF92FF920F931F93CF9376
:100F9000DF93CDB7DEB72E970FB6F894DEBF0FBE46
:100FA000CDBF06E0413508F046C14E873B012C011C
:100FB00040E86CE10E94400783E989832E85222363
:100FC00029F081E0F3019081953008F480E09924C4
:100FD00093941C869C85990F990F990F1E85191B58
:100FE00017FD10E032E0882319F098E89B8333E086
:100FF00021E0912F977009F420E0912F9595959518
:101000009595290FD1F094E0811193E0291708F408
:10101000922F2C85E22FF0E03196E60DF71D232F5D
:101020004191A1E0B0E0AC0FBD1FA20FB11D4C93E8
:101030002F5F422F431B491798F38111185F10321D
:101040000CF484C080E78A838B819C8189279D81F1
:1010500089279E8189278F839E01285F3F4F47E024
:10106000BE016F5F7F4FC2010E942905082F8111C9
:10107000E2C01A8693E09B871D87FE0137961F0109
:1010800009E08A84482D4295407F480D6AE1C201FB
:101090000E9479041F92CE010A965C01FE013B96E4
:1010A0006F0171019E012F5F3F4F40E36CE0C20171
:1010B0000E948005082F0F90823009F065C06CE116
:1010C000C2010E945B0485FDB6C08F7109F480E205
:1010D000282F30E0412F110F550B421753070CF00A
:1010E0009EC0182FE22FE595E595E595EF5F922FCD
:1010F000977081E009F480E0E80F81E090E08C0FC8
:101100009D1F8E0F911DFC0121503109277033273F
:1011100081E090E002C0880F991F2A95E2F79C01B8
:101120008081822B80838BCF85E98983FE85FF2395
:1011300031F081E0F3019081983008F04BCF80E0EE
:1011400049CF87E98983F6E0FC87F9CF912F977023
:101150009A87812F8595859585958E5F282F229575
:10116000207F290F2A8301E0911101C000E0080FC0
:1011700022242394312C2C0E3D1E280E311CF9E024
:10118000F81BFB871D877DCF811155C010E29D851F
:1011900090320CF457CF8B81883809F042C083E03D
:1011A00093E02C85E22FF0E03196E60DF71D980FC5
:1011B000A1E0B0E0AC0FBD1FA80FB11D2C91219391
:1011C0008F5F8913F5CF8B858C87833009F04DC0F5
:1011D0008A8581114AC09E012D5F3F4F41E0B101D8
:1011E000C2010E942905082F811125C09B81F101B0
:1011F000818198133CC09C818281981338C0808182
:1012000082FF12C09394F2E09F1609F48DCF23E081
:10121000921609F496CF81E0981609F4CDCE05E038
:101220000AC082E094E0BDCFF3018387892D880F47
:10123000980E93949082802F2E960FB6F894DEBF6E
:101240000FBECDBFDF91CF911F910F91FF90EF9017
:10125000DF90CF90BF90AF909F908F907F906F90D6
:101260005F904F903F902F90089501E0E4CF07E00A
:10127000E2CF089590E080E0089561E085E20E9469
:10128000110361E086E20C9411031F93CF93DF9367
:10129000182FC82FD0E0BE0186E0759567958A9516
:1012A000E1F761708EE10E941103BE0195E0759532
:1012B00067959A95E1F761708FE10E941103BE0175
:1012C00024E0759567952A95E1F7617080E20E94A8
:1012D0001103BE0133E0759567953A95E1F76170AA
:1012E00081E20E941103BE0175956795759567951A
:1012F000617082E20E941103D595C7956C2F6170D1
:1013000083E20E941103612F617084E2DF91CF912B
:101310001F910C941103CF93DF93EC0160E08E8159
:101320000E94110361E08E810E94110360E08E81B2
:101330000E9411038BE891E00197F1F7DF91CF91C3
:101340000895CF92DF92EF92FF920F931F93CF9366
:10135000DF936C017C0187E0E80EF11CD0E0C0E077
:10136000062F10E0B8010C2E02C0759567950A94FF
:10137000E2F76170F70181917F010E9411032196CC
:10138000C430D10579F7C601DF91CF911F910F913C
:10139000FF90EF90DF90CF900C948B09CF92DF926B
:1013A000EF92FF920F931F93CF93DF93EC01F62EF2
:1013B000642F8C810E9411038D818F3F19F060E0B2
:1013C0000E9411030F2D10E08F8584FF25C06E0150
:1013D00087E0C80ED11CF12CE12CB8010E2C02C004
:1013E000759567950A94E2F76170F60181916F0136
:1013F0000E941103FFEFEF1AFF0A88E0E816F104DC
:1014000061F7CE01DF91CF911F910F91FF90EF9087
:10141000DF90CF900C948B09B80184E075956795A7
:101420008A95E1F7CE010E94A1096F2DCE01DF91CF
:10143000CF911F910F91FF90EF90DF90CF900C9480
:10144000A10940E0682F8DE599E00C94CE0981E078
:101450000E94210A8BE39FE10197F1F70895CF9352
:10146000DF93823029F490916C09986090936C0915
:10147000809370091092710980E48093720980E171
:101480008093730980E58093740961E0809161091C
:101490000E943F03809162098F3F19F061E00E9432
:1014A0003F0361E0809163090E943F03CDE5D9E0ED
:1014B0009E012D55394080916C0984FD0BC084E05C
:1014C00090E021962817390744F461E08E810E944C
:1014D0003F03EECF88E090E0F4CF8BE39DE00197EF
:1014E000F1F760E0809161090E94110360E0809152
:1014F00063090E941103809162098F3F19F060E037
:101500000E94110380916C0984FD34C063E08DE575
:1015100099E00E94A109CBE4D6E4CE010197F1F74E
:1015200063E08DE599E00E94A1092197F1F763E05E
:101530008DE599E00E94A10983E592E00197F1F71A
:1015400062E08DE599E00E94A10980916C098062BA
:101550000E94210A84E080936D098CE00E94210A98
:101560000E94270A82E080936E0986E0DF91CF9186
:101570000C94210A80620E94210A8BE496E4019770
:10158000F1F780916C0980620E94210A83E592E064
:101590000197F1F780916C0980620E94210AD5CFF2
:1015A00090917009691710F06FEF690FE62FF0E066
:1015B000E35AF64F9489890F80680C94210A41E020
:1015C0000E94CE0981E090E008958F929F92AF92A1
:1015D000BF920F931F93CF93DF93CDB7DEB7A19741
:1015E0000FB6F894DEBF0FBECDBF19A2423008F48B
:1015F0004AE08E010F5D1F4F842E912CB12CA12C3F
:10160000A50194010E94FF1BE62FB901CA01EA302F
:1016100044F5E05DD801EE938D01232B242B252B7F
:1016200079F790E080E0109769F0FD0101900020CB
:10163000E9F73197AF014A1B5B0BBD018DE599E0DE
:101640000E94DE03A1960FB6F894DEBF0FBECDBF99
:10165000DF91CF911F910F91BF90AF909F908F908E
:101660000895E95CD7CFFC0101900020E9F731979C
:10167000AF01481B590BBC018DE599E00C94DE03CA
:101680008F92AF92BF92CF92DF92EF92FF920F9321
:10169000CF93DF93CDB7DEB764970FB6F894DEBF74
:1016A0000FBECDBF062FE62EF12CA701BC01CE0147
:1016B00001960E94531E21E030E02C0F3D1F2E0D9D
:1016C0003F1D402FBE016F5F7F4F81E899E00E9470
:1016D0002905811123C082E18C8B1B8A0E5F1F922A
:1016E000812CCE0143965C0101966C0143977C01ED
:1016F0009C0140E36CE081E899E00E9480050F9036
:1017000081110CC08C898130D1F48B898430B9F47B
:1017100081E099819A3009F480E0819564960FB652
:10172000F894DEBF0FBECDBFDF91CF910F91FF9038
:10173000EF90DF90CF90BF90AF908F90089581E0B1
:10174000EDCFFC0124813581232B39F421E0FB010D
:101750008081882349F020E007C0808191810E9428
:101760005C1E21E0892BB9F7822F0895CF93DF9378
:10177000FC01C081D181209761F08991882349F0D3
:10178000082E000C990B0E944B1EFE01319780839E
:10179000F4CFDF91CF9108950F931F93CF93DF93F1
:1017A000EC0188819981009759F02A813B812617A5
:1017B000370730F081E0DF91CF911F910F910895AD
:1017C0008B016F5F7F4F0E946A1D009759F09983CC
:1017D00088831B830A832C813D81232B59F7FC01CD
:1017E0001082E8CF80E0E7CFEF92FF920F931F9334
:1017F000CF93DF936115710541F480E0DF91CF91C4
:101800001F910F91FF90EF90089541155105B1F090
:101810007B01EC010C811D81040F151FB8010E9492
:10182000CC0B882351F3288139818C819D81B701AC
:10183000820F931F0E94651E1D830C8381E0DECF03
:10184000FB0101900020E9F73197AF01461B570BD0
:101850000C94F40BCF93DF93EC018881998100976E
:1018600011F00E94E11C198218821D821C821B82C9
:101870001A82DF91CF910895CF93DF93EC01FB01A2
:1018800001900020E9F73197AF01461B570B0E94EA
:10189000F40B811103C0CE010E942A0CCE01DF910E
:1018A000CF910895CF93DF93EC01FB0144815581E3
:1018B000608171810E94F40B811103C0CE010E94EE
:1018C0002A0CCE01DF91CF910895EF92FF920F93F2
:1018D0001F93CF93DF93EC017B018A01BA010E9431
:1018E000CC0B81110BC0CE010E942A0CCE01DF91DE
:1018F000CF911F910F91FF90EF9008951D830C835E
:10190000B701888199810E94651EF0CFFB0101908B
:101910000020E9F73197AF01461B570B0C94650C7B
:101920000F931F93CF93DF93CDB7DEB762970FB6B8
:10193000F894DEBF0FBECDBF8C01CB01F801118240
:10194000108213821282158214824AE0BE016F5FF8
:101950007F4F0E94651BBE016F5F7F4FC8010E94D1
:10196000860C62960FB6F894DEBF0FBECDBFDF9136
:10197000CF911F910F910895CF93DF93EC01FB015D
:101980008617970749F0608171816115710541F0F3
:10199000448155810E94650CCE01DF91CF9108955D
:1019A0000E942A0CF9CFFC0111821082138212824C
:1019B000158214820C94BC0CFC01118210821382DB
:1019C0001282158214826115710551F0FB0101909C
:1019D0000020E9F73197AF01461B570B0C94650CBB
:1019E0000895FC0180819181009711F00C94E11C15
:1019F00008958F929F92AF92BF92CF92DF92EF9213
:101A0000FF920F931F93CF93DF93CDB7DEB7679706
:101A10000FB6F894DEBF0FBECDBF7C0180914607A4
:101A2000811109C06BEA73E080E497E00E94DC0C4E
:101A300081E080934607F70101900020E9F7319794
:101A40008F010E191F09B701CE0142960E94DC0CCE
:101A5000CE0142960E94B60BEA88FB88209144078B
:101A6000309145078E899F8928173907E9F48091BD
:101A7000400790914107009751F0E114F10409F0FB
:101A80008CC0232B31F1FC01808190E00BC0E1146C
:101A9000F104F9F0232BE9F0F701808190E09195B2
:101AA00081959109892BA9F010923F0710923E076A
:101AB0000E94D20360933A0770933B0780933C07E0
:101AC00090933D07BE016E5E7F4F80E497E00E94D9
:101AD000BC0C0E94D20380903A0790903B07A090E4
:101AE0003C07B0903D07681979098A099B09643F52
:101AF000714081059105D0F10E94D20360933A07AD
:101B000070933B0780933C0790933D0720913E07DD
:101B100030913F07CE0101966C015E0191E1A90E63
:101B2000B11CF6012C193D09C9018E0F9F1FB80188
:101B30000E94EB1BD701A80FB91F8C918193AE16A1
:101B4000BF0691F7198A61E080E00E94D00AC601C1
:101B50000E94330B80913E0790913F070196B80198
:101B60000E94EB1B90933F0780933E07CE01429665
:101B70000E94F10C67960FB6F894DEBF0FBECDBF82
:101B8000DF91CF911F910F91FF90EF90DF90CF9059
:101B9000BF90AF909F908F900895B7010E945C1EF8
:101BA00081CF80E497E00C94F10C4F925F926F929A
:101BB0007F928F929F92AF92BF92CF92DF92EF92DD
:101BC000FF920F931F93CF93DF93CDB7DEB7E397C9
:101BD0000FB6F894DEBF0FBECDBF8C010E94270A5E
:101BE00065EB72E0CE018E960E94DC0C28E1209F0E
:101BF000C001219F900D11249C012E5A384F79016C
:101C000035E8C32E32E0D32E4DE7A42E42E0B42EA9
:101C1000412C512C320110E000E0F701E00FF11FE0
:101C200080809180181419040CF05CC065EB72E0A0
:101C3000CE018E960E94A10B811106C067EB72E067
:101C4000CE018E960E94200CD601ED91FC91E00F02
:101C5000F11F60817181CE0188960E94DC0CCE015B
:101C600088960E94B60BB401CE0101960E94900C9A
:101C7000BE01685D7F4FCE0182960E94D30C62EF59
:101C800073E0CE0182960E943C0CBE016F5F7F4FD5
:101C90000E94520CFC014481558160817181CE010A
:101CA0008E960E94F40BCE0182960E94F10CCE011A
:101CB00001960E94F10CD501ED91FC91C801880FAD
:101CC000991FE80FF91F2081318142815381D4018E
:101CD0000E94291C460E571E681E791ECE0188964A
:101CE0000E94F10C0E5F1F4F0630110509F095CFD1
:101CF000B6E0EB0EF11CE2E0CE0ED11CF2E0AF0E2E
:101D0000B11C2DE8C21622E0D20609F084CF60EDA6
:101D100072E0CE018E960E94200C6BEB72E0CE0139
:101D20008E960E94A10B882331F06EEB72E0CE01FB
:101D30008E960E94860CBE01625D7F4F8BE799E014
:101D40000E94BC0C1BA21AA21DA21CA21FA21EA2B2
:101D50002AE0AE014F5F5F4FC301B2010E94851BB5
:101D6000BE016F5F7F4FCE0182960E94860C62EDAE
:101D700072E0CE0101960E94DC0CBE016E5D7F4FC9
:101D8000CE0101960E94520CBC01CE0188960E94A1
:101D9000D30CCE0101960E94F10CCE0182960E94D6
:101DA000F10CCE0188960E94B60B60E080E00E94A4
:101DB000D00ACE0188960E940B0440924E075092A2
:101DC0004F076092500770925107CE0188960E948B
:101DD000F10CCE018E960E94F10CE3960FB6F894AA
:101DE000DEBF0FBECDBFDF91CF911F910F91FF904E
:101DF000EF90DF90CF90BF90AF909F908F907F90AB
:101E00006F905F904F900895BF92CF92DF92EF92C4
:101E1000FF920F931F93CF93DF93CDB7DEB76297F7
:101E20000FB6F894DEBF0FBECDBF8B017A01C09014
:101E30001F02D090200290ED980F2FEFC216D2060D
:101E400009F04BC09330C8F5082E000C990BC097D1
:101E50009093200280931F02880F991FFA01E80FC8
:101E6000F91F60817181CE0101960E94DC0CCE01C8
:101E700001960E94B60B0E94270A60E080E00E9453
:101E8000D00ACE0101960E940B0461E080E00E941E
:101E9000D00A8BED92E00E94330B6BEA73E085E78A
:101EA00099E00E94860C6BEA73E08BE799E00E9450
:101EB000860CCE0101960E94F10C62960FB6F89442
:101EC000DEBF0FBECDBFDF91CF911F910F91FF906D
:101ED000EF90DF90CF90BF9008959A30A0F489835F
:101EE0001A8241E050E0BE016F5F7F4F85E799E0C5
:101EF0000E94F40B61E089E00E94D00A85E799E036
:101F00000E940B04DACF8D33C1F680917509909150
:101F10007609009709F4B6C00E943E1B16161706F4
:101F20000CF0B4C080911D0290911E028F3091057B
:101F300008F0ACC023E0C216D10408F0A7C0980195
:101F4000220F331F020F131F5CE0B52EB89ED00185
:101F5000B99EB00D1124A00FB11FAC0DBD1DAA0F6D
:101F6000BB1FFD01EE5AF84F80819181860F971FAC
:101F700091838083A554BA4F8D919C911197680FDE
:101F8000791F6D937C93CC0CDD1CF701EC0DFD1DCE
:101F900060817181CE0101960E94DC0CCE01019618
:101FA0000E94B60B0E94270A60E080E00E94D00ADF
:101FB00085EE92E00E94330B61E080E00E94D00A3F
:101FC00080911D0290911E02B89EF001B99EF00D05
:101FD0001124E00FF11F00911F0210912002E00F69
:101FE000F11FEE0FFF1FEE5AF84F60817181CE0195
:101FF00007960E94900CBE01695F7F4FCE010D963F
:102000000E94D30C6AEA73E0CE010D960E943C0C4C
:10201000BE016F5F7F4F0E94520C0E940B04CE01E5
:102020000D960E94F10CCE0107960E94F10C6CED0A
:1020300075E080E090E00E94A003CE0101960E942E
:10204000F10C8FEF9FEF9093200280931F026BEAB9
:1020500073E085E799E00E94860C109222021092AC
:1020600021026EEF72E08BE799E00E94860C0E94DD
:10207000270A60E080E00E94D00A8EE293E00E948E
:10208000330B1BCF60E070E0CB0148CF0E94270AE2
:1020900060E080E00E94D00A8FEE92E00E94330B55
:1020A00068EE73E080E090E00E94A003CACF8F92B8
:1020B0009F92AF92BF92CF92DF92EF92FF920F93D7
:1020C0001F93CF93DF93CDB7DEB768970FB6F89421
:1020D000DEBF0FBECDBF5C010E94270A6BEA73E032
:1020E000CE0143960E94DC0C88E18A9D80018B9D85
:1020F000100D112405541A4F85E8C82E82E0D82E01
:10210000F12CE12CF801EE0DFF1D80809180181458
:1021100019040CF049C06BEA73E0CE0143960E94AB
:10212000A10B811106C067EB72E0CE0143960E94BD
:10213000200CD601ED91FC91EE0DFF1D60817181A7
:10214000CE0101960E94DC0CCE0101960E94B60BD6
:10215000B401CE010D960E94900CBE016F5F7F4FBF
:10216000CE0107960E94D30C62EF73E0CE01079672
:102170000E943C0CBE01635F7F4F0E94520CFC0129
:102180004481558160817181CE0143960E94F40B98
:10219000CE0107960E94F10CCE010D960E94F10C23
:1021A000CE0101960E94F10CF2E0EF0EF11C86E0E8
:1021B000E816F10409F0A6CF0A5F1F4FA2E0CA0E8D
:1021C000D11CBDE8CB16B2E0DB0609F099CF60E088
:1021D00080E00E94D00AB501CE0107960E94900CC3
:1021E00067E373E0CE0101960E94DC0CBE01695FDB
:1021F0007F4FCE0101960E94520C0E940B04CE012B
:1022000001960E94F10CCE0107960E94F10C61E04C
:1022100080E00E94D00A6BEA73E0CE0143960E94F0
:10222000A10B882331F06DE373E0CE0143960E9449
:10223000200CBE016D5E7F4F8BE799E00E94BC0CC5
:10224000CE0143960E94F10C68960FB6F894DEBF5B
:102250000FBECDBFDF91CF911F910F91FF90EF90F7
:10226000DF90CF90BF90AF909F908F9008951F9276
:102270000F920FB60F9211242F933F938F939F933A
:10228000AF93BF938091320790913307A0913407A9
:10229000B09135073091310723E0230F2D3758F5E2
:1022A0000196A11DB11D20933107809332079093B1
:1022B0003307A0933407B093350780913607909188
:1022C0003707A0913807B09139070196A11DB11DBC
:1022D0008093360790933707A0933807B093390758
:1022E000BF91AF919F918F913F912F910F900FBE12
:1022F0000F901F90189526E8230F0296A11DB11D7F
:10230000D2CF1F920F920FB60F9211240BB60F92DD
:102310002F933F934F935F936F937F938F939F93ED
:10232000AF93BF93EF93FF9380EC98E00E94B701C7
:10233000FF91EF91BF91AF919F918F917F916F919D
:102340005F914F913F912F910F900BBE0F900FBE59
:102350000F901F9018951F920F920FB60F92112495
:102360000BB60F922F938F939F93EF93FF93E09170
:10237000D008F091D1088081E091D608F091D7087B
:1023800082FD1DC090818091D9088F5F8F7320914D
:10239000DA08821741F0E091D908F0E0E054F74FF5
:1023A000958F8093D908FF91EF919F918F912F91F5
:1023B0000F900BBE0F900FBE0F901F90189580814D
:1023C000F2CF1F920F920FB60F9211248F939F930B
:1023D0008091300791E089278093300790932F07F1
:1023E0009F918F910F900FBE0F901F9018951F9285
:1023F0000F920FB60F9211248F9381E080932C07D8
:102400008F910F900FBE0F901F9018951F920F92F3
:102410000FB60F9211248F9381E0809325078F913F
:102420000F900FBE0F901F901895E0ECF8E013820C
:10243000128288EE93E0A0E0B0E084839583A683C7
:10244000B78381E992E09183808385EC90E0958762
:10245000848784EC90E09787868780EC90E0918B6E
:10246000808B81EC90E0938B828B82EC90E0958B5B
:10247000848B86EC90E0978B868B118E128E138E58
:10248000148EE1E8F9E08FEA92E09183808385E39E
:10249000868786E187876BEA73E08BE799E00E9485
:1024A000DC0C6BEA73E085E799E00E94DC0CEDE55B
:1024B000F9E01382128283EA92E0918380838DE0B7
:1024C00084838FEF85838CE086838BE087838AE02B
:1024D000808789E0818788E0828787E0838786E03C
:1024E000848785E0858784E0868780E1878781E02F
:1024F0000C942F0ACF93DF93CDB7DEB76A970FB650
:10250000F894DEBF0FBECDBF789484B5826084BDE1
:1025100084B5816084BD85B5826085BD85B58160E7
:1025200085BD80916E00816080936E001092810065
:102530008091810082608093810080918100816020
:1025400080938100809180008160809380008091E1
:10255000B10084608093B1008091B000816080936D
:10256000B0008091910082608093910080919100F1
:1025700081608093910080919000816080939000B1
:102580008091A10082608093A1008091A100816070
:102590008093A1008091A00081608093A000809131
:1025A00021018260809321018091210181608093CB
:1025B00021018091200181608093200180917A0027
:1025C000846080937A0080917A00826080937A00A0
:1025D00080917A00816080937A0080917A0080688F
:1025E00080937A001092C10009E712E0F801F1909F
:1025F0008F0161E08F2D0E943F0361E08F2D0E94CB
:102600001103F2E00D371F0789F762E08EE30E94A5
:102610003F0362E08FE30E943F0362E080E40E9498
:102620003F0362E081E40E943F0380916800846080
:102630008093680080916D008F6080936D00789426
:1026400082E00E942F0A0E94270A60E080E00E9438
:10265000D00A8EE493E00E94330B90E080E0DC012E
:10266000AE5AB84FFC01E554FA4F30E020E0119625
:102670001C921E921182108213961C921E92129727
:102680001382128215961C921E9214971582148240
:102690002F5F3F4F169636962430310541F7489606
:1026A000883621E09207D9F662E083E00E943F037A
:1026B000E99A80916900886080936900809169003F
:1026C0008B7F8093690062E082E00E943F03E89A7A
:1026D00080916900826080936900809169008E7F9B
:1026E0008093690061E08EE10E943F0361E08FE129
:1026F0000E943F0361E080E20E943F0361E081E2CB
:102700000E943F0361E082E20E943F0361E083E2B6
:102710000E943F0361E084E20E943F0361E085E2A2
:102720000E943F0361E086E20E943F030E943D0950
:102730001FB7F8948091BA05811127C0E7EEF1E048
:102740008491EDE2F2E09491E82FF0E0EE0FFF1FAC
:10275000EC59FE4FA591B491EC91E92321F461E08D
:1027600085E30E94110361E085E30E943F038CB57D
:1027700080618CBD8CB580648CBD61E084E30E9477
:102780003F0361E083E30E943F038091BA058F5FBE
:102790008093BA051FBF62E370E080E090E00E9482
:1027A000A00361E086E10E943F0361E086E10E94B0
:1027B000110362E370E080E090E00E94A0030E94B9
:1027C000960462E370E080E090E00E94A0036EE671
:1027D00081E899E00E945B04182F0E94270A60E0BC
:1027E00080E00E94D00A8FEF810F8E3F08F481C0F5
:1027F0008BE593E00E94330B61E080E00E94D00AF9
:102800008AE693E00E94330B60ED77E080E090E091
:102810000E94A0038FEF8093BA088093BB08809337
:10282000BC088093BD088093BE088093BF080E94B7
:10283000270A60E080E00E94D00A89E793E00E94C6
:10284000330B68EE73E080E090E00E94A0030E94EA
:10285000270A66246A94762C16E1412E512CCE016B
:1028600005969A8F898F80913007882309F4C9C112
:1028700080912F078823A1F00E94270A70920102FD
:102880006092000210922707109226076BEA73E00D
:102890008BE799E00E94860C10922F071092250773
:1028A000C0900002D09001029FEFC916D90689F5A9
:1028B0000E94270A60E080E00E94D00A83E993E04A
:1028C0000E94330B61E080E00E94D00A8AE993E025
:1028D0000E94330B6BEA73E08BE799E00E94860C51
:1028E00010920102109200020E943D090E945002C3
:1028F000BACF87E893E00E94330B612F70E090E03D
:1029000080E040E10E94E50A68EE73E080E090E03C
:102910007FCF009126071091270780E090E00F30CD
:10292000110508F4C8016AE070E00E94EB1B7C010D
:10293000655A7D4FFB0180810E94450960E085E278
:102940000E94110361E086E20E94110365E070E0DD
:1029500080E090E00E94A003F701E55AFD4F8081DE
:102960000E94450961E085E20E94110360E086E271
:102970000E94110365E070E080E090E00E94A003F7
:10298000809125078823C1F0FAE0CF16D104A1F485
:10299000C80101966FE070E00E94EB1B909327073F
:1029A000809326070E9457101092250768EC70E06C
:1029B00080E090E00E94A0036BEA73E08BE799E06F
:1029C0000E94A10B811118C06BE779E0CE0101963E
:1029D0000E94D30C68EA73E0CE0101960E94200C9D
:1029E000CE0101960E94B60B89819A810E94F90C52
:1029F000CE0101960E94F10C61E086E30E94110372
:102A000061E087E30E94110361E088E30E94110303
:102A100061E089E30E9411030091230710912407CC
:102A2000F801E758FD4F60E080810E941103C80162
:102A3000019664E070E00E94EB1B90932407809362
:102A4000230780912C07882309F450CFF5E7CF2E78
:102A5000F2E0DF2EEE24EA94FE2C10E000E0F60116
:102A600081916F010E94E802892B09F478010F5FC0
:102A70001F4F0430110599F7E9E7AE2EE2E0BE2EB4
:102A80000FEF1FEFD12CC12CF50181915F010E9446
:102A9000E802892B09F48601FFEFCF1ADF0A24E050
:102AA000C216D10489F70F3F100709F41FCF9FEF1B
:102AB000E916F90609F41ACF000F111F000F111FB4
:102AC0000E0D1F1D10931B0200931A02E0911A02B3
:102AD000F0911B02EB59FD4F80818334E1F4709239
:102AE00001026092000210922707109226070E94AE
:102AF0003D0910922C07F701EB58FD4F1081812FF3
:102B00000E94E802892BD9F366E970E080E090E04A
:102B10000E94A003EBCE209100023091010221150A
:102B2000310509F45CC02A30310519F78D3309F7F6
:102B3000009126071091270788E1809FF001819F6F
:102B4000F00D1124E554FA4F90E080E011821082DC
:102B50001382128215821482019636968430910572
:102B6000A9F70E94270A60E080E00E94D00AB8011D
:102B7000CE0143960E94900C67E373E0CE0101966C
:102B80000E94DC0CBE016D5E7F4FCE0101960E945B
:102B9000520C0E940B04CE0101960E94F10CCE0152
:102BA00043960E94F10C61E080E00E94D00A8CEA1A
:102BB00093E00E94330B68EE73E080E090E00E94A7
:102BC000A003809126079091270701966FE070E09F
:102BD0000E94EB1B90932707809326070FC080333A
:102BE00009F087CF8AE090E0909301028093000281
:102BF000109227071092260790E080E00E9457105D
:102C000078CF0E943D0980912F07882319F10E94F7
:102C1000270A70922402609223027092220260922C
:102C200021026BEA73E08BE799E00E94860C7092B8
:102C3000200260921F026BEA73E085E799E00E9430
:102C4000860C70921E0260921D0281E080931C022D
:102C500010922F0780911C02882321F10E94270ADD
:102C600080912302909124028F3F980709F0DBC0E6
:102C700063EB73E0CE0101960E94DC0CCE0101965D
:102C80000E94B60BCE0101960E940B046FEB73E01D
:102C90008BE799E00E94860CCE0101960E94F10C10
:102CA00010921C026BEA73E08BE799E00E94A10B83
:102CB000811118C06BE779E0CE0101960E94D30C18
:102CC00068EA73E0CE0101960E94200CCE010196C5
:102CD0000E94B60B89819A810E94F90CCE0101965F
:102CE0000E94F10C61E086E30E94110361E087E33A
:102CF0000E94110361E088E30E94110361E089E30F
:102D00000E94110300912D0710912E07F801E7583A
:102D1000FD4F60E080810E941103C801019664E0CC
:102D200070E00E94EB1B90932E0780932D078091FB
:102D30002C07882309F4DACD55E7E52E52E0F52E6D
:102D400022242A94322C10E000E0F70181917F01C7
:102D50000E94E802892B09F418010F5F1F4F04300D
:102D6000110599F749E7C42E42E0D42E0FEF1FEF6B
:102D7000F12CE12CF60181916F010E94E802892B70
:102D800009F48701FFEFEF1AFF0A24E0E216F104CD
:102D900089F70F3F100709F4A9CD9FEF29163906CF
:102DA00009F4A4CD000F111F000F111F020D131DF8
:102DB00010931B0200931A02E0911A02F0911B0279
:102DC000EB59FD4F0081033409F050C00E94270ADF
:102DD0007092240260922302709222026092210279
:102DE0006BEA73E08BE799E00E94860C81E08093A8
:102DF0001C027092200260921F026BEA73E085E76A
:102E000099E00E94860C70921E0260921D02109240
:102E10002C07F101EB58FD4F1081812F0E94E80231
:102E2000892BD9F371CE009719F002970297B8F465
:102E300080911D0290911E02019689F467EE73E065
:102E4000CE0101960E94DC0CCE0101960E94B60BC9
:102E5000CE0101960E940B046BEA73E019CF6BEA76
:102E600073E08BE799E00E94860C1ACFE090230272
:102E7000F0902402EFEFEE16FE0609F05DC080ED43
:102E8000800F843020F6002E000C110B0053110926
:102E90001093240200932302F0921E02E0921D027E
:102EA0006BEA73E085E799E00E94860C6BEA73E0B9
:102EB0008BE799E00E94860C0115110589F41092A8
:102EC0002202109221020E94270A60E080E00E9404
:102ED000D00A87EE93E00E94330B10921C0297CF2A
:102EE00001301105D1F410932202009321020E94B7
:102EF000270A60E080E00E94D00A84EF93E00E94FD
:102F0000330B61E080E00E94D00A8DEF93E00E94D5
:102F1000330B81E080931C027ACF0230110529F433
:102F20001093220200932102CECF83E090E0909391
:102F3000220280932102C7CFE114F10429F0C701D6
:102F40000297029708F0C4C080911D0290911E0262
:102F5000019609F0BDC080ED800F8A30D8F48091D1
:102F6000790990917A09029708F051CF09831A8262
:102F700041E050E0BE016F5F7F4F85E799E00E941E
:102F8000F40B60E08CE00E94D00A85E799E00E9493
:102F90000B043DCF0D3309F03ACF80917509909124
:102FA0007609812C912C5401009719F00E943E1B48
:102FB0004B012FE08216910408F061C090921E022E
:102FC00080921D026BEA73E085E799E00E94860C0F
:102FD000E114F104F1F510922202109221020E94F4
:102FE000270A60E080E00E94D00A87E393E00E9415
:102FF000330BC0901D02D0901E020D2C000CEE0869
:10300000FF084AE0C701B601F7FE0EC041E06DE2DD
:103010008DE599E00E94CE0966277727CB016C19D0
:103020007D098E099F094AE00E94E50A61E080E07F
:103030000E94D00A8EE293E00E94330B64E670E0B7
:1030400080E090E00E94A0036EEF72E08BE799E0D1
:103050003CC082E0E816F10451F485E190E09093E1
:10306000220280932102C4010E94D50DD0CE93E0AC
:10307000E916F10409F0CBCE8FE190E0F0CF0E9489
:10308000270A60E080E00E94D00A87EE93E00E9469
:10309000330B61E080E00E94D00A8CE094E00E9453
:1030A000330B68EE73E080E090E00E94A0030E9482
:1030B000270A60E080E00E94D00A87EE93E00E9439
:1030C000330B6BEA73E085E799E00E94860C9FCE94
:1030D00080912102909122028E30910509F4ACC0BA
:1030E0000CF046C08A30910509F49CC094F5892BF8
:1030F00009F08DCE80ED800F843008F088CE0E94DC
:10310000270A60E080E00E94D00A6BEA73E08BE758
:1031100099E00E94860C023309F46AC0033309F473
:1031200074C0013309F453C086E194E00E94330B6C
:103130006FE174E08BE799E00E94860C8AE090E0F2
:1031400090932202809321027092200260921F02CB
:10315000B8CF8B30910509F46AC048E052E062E0D4
:1031600070E00D9709F053CE802F0E94040F4FCED0
:103170008631910509F465C0FCF4459709F047CE06
:103180000D3309F044CE50922202409221020E9457
:10319000270A60E080E00E94D00A8AEB94E00E9457
:1031A000330B61E080E00E94D00A85EC94E00E943D
:1031B000330B6BEA73E04ACF8731910509F480C085
:1031C0004F9709F024CE0D3309F021CE4CC080E496
:1031D00094E00E94330B6FE474E08BE799E00E9467
:1031E000860CEBE0F0E0F0932202E0932102ACCFFA
:1031F00083E794E00E94330B6BE774E08BE799E080
:103200000E94860C8DE090E09BCF86E293E00E94C6
:10321000330B6DE974E08BE799E00E94860CEEE0D9
:10322000F0E0E1CF44E152E070E060E09DCF4EE09D
:1032300052E061E070E098CF42E052E063E070E07D
:1032400093CF003319F50E94270A60E080E00E94C6
:10325000D00A8FEC94E00E94330B6CED75E080E0B7
:1032600090E00E94A0037092240260922302709268
:1032700022026092210270921E0260921D026BEA8D
:1032800073E08BE799E00E94860C43CE013309F08E
:10329000BECD87E190E090932202809321020E94AC
:1032A000270A60E080E00E94D00A8EED94E00E9440
:1032B000330B61E080E00E94D00A89EE94E077CF82
:1032C0000E94D203009128071091290720912A0714
:1032D00030912B07601B710B820B930B643F714085
:1032E0008105910508F493CD0E94D20360932807CD
:1032F0007093290780932A0790932B070E949604C6
:1033000081E899E00E945407882309F480CD62E3A4
:1033100070E080E090E00E94A00381E899E00E94C4
:103320001404882309F473CD0E94270A60E080E02A
:103330000E94D00A86EF94E00E94330B61E080E0A7
:103340000E94D00A82E095E00E94330B01E819E068
:10335000F8018381803120F487E095E00E94330BEF
:10336000F801638170E090E080E040E10E94E50AAE
:103370000F5F1F4F85E899E08017910749F76CEDC3
:1033800075E080E090E00E94A0030E94270A60E0C0
:1033900080E00E94D00A89E095E00E94330B64EF40
:1033A00071E080E090E00E94A00382E18B8B0E949C
:1033B000A006811140C062E370E080E090E00E94CE
:1033C000A0038B898231B8F180E3898314E01A83EA
:1033D0009E012D5F3F4F42E0BE016F5F7F4F81E84E
:1033E00099E00E942905811126C081E08F93812CEC
:1033F000B12CA12CFE0173966F01CE0101967C01C8
:1034000004E09C0140E36CE081E899E00E948005C3
:103410000F90811110C08B8190E0B0E0A0E0BA2F36
:10342000A92F982F8827EC80F12CE82AF92A9FEF02
:10343000E916F906C9F50E94270A60E080E00E94BB
:10344000D00A87E195E00E94330B61E080E00E94A2
:10345000D00A85E295E00E94330B60ED77E080E0D2
:1034600090E00E94A00381E899E00E94F30648E002
:1034700060E181E899E00E94400750922202409268
:1034800021020E94270A60E080E00E94D00A8AEBB5
:1034900094E00E94330B61E080E00E94D00A85EC4A
:1034A00094E00E94330BB3CC80914E0790914F076C
:1034B000A0915007B0915107E816F9067CF50E94DB
:1034C000270A60E080E00E94D00A8FE295E00E9427
:1034D000330B61E080E00E94D00AB701CE01439631
:1034E0000E94900C69ED72E0CE0101960E94DC0C06
:1034F000BE016D5E7F4FCE0101960E94520C0E946C
:103500000B04CE0101960E94F10CCE0143960E945D
:10351000F10C64EC79E080E090E0A3CFE81AF90ABE
:103520008CE0E98DFA8D11928A95E9F7990F880B55
:10353000982F8983990F880B982F8A83FB82EC82BE
:103540000E94A00681117BC062E370E080E090E001
:103550000E94A00380EA8B8B1C8B62E0CE01439615
:103560000E94400B81116BC060E1CE0101960E9468
:10357000400B811164C00E94270A60E080E00E9435
:10358000D00A8CE395E00E94330B61E080E00E945A
:10359000D00AB701CE0143960E94900C6AE475E010
:1035A000CE0101960E94DC0CBE016D5E7F4FCE0104
:1035B00001960E94520C0E940B04CE0101960E94BB
:1035C000F10CCE0143960E94F10C64EC79E080E0AE
:1035D00090E00E94A00380911D0290911E0228E1BC
:1035E000289FF001299FF00D1124EE5AF84F90E02A
:1035F00080E0118210821382128215821482019659
:10360000369684309105A9F70E94270A60E080E091
:103610000E94D00A82E595E00E94330B6CED75E0C4
:1036200080E090E00E94A00381E899E00E94F30608
:1036300048E060E181E899E00E94400714CE0E94D2
:10364000270A60E080E00E94D00A80E695E00E94B0
:10365000330B61E080E00E94D00A85E295E00E9491
:10366000330B60ED77E080E090E0DCCF85E799E018
:103670000E94F10C8BE799E00C94F10C1F93FC0174
:1036800099278827BC01E89411911032E9F3193089
:1036900010F01E30C8F31B3251F01D3249F468940B
:1036A00006C00E94701B610F711D811D911D11913B
:1036B00010531A30B0F33EF4909580957095619553
:1036C0007F4F8F4F9F4F1F910895BB274A3031F492
:1036D000992322F4BDE2909581959F4F0C94A81BED
:1036E000592F482F372F262F660F771F881F991FB6
:1036F000660F771F881F991F620F731F841F951F06
:10370000660F771F881F991F0895BB27FA01A62F00
:103710006217710581059105330B30FB66F0AA270E
:10372000660F771F881F991FAA1FA21710F0A21BF0
:1037300063953850A9F7A05DAA3308F0A95DA1935D
:1037400036F7B111B1931082CA010C94C11BBB278B
:10375000FB015527AA27880F991FAA1FA41710F04D
:10376000A41B83955051B9F7A05DAA3308F0A95D59
:10377000A193009779F7B111B1931192CB010C94F9
:10378000C11BDC01FC01672F71917723E1F73297B0
:1037900004C07C916D9370836291AE17BF07C8F32C
:1037A00008950E94DC1BA59F900DB49F900DA49FCF
:1037B000800D911D11240895A29FB001B39FC001F7
:1037C000A39F700D811D1124911DB29F700D811D4D
:1037D0001124911D089597FB072E16F4009407D02D
:1037E00077FD09D00E94311C07FC05D03EF490956E
:1037F00081959F4F0895709561957F4F0895A1E23F
:103800001A2EAA1BBB1BFD010DC0AA1FBB1FEE1F5A
:10381000FF1FA217B307E407F50720F0A21BB30BA5
:10382000E40BF50B661F771F881F991F1A9469F721
:1038300060957095809590959B01AC01BD01CF017D
:103840000895EE0FFF1F881F8BBF0790F691E02DA4
:103850001994B7FF0C94D11B0E94D11B821B930BB0
:103860000895AA1BBB1B51E107C0AA1FBB1FA617C7
:10387000B70710F0A61BB70B881F991F5A95A9F719
:1038800080959095BC01CD0108950F931F93CF9320
:10389000DF938230910510F482E090E0E09193098B
:1038A000F091940930E020E0B0E0A0E0309799F486
:1038B0002115310509F44AC0281B390B2430310584
:1038C000D8F58A819B816115710589F1FB0193838C
:1038D0008283FE0111C0408151810281138148170A
:1038E0005907E0F04817590799F4109761F01296BC
:1038F0000C93129713961C933296CF01DF91CF91C0
:103900001F910F9108950093930910939409F4CF98
:103910002115310551F04217530738F0A901DB0199
:103920009A01BD01DF01F801C1CFEF01F9CF9093FA
:10393000940980939309CDCFFE01E20FF31F819389
:1039400091932250310939832883D7CF209191094F
:1039500030919209232B41F42091270230912802C3
:1039600030939209209391092091250230912602EB
:103970002115310541F42DB73EB7409129025091F0
:103980002A02241B350BE0919109F0919209E2176C
:10399000F307A0F42E1B3F0B2817390778F0AC0172
:1039A0004E5F5F4F2417350748F04E0F5F1F50934F
:1039B000920940939109819391939FCFF0E0E0E0C9
:1039C0009CCFCF93DF930097E9F0FC0132971382ED
:1039D0001282A0919309B0919409ED0130E020E0AA
:1039E0001097A1F420813181820F931F20919109BA
:1039F000309192092817390709F061C0F0939209B4
:103A0000E0939109DF91CF910895EA01CE17DF0786
:103A1000E8F54A815B819E0141155105B1F7E90145
:103A2000FB83EA8349915991C40FD51FEC17FD0719
:103A300061F4808191810296840F951FE901998339
:103A40008883828193819B838A83F0E0E0E01296F1
:103A50008D919C9113970097B9F52D913C911197F9
:103A6000CD010296820F931F209191093091920906
:103A70002817390739F6309751F5109294091092AA
:103A80009309B0939209A0939109BCCFD383C283C9
:103A900040815181840F951FC817D90761F44E5F8B
:103AA0005F4F88819981480F591F518340838A81D4
:103AB0009B81938382832115310509F0B0CFF09368
:103AC0009409E09393099ECFFD01DC01C0CF1382DE
:103AD0001282D7CF4F925F926F927F928F929F9276
:103AE000AF92BF92CF92DF92EF92FF920F931F930C
:103AF000CF93DF938C01009799F4CB01DF91CF91A5
:103B00001F910F91FF90EF90DF90CF90BF90AF90FB
:103B10009F908F907F906F905F904F900C94451C7A
:103B2000FC01E60FF71F9C0122503109E217F30751
:103B300008F4AEC0D901CD91DC911197C617D70713
:103B400020F1C530D10578F0CE010497861797078C
:103B500050F0C61BD70B2297C193D1936D937C93E2
:103B6000CF010E94E11CC801DF91CF911F910F91FD
:103B7000FF90EF90DF90CF90BF90AF909F908F908D
:103B80007F906F905F904F9008955B01AC1ABD0AD3
:103B90004C018C0E9D1EA0919309B0919409512C5B
:103BA000412CF12CE12C109731F5809191099091E5
:103BB00092098815990509F05CC04616570608F069
:103BC00058C08091250290912602009741F48DB74C
:103BD0009EB74091290250912A02841B950BE81749
:103BE000F90708F055C0F0939209E0939109F901A3
:103BF00071836083B8CF8D919C91119712966C90D0
:103C0000129713967C901397A815B90559F56C0176
:103C100042E0C40ED11CCA14DB0420F1AC014A19E5
:103C20005B09DA011296159780F0628273825183E4
:103C30004083D9016D937C93E114F10471F0D701B5
:103C40001396FC93EE9312978ECF22968C0F9D1FA6
:103C5000F90191838083F301EFCFF0939409E0930E
:103C6000930981CF4816590608F42C017D01D30130
:103C70009ACFCB010E94451C7C01009749F0AE0110
:103C8000B8010E94531EC8010E94E11C87016BCF3E
:103C900010E000E068CF9111089581568A5108F430
:103CA000805285580895FB01DC0102C001900D92FD
:103CB00041505040D8F70895FB01DC018D910190EF
:103CC00080190110D9F3990B0895FB01DC010190D3
:103CD0000D920020E1F7089511E0C3E4D1E000E087
:103CE00006C0802FFE010E94211C2196011DC434B4
:0C3CF000D10780E00807A9F7F894FFCF87
:103CFC00FFFF70057905B3048005890595049405CB
:103D0C00A2056A04A905B3053604FFFF01FFFFFFF6
:103D1C00FFFFFFFFFF0000950980002C4C0000986E
:103D2C003A0000C8320000E8350000581B0000883B
:103D3C001300008CB9000098D00000E8E4000038B3
:103D4C00180000803E000068290000014F12064C4C
:103D5C0024200F00043132332F3435362A373839CA
:103D6C002D43303D2B3E3F4041363738394F0243CF
:103D7C000237022B0214020E02080202020000009B
:103D8C0000D901DE037A012602AB0189019D0100F5
:103D9C00000000DF0ADE033A09390900000000B711
:103DAC0007540714043C00202D20003C3E003C2D01
:103DBC002D53494E2050524F445543544F532D2DA3
:103DCC003E00544F54414C3A20240043414E544938
:103DDC004441443A00414752454741444F3A00451B
:103DEC0052524F522043414E544944414400302ECC
:103DFC00454E5452414441532D312E504C41544F59
:103E0C005320465545525445532D322E4245424976
:103E1C004441532D332E504F5354524553004F5061
:103E2C0043494F4E4553004D45534120003C5349A7
:103E3C004E20434F4D414E4441533E202000494EAD
:103E4C00494349414E444F2E2E2E005246494420A0
:103E5C004E4F204445544543540056455220434F41
:103E6C004E4558494F4E45530053495354454D41C7
:103E7C00204C4953544F0052464944204F4B207616
:103E8C00307800434F43494E4100302E5645522066
:103E9C0050454449444F5300202020004C49535472
:103EAC004F2100454C494745204D4F444F3A003077
:103EBC002E50454449444F2D312E524543415247D3
:103ECC0041522D322E50414741522D332E434F4EED
:103EDC0053554C544152004D4553412028302D31FF
:103EEC0034293A00524543415247415200494E470A
:103EFC0052455345204D4F4E544F3A004E4F20568D
:103F0C00414C49444100454E5452414441530030C8
:103F1C002E454D50414E414441532D312E41524579
:103F2C005041532D322E50415441434F4E45530076
:103F3C00504C41544F532046554552544553003034
:103F4C002E42414E44454A412050414953412D3166
:103F5C002E414A4941434F2D322E53414E434F433C
:103F6C00484F004245424944415300302E4C494D84
:103F7C004F4E4144412D312E4147554150414E4504
:103F8C004C412D322E474153454F534100302E4169
:103F9C00524551554950452D312E425245564153AB
:103FAC002D322E4F424C45415300434F4E46495201
:103FBC004D41523F00302E4E4F2D312E5349005063
:103FCC0041474F2043414E43454C41444F004143F0
:103FDC004552515545204C41005441524A4554419B
:103FEC002052464944005441524A455441204F4BBB
:103FFC0021005549443A00300050524F434553413B
:10400C004E444F2E2E2E004552524F52204C4543BB
:10401C0054555241005245494E54454E5445005357
:10402C00414C444F20494E5355462E005041474F6A
:10403C0020455849544F534F210053414C444F3A5B
:10404C0024004D455341204C4942455241444100C6
:10405C004552524F522045534352495455524100F8
:10406C004152455155495045004252455641530025
:10407C004C494D4F4E414441004147554150414EF2
:10408C00454C410042414E44454A41205041495320
:10409C004100414A4941434F00454D50414E414436
:0A40AC0041530041524550415300BA
:00000001FF
