:100000000C945E010C9477140C9452140C948F0190
:100010000C948F010C948F010C9437140C948F0165
:100020000C948F010C948F010C948F010C94681424
:100030000C948F010C948F010C948F010C948F0100
:100040000C948F010C948F010C948F010C948F01F0
:100050000C948F010C948F010C948F010C94F1126D
:100060000C948F010C940D140C94E3130C948F01D9
:100070000C948F010C948F010C948F010C948F01C0
:100080000C948F010C948F010C948F010C948F01B0
:100090000C94B9130C948F130C948F010C948F0152
:1000A0000C948F010C948F010C948F010C948F0190
:1000B0000C948F010C948F010C948F010C948F0180
:1000C0000C948F010C948F010C948F010C94651388
:1000D0000C943B130C948F010C948F010C948F01A2
:1000E0000C948F010C945C1E0C949D030C9469205D
:1000F0000C9418090C940C020C947B030C94402073
:100100000C94ED1B0C94E51D0C94FE010C947F04E3
:100110000C9426030C9400220C94AE1E0C94D9016E
:100120000C94F4010C9410020C94BD0A0C94DF01A1
:100130000C9486140C9424200C9432070C94060220
:100140000C94E7010C94E9030C9402020C94DB1D5F
:100150000C9417090C94E3010C94EE010C941A0210
:100160000C9419020C9404220C94E01D0C941402BB
:100170000C948F030C94F8010C946C030C946A1D7E
:100180000C9495070C94CE1D0C94EB010C94D61D89
:100190000C941E020C943604000021002400270059
:1001A0002A002D0030003300010100000401070186
:1001B0000A0100002200250028002B002E0031003B
:1001C000340002010000050108010B0100002000BD
:1001D0002300260029002C002F003200000100001F
:1001E00003010601090105050505070508080808BA
:1001F000020202020A0A08080404040401010101BF
:1002000001010101030303030303030304070707B9
:100210000C0C0C0C0C0C0C0C02020202060606065E
:10022000060606060B0B0B0B0B0B0B0B010210202B
:10023000200808102040102040800201020108041C
:1002400002010102040810204080804020100804B0
:100250000201800402018040201008040201080409
:10026000020101020408102040800102040810204D
:10027000408000000A0B02090C0D0E080703040160
:10028000000000000000000000000000000000006E
:10029000000000000000000000000000000012113B
:1002A000100000000000000000000000000000003E
:1002B00000000000000000008614042211241FBE6C
:1002C000CFEFD1E2DEBFCDBF00E00CBF2CE0ACE948
:1002D000B7E001C01D92A93CB207E1F717E0A0E02A
:1002E000B2E0EAEDFAE400E00BBF02C007900D9225
:1002F000AC39B107D9F711E0CDE5D1E000E006C097
:1003000021970109802FFE010E94EF22CC35D107F1
:1003100080E00807A9F70E9437150C945B250C9420
:100320000000FC01A089B18982E08C93A485B58589
:100330001C92A685B7858FEC8C93108EA489B58905
:1003400086E08C93A289B3898C9180618C93A28979
:10035000B3898C9188608C93A289B3898C918068D1
:100360008C930288F389E02D80818F7D80830895AE
:100370008CBD9DBD08958150823108F05AC0E82F90
:10038000F0E08827E953FE4F8F4F0C94EF22E701EE
:10039000EB01D901DF01E3011902EE01F401F801DB
:1003A000FE01020206020C021002190214021A02D5
:1003B0001E02809180008F77809380000895809145
:1003C00080008F7DF9CF80918000877FF5CF84B545
:1003D0008F7784BD089584B58F7DFBCF8091B00069
:1003E0008F778093B00008958091B0008F7DF9CF12
:1003F000809190008F778093900008958091900075
:100400008F7DF9CF80919000877FF5CF8091A000FC
:100410008F778093A00008958091A0008F7DF9CF01
:100420008091A000877FF5CF809120018F77809306
:1004300020010895809120018F7DF9CF80912001C6
:10044000877FF5CFCF93DF93282F30E0F901EE5867
:10045000FD4F8491F901E45DFD4FD491F901EA511A
:10046000FE4FC491CC23A1F081110E94BB01EC2F5F
:10047000F0E0EE0FFF1FE453FE4FA591B491EC9115
:10048000ED2381E090E009F480E0DF91CF910895C1
:1004900080E090E0FACF1F93CF93DF93282F30E0D6
:1004A000F901EE58FD4F8491F901E45DFD4FD491BF
:1004B000F901EA51FE4FC491CC23A9F0162F811106
:1004C0000E94BB01EC2FF0E0EE0FFF1FEE54FE4F39
:1004D000A591B4918FB7F894EC91111108C0D09503
:1004E000DE23DC938FBFDF91CF911F910895DE2B28
:1004F000F8CFCF93DF9390E0FC01E45DFD4F2491B2
:100500008A519E4FFC0184918823C9F090E0880FA6
:10051000991FFC01E856FE4FA591B491FC01EE54E1
:10052000FE4FC591D49161110DC09FB7F8948C9185
:10053000209582238C938881282328839FBFDF9175
:10054000CF910895623051F49FB7F8943C91822F77
:10055000809583238C93E8812E2BEFCF8FB7F8946F
:10056000EC912E2B2C938FBFEACF3FB7F89480915C
:10057000300990913109A0913209B091330926B523
:10058000A89B05C02F3F19F00196A11DB11D3FBFCB
:10059000BA2FA92F982F8827BC01CD01620F711D9A
:1005A000811D911D42E0660F771F881F991F4A9594
:1005B000D1F708958F929F92AF92BF92CF92DF9220
:1005C000EF92FF924B015C010E94B5026B017C012E
:1005D0000E94B5026C197D098E099F09683E73401F
:1005E00081059105A8F321E0821A9108A108B108BC
:1005F00088EEC80E83E0D81EE11CF11C8114910422
:10060000A104B10429F7FF90EF90DF90CF90BF9045
:10061000AF909F908F9008952FB7F89460912C0918
:1006200070912D0980912E0990912F092FBF089567
:10063000DB0114964D915C9115976D917C91DC01D5
:10064000ED91FC910280F381E02D1994AF92BF925D
:10065000CF92DF92EF92FF920F931F93CF93DF938E
:100660006C017B018B01040F151FEB015E01AE18BD
:10067000BF08C017D10759F06991D601ED91FC91DF
:100680000190F081E02DC6011995892B79F7C501FC
:10069000DF91CF911F910F91FF90EF90DF90CF905E
:1006A000BF90AF900895FC01A089B1898C91A68973
:1006B000B78982FD0FC09C91818D8F5F8F73228DD2
:1006C000821749F0A18DAE0FBF2FB11D5D969C938F
:1006D000818F08958C910895FC01538D448D252FB1
:1006E00030E0842F90E0821B930B541710F0CF96CC
:1006F000089501970895FC01918D828D981761F0FE
:10070000A28DAE0FBF2FB11D5D968C91928D9F5F14
:100710009F73928F90E008958FEF9FEF0895FC01F3
:10072000918D828D981731F0828DE80FF11D858DA6
:1007300090E008958FEF9FEF0895FC01918D228D39
:10074000892F90E0805C9F4F821B91098F739927BE
:1007500008958AEB9AE00E949D0321E0892B09F419
:1007600020E0822F089587E59BE00E949D0321E011
:10077000892B09F420E0822F089584EF9BE00E94EA
:100780009D0321E0892B09F420E0822F0895FC01CC
:10079000A48DA80FB92FB11DA35ABF4F2C91848DE2
:1007A00090E001968F739927848FA689B7892C933F
:1007B000A089B1898C91837080648C93938D848D92
:1007C000981306C00288F389E02D80818F7D808395
:1007D0000895EF92FF920F931F93CF93DF93EC0155
:1007E00081E0888F9B8D8C8D98131AC0E889F989D8
:1007F000808185FF15C09FB7F894EE89FF896083DB
:10080000E889F98980818370806480839FBF81E05B
:1008100090E0DF91CF911F910F91FF90EF9008959D
:10082000F62E0B8D10E00F5F1F4F0F731127E02E78
:100830008C8D8E110CC00FB607FCFACFE889F989B0
:10084000808185FFF5CFCE010E94C703F1CFEB8DEC
:10085000EC0FFD2FF11DE35AFF4FF0829FB7F89484
:100860000B8FEA89FB8980818062CFCFCF93DF93A2
:10087000EC01888D8823B9F0AA89BB89E889F989B8
:100880008C9185FD03C0808186FD0DC00FB607FCED
:10089000F7CF8C9185FFF2CF808185FFEDCFCE0120
:1008A0000E94C703E9CFDF91CF91089580E090E0E7
:1008B000892B29F00E94BD0381110E94000080E075
:1008C00090E0892B29F00E94B30381110E9400005F
:1008D00080E090E0892B29F00E94A90381110E94F9
:1008E000000080E090E0892B49F080E090E0892BC7
:1008F00029F00E94000081110C9400000895BC01B1
:100900006E5F7F4FDC01ED91FC910190F081E02D55
:1009100040E0199591E0811190E0892F08950895A4
:100920008EBD00000DB407FEFDCF8EB50895DF9299
:10093000EF92FF920F931F93CF93DF937C01062FCB
:10094000D42E152F80E590E00E94B80160E0F701F9
:1009500086850E944B0282E10E949004CD2DD12F0A
:100960000C0F1D2F111DC017D10721F089910E9476
:100970009004F9CF61E0F7018685DF91CF911F9157
:100980000F91FF90EF90DF900C944B021F93CF9349
:10099000DF93EC01162F80E590E00E94B80160E043
:1009A0008E850E944B02812F80680E94900480E017
:1009B0000E949004182F61E08E850E944B02812FC7
:1009C000DF91CF911F9108950F931F93CF93DF93E2
:1009D000EC01062F142F80E590E00E94B80160E042
:1009E0008E850E944B02802F0E949004812F0E94CE
:1009F000900461E08E85DF91CF911F910F910C944F
:100A00004B02CF92DF92EF92FF920F931F93CF93FF
:100A1000DF93EC016B01F42E890140E062E00E945B
:100A2000E40444E06AE0CE010E94E40440E864E1AA
:100A3000CE010E94E404A6016F2DCE010E9497040E
:100A400043E062E0CE010E94E4040E940C036B01CB
:100A50007C0129E5C20ED11CE11CF11C6AE0CE012B
:100A60000E94C60482FF1BC040E062E0CE010E94EB
:100A7000E40464E4CE010E94C604F801808362E4C9
:100A8000CE010E94C604F801818380E0DF91CF91FE
:100A90001F910F91FF90EF90DF90CF9008950E94EB
:100AA0000C036C157D058E059F05C0F283E0EECF2B
:100AB0002F923F924F925F926F927F928F929F926E
:100AC000AF92BF92CF92DF92EF92FF920F931F935C
:100AD000CF93DF931F921F92CDB7DEB73C01162F45
:100AE000942E290180E0A114B10411F0F501808158
:100AF000382C329490EF3922380E40E062E0C30186
:100B00000E94E4044FE768E0C3010E94E40440E867
:100B100064E1C3010E94E404A201602FC3010E94AA
:100B20009704432D6AE1C3010E94E404412F62E06F
:100B3000C3010E94E4041C3051F46AE1C3010E9425
:100B4000C604482F40686AE1C3010E94E4040E9481
:100B50000C031B012C01F4E22F0E311C411C511C13
:100B600068E0C3010E94C604982F992109F0B6C01D
:100B700080FF16C083E00F900F90DF91CF911F91FF
:100B80000F91FF90EF90DF90CF90BF90AF909F902C
:100B90008F907F906F905F904F903F902F9008952F
:100BA0000E940C036215730584059505C8F2E2CF17
:100BB000E114F10409F467C0C114D10409F463C05D
:100BC00064E1C3010E94C604982EF6018081891554
:100BD00008F47EC090829920C9F180E590E00E94DF
:100BE000B80160E0F30186850E944B029A9482E985
:100BF0000E949004882099F00FEF10E001C0000FD0
:100C00008A94EAF782E90E949004902F9095F70168
:100C1000208192238023982B9083882483948701BA
:100C2000080D111D891440F482E90E949004F80116
:100C300081938F018394F6CF80E00E949004F801A5
:100C4000808361E0F30186850E944B0268E1C30165
:100C50000E94C6048770A114B10411F0F5018083CD
:100C600053FC38C0E114F104B9F1C114D104A1F16D
:100C7000988D992389F1F6014081413031F4843017
:100C800029F58FEF78CF80E0EBCF4230F8F081117B
:100C90001DC042509E012F5F3F4FB701C3010E940C
:100CA0000105811168CFF6019081E90EF11CF70171
:100CB000329720819981291309C0F1E0EF1AF108D8
:100CC000F70120819A81291709F455CF87E053CF86
:100CD00084E051CF82E04FCF80E04DCF6CE0C30184
:100CE0000E94C604582E837109F462CF81E043CF7D
:100CF0008F92AF92BF92CF92DF92EF92FF920F93BB
:100D0000CF93DF93CDB7DEB72C970FB6F894DEBF45
:100D10000FBECDBF80E6898387E08A83E4EBFAE0EB
:100D2000DE01139681918D938AE0EA3BF807D1F7B3
:100D3000E091B70CE150FF0BEB54F34FDE01199635
:100D4000CE010D9621912D93A817B907D9F71F92BF
:100D5000812CB12CA12CD12CC12CF12CE12C0CE03C
:100D60009E012F5F3F4F40E16EE085EB9CE00E94CB
:100D700058050F902C960FB6F894DEBF0FBECDBF6E
:100D8000DF91CF910F91FF90EF90DF90CF90BF90C8
:100D9000AF908F9008956F927F928F92AF92BF9293
:100DA000CF92DF92EF92FF920F931F93CF93DF9337
:100DB00000D01F92CDB7DEB73C0180E589831A824F
:100DC0009E012D5F3F4F42E0BE016F5F7F4FC30129
:100DD0000E940105182F811118C01F92812CB12C7F
:100DE000A12CD12CC12CF12CE12C04E09E012F5F11
:100DF0003F4F40E36CE0C3010E9458050F908330E1
:100E000021F0182F811101C011E0812F0F900F9058
:100E10000F900F90DF91CF911F910F91FF90EF9066
:100E2000DF90CF90BF90AF908F907F906F9008959C
:100E30000F931F93CF93DF938C01D62FC42F0E9463
:100E4000C604C0954C2F48236D2FC801DF91CF9168
:100E50001F910F910C94E40448E060E185EB9CE065
:100E60000C9418076F927F928F92AF92BF92CF929D
:100E7000DF92EF92FF920F93CF93DF9300D01F92F8
:100E80001F92CDB7DEB73C0182E08D8340E064E283
:100E9000C3010E94E40440E066E2C3010E94E4044E
:100EA00046E268E4C3010E94E40486E28B838D81FC
:100EB0008230C8F140E86CE1C3010E94180787E066
:100EC0008C831F92812CCE0104965C0101966C01EB
:100ED00004977C0101E09E012D5F3F4F40E36CE0F1
:100EE000C3010E945805982F0F90811119C08D8160
:100EF0008230C9F48C81811116C081E00F900F906F
:100F00000F900F900F90DF91CF910F91FF90EF9086
:100F1000DF90CF90BF90AF908F907F906F900895AB
:100F200081E0923059F380E0E9CF2F923F924F92C7
:100F30005F926F927F928F929F92AF92BF92CF9269
:100F4000DF92EF92FF920F931F93CF93DF93CDB772
:100F5000DEB72E970FB6F894DEBF0FBECDBF06E00A
:100F6000413508F046C14E873B012C0140E86CE159
:100F70000E94180783E989832E85222329F081E0C6
:100F8000F3019081953008F480E0992493941C86B5
:100F90009C85990F990F990F1E85191B17FD10E05D
:100FA00032E0882319F098E89B8333E021E0912F09
:100FB000977009F420E0912F959595959595290FB7
:100FC000D1F094E0811193E0291708F4922F2C8539
:100FD000E22FF0E03196E60DF71D232F4191A1E0BD
:100FE000B0E0AC0FBD1FA20FB11D4C932F5F422F7D
:100FF000431B491798F38111185F10320CF484C019
:1010000080E78A838B819C8189279D8189279E81A6
:1010100089278F839E01285F3F4F47E0BE016F5FA6
:101020007F4FC2010E940105082F8111E2C01A867C
:1010300093E09B871D87FE0137961F0109E08A8494
:10104000482D4295407F480D6AE1C2010E94E404A8
:101050001F92CE010A965C01FE013B966F01710161
:101060009E012F5F3F4F40E36CE0C2010E94580594
:10107000082F0F90823009F065C06CE1C2010E9418
:10108000C60485FDB6C08F7109F480E2282F30E0D8
:10109000412F110F550B421753070CF09EC0182F0C
:1010A000E22FE595E595E595EF5F922F977081E04A
:1010B00009F480E0E80F81E090E08C0F9D1F8E0F17
:1010C000911DFC01215031092770332781E090E008
:1010D00002C0880F991F2A95E2F79C018081822B1C
:1010E00080838BCF85E98983FE85FF2331F081E002
:1010F000F3019081983008F04BCF80E049CF87E929
:101100008983F6E0FC87F9CF912F97709A87812F1A
:101110008595859585958E5F282F2295207F290FAF
:101120002A8301E0911101C000E0080F22242394DA
:10113000312C2C0E3D1E280E311CF9E0F81BFB87CC
:101140001D877DCF811155C010E29D8590320CF432
:1011500057CF8B81883809F042C083E093E02C851B
:10116000E22FF0E03196E60DF71D980FA1E0B0E018
:10117000AC0FBD1FA80FB11D2C9121938F5F891358
:10118000F5CF8B858C87833009F04DC08A8581111E
:101190004AC09E012D5F3F4F41E0B101C2010E9454
:1011A0000105082F811125C09B81F10181819813D0
:1011B0003CC09C818281981338C0808182FF12C01C
:1011C0009394F2E09F1609F48DCF23E0921609F470
:1011D00096CF81E0981609F4CDCE05E00AC082E0F2
:1011E00094E0BDCFF3018387892D880F980E9394E7
:1011F0009082802F2E960FB6F894DEBF0FBECDBF23
:10120000DF91CF911F910F91FF90EF90DF90CF90E2
:10121000BF90AF909F908F907F906F905F904F9016
:101220003F902F90089501E0E4CF07E0E2CF0895CA
:1012300090E080E0089561E085E20E944B0261E069
:1012400086E20C944B021F93CF93DF93182FC82F85
:10125000D0E0BE0186E0759567958A95E1F76170EB
:101260008EE10E944B02BE0195E0759567959A95B7
:10127000E1F761708FE10E944B02BE0124E0759599
:1012800067952A95E1F7617080E20E944B02BE01EA
:1012900033E0759567953A95E1F7617081E20E94B8
:1012A0004B02BE017595679575956795617082E2F1
:1012B0000E944B02D595C7956C2F617083E20E9406
:1012C0004B02612F617084E2DF91CF911F910C94EA
:1012D0004B02CF93DF93EC0160E08E810E944B02C2
:1012E00061E08E810E944B0260E08E810E944B0281
:1012F0008BE891E00197F1F7DF91CF910895CF92BC
:10130000DF92EF92FF920F931F93CF93DF936C01C5
:101310007C0187E0E80EF11CD0E0C0E0062F10E071
:10132000B8010C2E02C0759567950A94E2F76170BA
:10133000F70181917F010E944B022196C430D105B3
:1013400079F7C601DF91CF911F910F91FF90EF9038
:10135000DF90CF900C946909CF92DF92EF92FF92C9
:101360000F931F93CF93DF93EC01F62E642F8C81A4
:101370000E944B028D818F3F19F060E00E944B026A
:101380000F2D10E08F8584FF25C06E0187E0C80E09
:10139000D11CF12CE12CB8010E2C02C0759567957B
:1013A0000A94E2F76170F60181916F010E944B028D
:1013B000FFEFEF1AFF0A88E0E816F10461F7CE01AB
:1013C000DF91CF911F910F91FF90EF90DF90CF9021
:1013D0000C946909B80184E0759567958A95E1F7E1
:1013E000CE010E947F096F2DCE01DF91CF911F9119
:1013F0000F91FF90EF90DF90CF900C947F0940E029
:10140000682F81E99CE00C94AC0981E00E94FF09FF
:101410008BE39FE10197F1F70895CF93DF9382303B
:1014200029F49091A00C98609093A00C8093A40C48
:101430001092A50C80E48093A60C80E18093A70C09
:1014400080E58093A80C61E08091950C0E94790260
:101450008091960C8F3F19F061E00E94790261E063
:101460008091970C0E947902C1E9DCE09E0121592C
:101470003C408091A00C84FD0BC084E090E021965C
:101480002817390744F461E08E810E947902EECF7B
:1014900088E090E0F4CF8BE39DE00197F1F760E006
:1014A0008091950C0E944B0260E08091970C0E9405
:1014B0004B028091960C8F3F19F060E00E944B0226
:1014C0008091A00C84FD34C063E081E99CE00E941F
:1014D0007F09CBE4D6E4CE010197F1F763E081E91F
:1014E0009CE00E947F092197F1F763E081E99CE08D
:1014F0000E947F0983E592E00197F1F762E081E9BC
:101500009CE00E947F098091A00C80620E94FF09EC
:1015100084E08093A10C8CE00E94FF090E94050AE0
:1015200082E08093A20C86E0DF91CF910C94FF09BA
:1015300080620E94FF098BE496E40197F1F78091A5
:10154000A00C80620E94FF0983E592E00197F1F709
:101550008091A00C80620E94FF09D5CF9091A40CCD
:10156000691710F06FEF690FE62FF0E0EF56F34FB9
:101570009489890F80680C94FF0941E00E94AC09AE
:1015800081E090E008958F92AF92BF92CF92DF9268
:10159000EF92FF920F93CF93DF93CDB7DEB76497AF
:1015A0000FB6F894DEBF0FBECDBF062FE62EF12C8E
:1015B000A701BC01CE0101960E94282521E030E060
:1015C0002C0F3D1F2E0D3F1D402FBE016F5F7F4F23
:1015D00085EB9CE00E940105811123C082E18C8B88
:1015E0001B8A0E5F1F92812CCE0143965C010196EF
:1015F0006C0143977C019C0140E36CE085EB9CE02F
:101600000E9458050F9081110CC08C898130D1F453
:101610008B898430B9F481E099819A3009F480E0B3
:10162000819564960FB6F894DEBF0FBECDBFDF91F3
:10163000CF910F91FF90EF90DF90CF90BF90AF9040
:101640008F90089581E0EDCFFB0101900020E9F734
:101650003197AF01461B570BDC01ED91FC910280E5
:10166000F381E02D19948F929F92AF92BF92EF92E7
:10167000FF920F931F93CF93DF93CDB7DEB7A19760
:101680000FB6F894DEBF0FBECDBF7C01FA01CB01CF
:1016900019A2223008F42AE08E010F5D1F4F822E1E
:1016A000912CB12CA12CBF01A50194010E94CD2247
:1016B000F901CA016A300CF5605DD8016E938D01A5
:1016C000232B242B252B79F790E080E0109721F035
:1016D000BD01C7010E94240BA1960FB6F894DEBF8E
:1016E0000FBECDBFDF91CF911F910F91FF90EF9073
:1016F000BF90AF909F908F900895695CDECFCF929E
:10170000DF92EF92FF920F931F93CF93DF936B01C2
:10171000770FEE08FF08F7FE1FC0EC01E881F981A2
:101720000190F081E02D6DE219958C014427552739
:10173000BA014C195D096E097F092AE0CE010E94A9
:10174000330B800F911FDF91CF911F910F91FF906D
:10175000EF90DF90CF9008952AE0B701A601DF91C6
:10176000CF911F910F91FF90EF90DF90CF900C944D
:10177000330BCF93DF93BC0184EF9BE00E947F0B80
:10178000EC0165EB72E084EF9BE00E94240B8C0F70
:101790009D1FDF91CF9108950F931F93CF93DF93F8
:1017A000EC010E94240B8C0165EB72E0CE010E94DB
:1017B000240B800F911FDF91CF911F910F910895FE
:1017C0008F92AF92BF92CF92DF92EF92FF920F93E0
:1017D000CF93DF93CDB7DEB763970FB6F894DEBF34
:1017E0000FBECDBF82E18B8B0E94780668EB72E062
:1017F00081110BC062E370E080E090E00E94DA02A9
:101800008B898231C8F464ED72E084EF9BE00E9422
:10181000CC0B8FEF9FEF63960FB6F894DEBF0FBE31
:10182000CDBFDF91CF910F91FF90EF90DF90CF90E0
:10183000BF90AF908F90089580E3898384E08A837E
:101840009E012D5F3F4F42E0BE016F5F7F4F85EBF2
:101850009CE00E9401058111D6CF81E08F93812CFD
:10186000B12CA12CCE0143966C0142977C0104E07F
:101870009C0140E36CE085EB9CE00E9458050F90D2
:101880008111C1CF69817A818B819C810E94F7226D
:10189000CB01C1CF0C94240BCF93DF93EC0169EE05
:1018A00072E08AEB9AE00E944A0CBE018AEB9AE051
:1018B0000E947F0B63EF72E08AEB9AE00E94CC0BF0
:1018C00065EF72E084EF9BE00E944A0CCE01DF914D
:1018D000CF910C94B90BFC0124813581232B39F471
:1018E00021E0FB018081882349F020E007C080814E
:1018F00091810E94312521E0892BB9F7822F08952B
:10190000FC0180819181009711F00C940C2260E021
:1019100070E0CB010895CF93DF93FC01C081D181AA
:10192000209761F08991882349F0082E000C990BCB
:101930000E942025FE0131978083F4CFDF91CF9163
:101940000895CF93DF93DC0114962D913C91159768
:10195000232B79F0FB01CD91DC9160817181CE0167
:101960000E944125009729F08C1B9D0BDF91CF91A0
:1019700008958FEF9FEFFACF0F931F93CF93DF93CD
:10198000EC0188819981009759F02A813B812617C3
:10199000370730F081E0DF91CF911F910F910895CB
:1019A0008B016F5F7F4F0E943F24009759F099830E
:1019B00088831B830A832C813D81232B59F7FC01EB
:1019C0001082E8CF80E0E7CFEF92FF920F931F9352
:1019D000CF93DF936115710541F480E0DF91CF91E2
:1019E0001F910F91FF90EF90089541155105B1F0AF
:1019F0007B01EC010C811D81040F151FB8010E94B1
:101A0000BC0C882351F3288139818C819D81B701D9
:101A1000820F931F0E943A251D830C8381E0DECF45
:101A2000CF93DF931F921F92CDB7DEB769831A82DF
:101A300041E050E0BE016F5F7F4F0E94E40C0F90C9
:101A40000F90DF91CF910895FB0101900020E9F7FD
:101A50003197AF01461B570B0C94E40CCF93DF93E7
:101A6000EC0188819981009711F00E94B6231982B8
:101A700018821D821C821B821A82DF91CF910895E9
:101A8000CF93DF93EC01FB0101900020E9F7319740
:101A9000AF01461B570B0E94E40C811103C0CE011D
:101AA0000E942E0DCE01DF91CF910895CF93DF9349
:101AB000EC01FB0144815581608171810E94E40C3D
:101AC000811103C0CE010E942E0DCE01DF91CF9176
:101AD0000895EF92FF920F931F93CF93DF93EC0142
:101AE0007B018A01BA010E94BC0C81110BC0CE019E
:101AF0000E942E0DCE01DF91CF911F910F91FF908B
:101B0000EF9008951D830C83B701888199810E940D
:101B10003A25F0CFFB0101900020E9F73197AF01A2
:101B2000461B570B0C94690D0F931F93CF93DF93B4
:101B3000CDB7DEB762970FB6F894DEBF0FBECDBF4C
:101B40008C01CB01F801118210821382128215825E
:101B500014824AE0BE016F5F7F4F0E943322BE01B4
:101B60006F5F7F4FC8010E948A0D62960FB6F8948E
:101B7000DEBF0FBECDBFDF91CF911F910F910895B2
:101B8000CF93DF93EC01FB018617970749F0608143
:101B900071816115710541F0448155810E94690D83
:101BA000CE01DF91CF9108950E942E0DF9CFFC0157
:101BB0001182108213821282158214820C94C00D3D
:101BC000FC01118210821382128215821482611527
:101BD000710551F0FB0101900020E9F73197AF0149
:101BE000461B570B0C94690D0895FC01808191816F
:101BF000009711F00C94B62308958F929F92AF92A4
:101C0000BF92CF92DF92EF92FF920F931F93CF93E9
:101C1000DF93CDB7DEB767970FB6F894DEBF0FBE80
:101C2000CDBF7C0180914009811109C067EB72E052
:101C30008AE399E00E94E00D81E080934009F7017A
:101C400001900020E9F731978F010E191F09B701A4
:101C5000CE0142960E94E00DCE0142960E948B0C6E
:101C6000EA88FB8820913E0930913F098E899F893F
:101C700028173907E9F480913A0990913B090097B8
:101C800051F0E114F10409F08EC0232B31F1FC0175
:101C9000808190E00BC0E114F104F9F0232BE9F00E
:101CA000F701808190E0919581959109892BA9F0A8
:101CB00010923909109238090E940C03609334097C
:101CC000709335098093360990933709BE016E5E93
:101CD0007F4F8AE399E00E94C00D0E940C03809020
:101CE000340990903509A0903609B09037096819E9
:101CF00079098A099B09643F714081059105E0F1EA
:101D00000E940C036093340970933509809336095F
:101D1000909337092091380930913909CE01019605
:101D20006C015E0191E1A90EB11CF6012C193D096F
:101D3000C9018E0F9F1FB8010E94B922D701A80FB9
:101D4000B91F8C918193AE16BF0691F7198A61E095
:101D500080E00E94AE0AB60181E99CE00E944A0C34
:101D600080913809909139090196B8010E94B922F1
:101D70009093390980933809CE0142960E94F50D5F
:101D800067960FB6F894DEBF0FBECDBFDF91CF913F
:101D90001F910F91FF90EF90DF90CF90BF90AF9089
:101DA0009F908F900895B7010E9431257FCF4F9269
:101DB0005F926F927F928F929F92AF92BF92CF92DB
:101DC000DF92EF92FF920F931F93CF93DF93CDB7E4
:101DD000DEB7E3970FB6F894DEBF0FBECDBF8C0120
:101DE0000E94050A6FE173E0CE018E960E94E00D1D
:101DF00028E1209FC001219F900D11249C01245BAC
:101E0000364F790135E8C32E32E0D32E4DE7A42EAC
:101E100042E0B42E412C512C320110E000E0F701D9
:101E2000E00FF11F80809180181419040CF05CC041
:101E30006FE173E0CE018E960E946B0C811106C09B
:101E400061E273E0CE018E960E94240DD601ED91E1
:101E5000FC91E00FF11F60817181CE0188960E9494
:101E6000E00DCE0188960E948B0CB401CE01019644
:101E70000E94940DBE01685D7F4FCE0182960E9444
:101E8000D70D62E675E0CE0182960E94400DBE013C
:101E90006F5F7F4F0E94560DFC0144815581608128
:101EA0007181CE018E960E94E40CCE0182960E9432
:101EB000F50DCE0101960E94F50DD501ED91FC9135
:101EC000C801880F991FE80FF91F208131814281D5
:101ED0005381D4010E94FE22460E571E681E791EB1
:101EE000CE0188960E94F50D0E5F1F4F063011053A
:101EF00009F095CFB6E0EB0EF11CE2E0CE0ED11C5E
:101F0000F2E0AF0EB11C2DE8C21622E0D20609F0B5
:101F100084CF6AE373E0CE018E960E94240D65E2C1
:101F200073E0CE018E960E946B0C882331F068E23C
:101F300073E0CE018E960E948A0DBE01625D7F4FD6
:101F40008FEA9CE00E94C00D1BA21AA21DA21CA237
:101F50001FA21EA22AE0AE014F5F5F4FC301B20174
:101F60000E945322BE016F5F7F4FCE0182960E9476
:101F70008A0D6CE373E0CE0101960E94E00DBE0174
:101F80006E5D7F4FCE0101960E94560DBC01CE01C1
:101F900088960E94D70DCE0101960E94F50DCE01C4
:101FA00082960E94F50DCE0188960E948B0C60E00F
:101FB00080E00E94AE0ABE01685D7F4F81E99CE02F
:101FC0000E941803409248095092490960924A09B8
:101FD00070924B09CE0188960E94F50DCE018E9627
:101FE0000E94F50DE3960FB6F894DEBF0FBECDBF8D
:101FF000DF91CF911F910F91FF90EF90DF90CF90E5
:10200000BF90AF909F908F907F906F905F904F9018
:1020100008954F925F926F927F92AF92BF92CF924C
:10202000DF92EF92FF920F931F93CF93DF93CDB781
:10203000DEB762970FB6F894DEBF0FBECDBF7B014F
:102040008A01C0901F02D090200290ED980F2FEFD0
:10205000C216D20609F055C09330F0F5082E000CD8
:10206000990BC0979093200280931F02880F991FAD
:10207000FA01E80FF91F60817181CE0101960E947B
:10208000E00DCE0101960E948B0C0E94050A60E0D3
:1020900080E00E94AE0ABE016F5F7F4F81E99CE045
:1020A0000E94180361E080E00E94AE0A65E473E0DC
:1020B00081E99CE00E944A0C67EB72E089EA9CE0AF
:1020C0000E948A0D67EB72E08FEA9CE00E948A0D05
:1020D000CE0101960E94F50D62960FB6F894DEBF10
:1020E0000FBECDBFDF91CF911F910F91FF90EF9069
:1020F000DF90CF90BF90AF907F906F905F904F90A8
:1021000008959A3080F4682F89EA9CE00E94100DAF
:1021100061E089E00E94AE0A69EA7CE081E99CE026
:102120000E941803D9CF8D33B9F689EA9CE00E944A
:10213000800C2B01161617060CF012C1A0901D0280
:10214000B0901E028FE0A816B10408F009C123E088
:10215000C216D10408F004C163E473E087E59BE094
:102160000E944A0CB50187E59BE00E947F0B61EF5E
:1021700072E087E59BE00E944A0CB70187E59BE08F
:102180000E947F0B61EF72E087E59BE00E944A0CA2
:10219000B60187E59BE00E947F0B61EF72E087E567
:1021A0009BE00E944A0CB20187E59BE00E947F0BF6
:1021B00063EF72E087E59BE00E94CC0B6FE473E075
:1021C00084EF9BE00E944A0CB50184EF9BE00E94E3
:1021D0007F0B68E673E084EF9BE00E944A0CB70136
:1021E00084EF9BE00E947F0B60E773E084EF9BE04D
:1021F0000E944A0CB60184EF9BE00E947F0B67E7C8
:1022000073E084EF9BE00E944A0CC2010E94B90B6C
:1022100080911D0290911E02E0911F02F091200218
:102220009701220F331FE20EF31E5CE0D52ED89EDD
:10223000D001D99EB00D1124AE0DBF1DAE0FBF1F32
:10224000AA0FBB1FA45BB64F8D919C911197480EAE
:10225000591E4D925C92EE0FFF1FE00FF11F60813F
:102260007181CE0101960E94E00DCE0101960E947F
:102270008B0C0E94050A60E080E00E94AE0A6AE7CB
:1022800073E081E99CE00E944A0C61E080E00E94DA
:10229000AE0A80911D0290911E02D89EF001D99E37
:1022A000F00D1124EE0EFF1EE0911F02F0912002AE
:1022B000EE0DFF1DEE0FFF1FE45BF64F6081718195
:1022C000CE0107960E94940DBE01695F7F4FCE013B
:1022D0000D960E94D70D61E275E0CE010D960E9429
:1022E000400DBE016F5F7F4F0E94560DBC0181E91A
:1022F0009CE00E941803CE010D960E94F50DCE01C0
:1023000007960E94F50D6CED75E080E090E00E946C
:10231000DA02CE0101960E94F50D8FEF9FEF9093A8
:10232000200280931F0267EB72E089EA9CE00E9422
:102330008A0D109222021092210262E973E08FEA64
:102340009CE00E948A0D0E94050A60E080E00E94E5
:10235000AE0A62EC73E081E99CE00E944A0CBCCEBC
:102360000E94050A60E080E00E94AE0A63E873E024
:1023700081E99CE00E944A0C68EE73E080E090E006
:102380000E94DA02CACF8F929F92AF92BF92CF92F1
:10239000DF92EF92FF920F931F93CF93DF93CDB70E
:1023A000DEB768970FB6F894DEBF0FBECDBF5C01F5
:1023B0000E94050A67EB72E0CE0143960E94E00D91
:1023C00088E18A9D80018B9D100D11240455184FC2
:1023D00085E8C82E82E0D82EF12CE12CF801EE0D14
:1023E000FF1D80809180181419040CF049C067EB20
:1023F00072E0CE0143960E946B0C811106C061E22F
:1024000073E0CE0143960E94240DD601ED91FC911C
:10241000EE0DFF1D60817181CE0101960E94E00DDD
:10242000CE0101960E948B0CB401CE010D960E9444
:10243000940DBE016F5F7F4FCE0107960E94D70DAE
:1024400062E675E0CE0107960E94400DBE01635F13
:102450007F4F0E94560DFC0144815581608171813E
:10246000CE0143960E94E40CCE0107960E94F50D22
:10247000CE010D960E94F50DCE0101960E94F50D3C
:10248000F2E0EF0EF11C86E0E816F10409F0A6CFA9
:102490000A5F1F4FA2E0CA0ED11CBDE8CB16B2E006
:1024A000DB0609F099CF60E080E00E94AE0AB5013A
:1024B000CE0107960E94940D6BEC73E0CE0101965D
:1024C0000E94E00DBE01695F7F4FCE0101960E9420
:1024D000560DBC0181E99CE00E941803CE010196D3
:1024E0000E94F50DCE0107960E94F50D61E080E097
:1024F0000E94AE0A67EB72E0CE0143960E946B0C1D
:10250000882331F061ED73E0CE0143960E94240DE3
:10251000BE016D5E7F4F8FEA9CE00E94C00DCE0130
:1025200043960E94F50D68960FB6F894DEBF0FBE75
:10253000CDBFDF91CF911F910F91FF90EF90DF9072
:10254000CF90BF90AF909F908F900895CF93DF93DF
:10255000CDB7DEB762970FB6F894DEBF0FBECDBF22
:10256000FE0135962CE0DF011D922A95E9F7330F25
:10257000220B322F2983330F220B322F2A839B8386
:102580008C830E94780662EE73E0811124C062E3BE
:1025900070E080E090E00E94DA0280EA898B84E0BB
:1025A0008A8B62E0CE0141960E94C30A811111C05C
:1025B00060E1CE0101960E94C30A81110AC081E048
:1025C00062960FB6F894DEBF0FBECDBFDF91CF91FC
:1025D000089560E074E084EF9BE00E94CC0B80E003
:1025E000EFCF1F920F920FB60F9211242F933F93AC
:1025F0008F939F93AF93BF9380912C0990912D0956
:10260000A0912E09B0912F0930912B0923E0230FBF
:102610002D3758F50196A11DB11D20932B098093EC
:102620002C0990932D09A0932E09B0932F09809126
:10263000300990913109A0913209B0913309019686
:10264000A11DB11D8093300990933109A0933209E7
:10265000B0933309BF91AF919F918F913F912F918B
:102660000F900FBE0F901F90189526E8230F02962B
:10267000A11DB11DD2CF1F920F920FB60F92112440
:102680000BB60F922F933F934F935F936F937F936C
:102690008F939F93AF93BF93EF93FF938AEB9AE04F
:1026A0000E94C703FF91EF91BF91AF919F918F91CE
:1026B0007F916F915F914F913F912F910F900BBE42
:1026C0000F900FBE0F901F9018951F920F920FB68C
:1026D0000F9211240BB60F922F933F934F935F935A
:1026E0006F937F938F939F93AF93BF93EF93FF93DA
:1026F0008AEB9AE00E945303FF91EF91BF91AF9153
:102700009F918F917F916F915F914F913F912F9109
:102710000F900BBE0F900FBE0F901F9018951F9239
:102720000F920FB60F9211240BB60F922F933F9377
:102730004F935F936F937F938F939F93AF93BF93C9
:10274000EF93FF9387E59BE00E94C703FF91EF9112
:10275000BF91AF919F918F917F916F915F914F91B9
:102760003F912F910F900BBE0F900FBE0F901F90B7
:1027700018951F920F920FB60F9211240BB60F925D
:102780002F933F934F935F936F937F938F939F9379
:10279000AF93BF93EF93FF9387E59BE00E945303B2
:1027A000FF91EF91BF91AF919F918F917F916F9129
:1027B0005F914F913F912F910F900BBE0F900FBEE5
:1027C0000F901F9018951F920F920FB60F92112421
:1027D0000BB60F922F933F934F935F936F937F931B
:1027E0008F939F93AF93BF93EF93FF9384EF9BE0FF
:1027F0000E94C703FF91EF91BF91AF919F918F917D
:102800007F916F915F914F913F912F910F900BBEF0
:102810000F900FBE0F901F9018951F920F920FB63A
:102820000F9211240BB60F922F933F934F935F9308
:102830006F937F938F939F93AF93BF93EF93FF9388
:1028400084EF9BE00E945303FF91EF91BF91AF9102
:102850009F918F917F916F915F914F913F912F91B8
:102860000F900BBE0F900FBE0F901F9018951F92E8
:102870000F920FB60F9211248F939F9380912A0984
:10288000882349F080910002909101020A9719F47F
:1028900081E0809316099F918F910F900FBE0F904A
:1028A0001F9018951F920F920FB60F9211248F93BD
:1028B0009F9380912A0991E0892780932A09909318
:1028C00029099F918F910F900FBE0F901F9018951F
:1028D0001F920F920FB60F9211248F9381E0809375
:1028E00026098F910F900FBE0F901F9018951F9281
:1028F0000F920FB60F9211248F9381E080931709E6
:102900008F910F900FBE0F901F901895EAEBFAE091
:102910001382128248EE53E060E070E044835583F6
:102920006683778381E992E09183808325ED30E0AF
:102930003587248724ED30E03787268720ED30E087
:10294000318B208B21ED30E0338B228B22ED30E078
:10295000358B248B26ED30E0378B268B118E128E33
:10296000138E148EE7E5FBE01382128244835583B5
:1029700066837783918380832DEC30E035872487CD
:102980002CEC30E03787268728EC30E0318B208B29
:1029900029EC30E0338B228B2AEC30E0358B248B12
:1029A0002EEC30E0378B268B118E128E138E148E08
:1029B000E4EFFBE0138212824483558366837783BE
:1029C0009183808385EC90E09587848784EC90E008
:1029D0009787868780EC90E0918B808B81EC90E0EC
:1029E000938B828B82EC90E0958B848B86EC90E0CD
:1029F000978B868B118E128E138E148EE5EBFCE076
:102A00008FEA92E09183808385E3868786E18787DA
:102A100067EB72E08FEA9CE00E94E00D67EB72E0EA
:102A200089EA9CE00E94E00DE1E9FCE01382128259
:102A300083EA92E0918380838DE084838FEF8583A6
:102A40008CE086838BE087838AE0808789E08187BA
:102A500088E0828787E0838786E0848785E08587B2
:102A600084E0868780E1878781E00C940D0ACF930C
:102A7000DF93CDB7DEB764970FB6F894DEBF0FBE15
:102A8000CDBF789484B5826084BD84B5816084BDF7
:102A900085B5826085BD85B5816085BD80916E00FC
:102AA000816080936E00109281008091810082602D
:102AB000809381008091810081608093810080916A
:102AC00080008160809380008091B1008460809359
:102AD000B1008091B00081608093B000809191003E
:102AE0008260809391008091910081608093910039
:102AF000809190008160809390008091A10082601D
:102B00008093A1008091A10081608093A1008091B9
:102B1000A00081608093A000809121018260809359
:102B20002101809121018160809321018091200108
:102B300081608093200180917A00846080937A0084
:102B400080917A00826080937A0080917A0081601F
:102B500080937A0080917A00806880937A00109246
:102B6000C10084EF9BE00E94910164EF71E080E07E
:102B700090E00E94DA0287E59BE00E9491018AEBD7
:102B80009AE00E94910167E174E084EF9BE00E946B
:102B9000CC0B6CE474E084EF9BE00E94CC0B3DE72F
:102BA000C32E32E0D32E09E712E0F801F1908F0135
:102BB00061E08F2D0E94790261E08F2D0E944B020F
:102BC000C016D10691F762E08EE30E94790262E0BE
:102BD0008FE30E94790262E080E40E94790262E061
:102BE00081E40E947902809168008460809368008B
:102BF00080916D008F6080936D00789482E00E94D8
:102C00000D0A0E94050A60E080E00E94AE0A62E8B8
:102C100074E081E99CE00E944A0C90E080E0DC01D5
:102C2000A45BB64FFC01E455F84F30E020E011966C
:102C30001C921E921182108213961C921E92129761
:102C40001382128215961C921E921497158214827A
:102C50002F5F3F4F169636962430310541F7489640
:102C60008836F1E09F07D9F662E083E00E9479029E
:102C7000E99A809169008860809369008091690079
:102C80008B7F8093690062E082E00E947902E89A7B
:102C900080916900826080936900809169008E7FD5
:102CA0008093690062E082E10E947902ED9A80914E
:102CB0006A00886080936A0080916A008B7F8093AD
:102CC0006A0061E088E20E94790260E088E20E9486
:102CD0004B0261E08EE10E94790261E08FE10E9487
:102CE000790261E080E20E94790261E081E20E9463
:102CF000790261E082E20E94790261E083E20E944F
:102D0000790261E084E20E94790261E085E20E943A
:102D1000790261E086E20E9479020E941B091FB7D6
:102D2000F89480919C07811127C0EBE1F2E0849137
:102D3000E1E6F2E09491E82FF0E0EE0FFF1FE85695
:102D4000FE4FA591B491EC91E92321F461E085E374
:102D50000E944B0261E085E30E9479028CB580619C
:102D60008CBD8CB580648CBD61E084E30E947902E7
:102D700061E083E30E94790280919C078F5F8093DA
:102D80009C071FBF64E670E080E090E00E94DA02DA
:102D900061E08091C30C0E94790261E08091C30CD4
:102DA0000E944B028091C40C8F3F09F495C060E0F3
:102DB0000E9479028091C40C0E942202892B09F0A2
:102DC0008BC061E08091C40C0E94790260E0809128
:102DD000C40C0E944B0283E090E00197F1F761E0A0
:102DE0008091C40C0E944B0262E370E080E090E0AE
:102DF0000E94DA0240E064E285EB9CE00E94E40479
:102E000040E066E285EB9CE00E94E40446E268E470
:102E100085EB9CE00E94E40440E864E585EB9CE0DF
:102E20000E94E40449EA66E585EB9CE00E94E40424
:102E300043E068E585EB9CE00E94E40448EE6AE527
:102E400085EB9CE00E94E40440E46AE285EB9CE0B0
:102E50000E94E4044DE362E285EB9CE00E94E404FE
:102E600068E285EB9CE00E94C604982F9370933033
:102E700039F0482F436068E285EB9CE00E94E4044F
:102E800064E670E080E090E00E94DA028CE0382E88
:102E90008091A407811109C067EB72E08EE997E089
:102EA0000E94E00D81E08093A40708E1602E8AEB88
:102EB0009AE00E949D036C01892B09F480C18AEB82
:102EC0009AE00E947B038432F1F467EB72E08EE9B2
:102ED00097E00E948A0DEBCF4FE062E085EB9CE02B
:102EE0000E94E40413E062E370E080E090E00E945E
:102EF000DA0262E085EB9CE00E94C60484FF7ACF90
:102F0000115089F777CF833209F053C16EE977E02A
:102F1000CE010F960E94D70D6FE874E084EF9BE01E
:102F20000E944A0CBE01615F7F4F84EF9BE00E94CC
:102F3000180365EB72E084EF9BE00E94240B63EAC8
:102F400074E0CE0101960E94E00DBE016F5F7F4FDD
:102F5000CE010F960E94A10C8C01CE0101960E9419
:102F6000F50D0F3F1F4F09F476C061EF72E0CE01FF
:102F700001960E94E00DBE016F5F7F4FCE010F965C
:102F80000E94A10C8C01CE0101960E94F50D0F5FED
:102F90001F4FCB88DC88C016D10628F4902F812FD4
:102FA0008601C92ED82E67EB72E0CE0101960E94F1
:102FB000E00DEB88FC880E151F05D8F4CE14DF0455
:102FC00008F47601EF85F889EE0DFF1DD0801082A0
:102FD0006F857889600F711FCE01019661157105AB
:102FE000B9F10E948A0D8F859889E80EF91EF701C4
:102FF000D082CE0101960E94800C6B01CE01019619
:103000000E94F50DFFE0CF16D104E8F46C9CF001AE
:103010006D9CF00D1124E455F84F90E080E0118292
:1030200010821382128215821482019636968430A1
:103030009105A9F76BEA74E084EF9BE00E944A0CCB
:10304000C6010E94B90BCE010F960E94F50D3DCF2F
:103050000E942E0DC8CF90E080E010E000E0D12C5F
:10306000C12C2B893C892817390708F465C08217C1
:10307000930728F4EF85F889309709F057C010922C
:103080009D07EDE9F7E04081BC016F5F7F4F5B0179
:103090004C3221F02817390709F046C0E12EF02EF6
:1030A0004C018E159F0510F447017C0167EB72E01F
:1030B000CE0109960E94E00D0B891C89E016F106ED
:1030C000D8F48016910608F48401EF85F889E00FA2
:1030D000F11F908010826F8578896E0D7F1DCE0163
:1030E00009966115710529F10E948A0D8F859889CD
:1030F000080F191FF8019082CE0109960E94800CDA
:10310000F601EE0FFF1F21E030E02C0F3D1FE20F14
:10311000F31F718360833FEFC31AD30A1A2D0B2D5F
:10312000CE0109960E94F50DC5019BCFE80FF91F4E
:10313000AACF0E942E0DDACF64E0C616D10409F0A2
:1031400082CF09811A810F30110508F07CCF2B81C5
:103150003C812430310508F076CF4D815E814330CB
:10316000510508F070CF8F819885181619060CF05C
:103170006ACFF901EE0FFF1FE20FF31F309E90019F
:10318000319E300D1124E20FF31FE40FF51FEE0FF7
:10319000FF1FE455F84F20813181820F931F9183E7
:1031A000808367ED74E084EF9BE00E944A0CC801C5
:1031B00048CF682F8EE997E00E94100D78CE80915D
:1031C0002A09882309F4F4C1809129098823C1F0D0
:1031D0000E94050A8FEF9FEF9093010280930002F7
:1031E000109219091092180967EB72E08FEA9CE0BF
:1031F0000E948A0D1092290910921709109216093F
:10320000A0900002B09001027FEFA716B70629F543
:103210000E94050A60E080E00E94AE0A63E075E06B
:1032200081E99CE00E944A0C61E080E00E94AE0AC5
:103230006AE075E081E99CE00E944A0C67EB72E06D
:103240008FEA9CE00E948A0D109201021092000207
:103250000E941B090E9456041BCE00911809109170
:10326000190980E090E00F30110508F4C8016AE008
:1032700070E00E94B9227C01655A7D4FFB0180817C
:103280000E94230960E085E20E944B0261E086E231
:103290000E944B0265E070E080E090E00E94DA025C
:1032A000F701E55AFD4F80810E94230961E085E224
:1032B0000E944B0260E086E20E944B0265E070E0F3
:1032C00080E090E00E94DA0280911609882309F4D8
:1032D00088C0FAE0AF16B10409F083C01092160955
:1032E000F12CE12C61E088E20E944B0268EC70E076
:1032F00080E090E00E94DA0260E088E20E944B02E7
:1033000022E0E216F10431F068EC70E080E090E039
:103310000E94DA023FEFE31AF30A63E0E616F104D3
:1033200009F7C8010E944C0C009118091091190965
:1033300088E1809FF001819FF00D1124E455F84F42
:1033400090E080E011821082138212821582148232
:103350000196369684309105A9F70E94050A60E02F
:1033600080E00E94AE0AB801CE0101960E94940D41
:103370006BEC73E0CE0109960E94E00DBE016F5F19
:103380007F4FCE0109960E94560DBC0181E99CE059
:103390000E941803CE0109960E94F50DCE010196F8
:1033A0000E94F50D61E080E00E94AE0A68E175E0E0
:1033B00081E99CE00E944A0C68EE73E080E090E0B6
:1033C0000E94DA02809118099091190901966FE024
:1033D00070E00E94B92290931909809318090E9405
:1033E000C311809117098823E9F080910002909120
:1033F00001020A97B9F48091180990911909019670
:103400006FE070E00E94B922909319098093180927
:103410000E94C3111092170968EC70E080E090E000
:103420000E94DA0267EB72E08FEA9CE00E946B0C6C
:10343000811118C06FEA7CE0CE0101960E94D70D81
:103440006FE175E0CE0101960E94240DCE01019638
:103450000E948B0C89819A810E94FD0DCE010196FC
:103460000E94F50D61E086E30E944B0261E087E374
:103470000E944B0261E088E30E944B0261E089E315
:103480000E944B020091140910911509F801E758A8
:10349000FD4F60E080810E944B02C801019664E00C
:1034A00070E00E94B92290931509809314098091CD
:1034B0002609882309F4CECEE5E7AE2EE2E0BE2E43
:1034C00010E000E0EE24EA94FE2CF50181915F010A
:1034D0000E942202892B09F478010F5F1F4F0430EC
:1034E000110599F779E7A72E72E0B72E0FEF1FEFBE
:1034F000F50181915F010E942202892B09F4860166
:10350000FFEFCF1ADF0A24E0C216D10489F70F3F7C
:10351000100709F49FCE6FEFE616F60609F49ACE6F
:10352000000F111F000F111F0E0D1F1D10931B0206
:1035300000931A02E0911A02F0911B02EB59FD4F21
:1035400080818334F1F48FEF9FEF90930102809399
:10355000000210921909109218090E941B0910927A
:103560002609F701EB58FD4F1081812F0E9422029E
:10357000892BD9F366E970E080E090E00E94DA02DE
:1035800069CE2091000230910102232B41F7803354
:1035900031F78AE090E0909301028093000210924C
:1035A00019091092180990E080E00E94C311D7CF4A
:1035B0000E941B0980912909882329F10E94050A8C
:1035C0000FEF1FEF109324020093230210932202A7
:1035D0000093210267EB72E08FEA9CE00E948A0D63
:1035E0001093200200931F0267EB72E089EA9CE0CF
:1035F0000E948A0D10931E0200931D0281E08093A9
:103600001C021092290980911C02882339F10E9422
:10361000050A80912302909124028F3F980709F0B8
:10362000E8C063E275E0CE0101960E94E00DCE0194
:1036300001960E948B0CBE016F5F7F4F81E99CE079
:103640000E9418036FE275E08FEA9CE00E948A0DE9
:10365000CE0101960E94F50D10921C0267EB72E0FC
:103660008FEA9CE00E946B0C811118C06FEA7CE02D
:10367000CE0101960E94D70D6FE175E0CE01019653
:103680000E94240DCE0101960E948B0C89819A81A3
:103690000E94FD0DCE0101960E94F50D61E086E3CA
:1036A0000E944B0261E087E30E944B0261E088E3E5
:1036B0000E944B0261E089E30E944B0200912709BE
:1036C00010912809F801E758FD4F60E080810E94C1
:1036D0004B02C801019664E070E00E94B922909309
:1036E00028098093270980912609882309F4B2CDFF
:1036F00045E7A42E42E0B42E10E000E0EE24EA9468
:10370000FE2CF50181915F010E942202892B09F4B0
:1037100078010F5F1F4F0430110599F739E7A32E89
:1037200032E0B32E912C812C0FEF1FEFF501819128
:103730005F010E942202892B09F48401FFEF8F1A96
:103740009F0A24E08216910489F70F3F100709F4BD
:1037500081CD6FEFE616F60609F47CCD000F111F40
:10376000000F111F0E0D1F1D10931B0200931A0254
:10377000E0911A02F0911B02EB59FD4F00810334D6
:1037800009F05DC00E94050A0FEF1FEF109324029D
:1037900000932302109322020093210267EB72E050
:1037A0008FEA9CE00E948A0D81E080931C021093B6
:1037B000200200931F0267EB72E089EA9CE00E94FE
:1037C0008A0D10931E0200931D021092220910927E
:1037D0002309109224091092250910922609F70155
:1037E000EB58FD4F1081812F0E942202892BD9F3C3
:1037F000C1CE009719F002970297D0F480911D0274
:1038000090911E020196A1F467E575E0CE01019644
:103810000E94E00DCE0101960E948B0CBE016F5FED
:103820007F4F81E99CE00E94180367EB72E00CCFA8
:1038300067EB72E08FEA9CE00E948A0D0DCFA090AA
:103840002302B09024027FEFA716B70609F066C0E6
:1038500080ED800F843008F6002E000C110B005311
:1038600011091093240200932302B0921E02A09229
:103870001D0267EB72E089EA9CE00E948A0D67EB0B
:1038800072E08FEA9CE00E948A0D0115110589F40F
:1038900010922202109221020E94050A60E080E04C
:1038A0000E94AE0A67E575E081E99CE00E944A0C3F
:1038B00023C00130110519F5109322020093210253
:1038C0000E94050A60E080E00E94AE0A64E675E0AE
:1038D00081E99CE00E944A0C61E080E00E94AE0A0F
:1038E0006DE675E081E99CE00E944A0C67EB72E0AE
:1038F00089EA9CE00E948A0D10921C026ECF023071
:10390000110529F41093220200932102C5CF83E010
:1039100090E09093220280932102BECFA114B104C3
:1039200029F0C5010297029708F0A6C080911D02F8
:1039300090911E02019609F09FC080ED800F8A30A1
:10394000B8F48091AD0C9091AE0C029708F045CF81
:10395000602F89EA9CE00E94100D60E08CE00E94DC
:10396000AE0A69EA7CE081E99CE00E94180335CF49
:103970000D3309F032CF89EA9CE00E94800C2B01C4
:103980006F30710508F04FC070931E0260931D02E6
:1039900067EB72E089EA9CE00E948A0DA114B104F1
:1039A00069F510922202109221020E94050A60E03D
:1039B00080E00E94AE0A6BEC73E081E99CE00E941B
:1039C0004A0C60911D0270911E0281E99CE00E94E8
:1039D0007F0B61E080E00E94AE0A62EC73E081E957
:1039E0009CE00E944A0C64E670E080E090E00E9457
:1039F000DA0262E973E08FEA9CE0A0C085E190E022
:103A000022E0A216B10439F033E0A316B10409F0A4
:103A1000E4CE8FE190E09093220280932102C201D4
:103A20000E94D70EDACE0E94050A60E080E00E9474
:103A3000AE0A67E575E081E99CE00E944A0C61E00E
:103A400080E00E94AE0A66E775E081E99CE00E9492
:103A50004A0C68EE73E080E090E00E94DA020E9477
:103A6000050A60E080E00E94AE0A67E575E081E942
:103A70009CE00E944A0C5EC0E0912102F09122027B
:103A8000E032F10508F0A9CE8827E65BF24E8F4FB1
:103A90000C94EF226A1DE51DED1BED1BED1BED1BCC
:103AA000ED1BED1BED1BED1BCE1DD61DED1BDB1D18
:103AB000E01D5C1EAE1EED1BED1BED1BED1B24205F
:103AC00040206920ED1BED1BED1BED1BED1BED1BDD
:103AD000ED1B002280ED800F843008F07ECE0E9426
:103AE000050A60E080E00E94AE0A67EB72E08FEAB0
:103AF0009CE00E948A0D023399F1033309F43FC020
:103B00000133F9F060E875E081E99CE00E944A0C1D
:103B100069E875E08FEA9CE00E948A0D8AE090E0F7
:103B200090932202809321028FEF9FEF90932002C7
:103B300080931F0267EB72E089EA9CE00E948A0D85
:103B40004CCE6AEA75E081E99CE00E944A0C69EB80
:103B500075E08FEA9CE00E948A0D8BE090E0E0CF58
:103B60006DED75E081E99CE00E944A0C65EE75E020
:103B70008FEA9CE00E948A0D8DE090E0D1CF6AEB45
:103B800073E081E99CE00E944A0C67E076E08FEAEE
:103B90009CE00E948A0D8EE090E0C2CF44E152E0AA
:103BA00070E060E0802F0E94091017CE4EE052E0D6
:103BB00061E070E0F7CF48E052E062E070E0F2CF01
:103BC00042E052E063E070E0EDCF80ED800F8A309C
:103BD00078F48091AD0C9091AE0C089708F0FDCD73
:103BE000602F89EA9CE00E94100D61E089E0B7CE69
:103BF0000D3309F0F2CD89EA9CE00E94800C6093BD
:103C00002209709323098093240990932509672B37
:103C1000682B692B61F18FE090E0909322028093F2
:103C200021020E94050A60E080E00E94AE0A6DE673
:103C300075E081E99CE00E944A0C40912209509174
:103C4000230960912409709125092AE081E99CE00B
:103C50000E94330B61E080E00E94AE0A64E276E0ED
:103C600081E99CE00E944A0C67EB72E0C4CE0E949E
:103C7000050A60E080E00E94AE0A6FE276E081E92A
:103C80009CE00E944A0C6CED75E080E090E00E94A0
:103C9000DA020E94050A60E080E00E94AE0A64E653
:103CA00075E081E99CE00E944A0C61E080E00E949E
:103CB000AE0A6DE675E0DBCE0033A1F50E94050A81
:103CC00060E080E00E94AE0A6EE376E081E99CE06D
:103CD0000E944A0C6CED75E080E090E00E94DA02F0
:103CE0008FEF9FEF90932402809323029093220200
:103CF0008093210267EB72E089EA9CE00E948A0DC2
:103D00001092220910922309109224091092250979
:103D100067EB72E08FEA9CE00E948A0D81E080935D
:103D20001C025BCD80E190E0013309F056CD909309
:103D30002202809321020E94050A60E080E00E9436
:103D4000AE0A6EE476E081E99CE00E944A0C61E0F4
:103D500080E00E94AE0A65E077E082CF0E940C030B
:103D600000911A0910911B0920911C0930911D091D
:103D7000601B710B820B930B6C32714081059105B6
:103D800008F42BCD0E940C0360931A0970931B0951
:103D900080931C0990931D0985EB9CE00E943207DB
:103DA000882309F41ACD64E670E080E090E00E9478
:103DB000DA0285EB9CE00E947F04811105C085EB4F
:103DC0009CE00E94CB0609CD0E94050A60E080E0DD
:103DD0000E94AE0A6EE576E081E99CE00E944A0C02
:103DE00061E080E00E94AE0A6AE676E081E99CE04C
:103DF0000E944A0C98EBC92E9CE0D92E10E08091CD
:103E0000B70C1817D8F45601F6018081803130F4D0
:103E10006FE676E081E99CE00E944A0CFFEFCF1A42
:103E2000DF0AF501408150E070E060E020E181E9C7
:103E30009CE00E94330B1F5F143009F76CED75E0B6
:103E400080E090E00E94DA020E94050A60E080E0D3
:103E50000E94AE0A61E776E081E99CE00E944A0C8C
:103E600064EF71E080E090E00E94DA020E94E00BD3
:103E70008C01019649F50E94050A60E080E00E94ED
:103E8000AE0A6FE776E081E99CE00E944A0C61E0AF
:103E900080E00E94AE0A6DE876E081E99CE00E9435
:103EA0004A0C60ED77E080E090E00E94DA0285EB5A
:103EB0009CE00E94CB060E942C078FE090E090933C
:103EC00022028093210289CC63E976E084EF9BE0B3
:103ED0000E944A0CC8010E94B90B62EA76E084EFA6
:103EE0009BE00E944A0C80912209909123090E9434
:103EF000B90B8091220990912309080F191FC8015D
:103F00000E94A612882309F476C00E94050A60E088
:103F100080E00E94AE0A65EB76E081E99CE00E94B9
:103F20004A0C61E080E00E94AE0AB801CE01099619
:103F30000E94940D65EC76E0CE0101960E94E00DA2
:103F4000BE01675F7F4FCE0101960E94560DBC01F6
:103F500081E99CE00E941803CE0101960E94F50DB4
:103F6000CE0109960E94F50D64EC79E080E090E0C6
:103F70000E94DA020E94050A60E080E00E94AE0A18
:103F80006DEC76E081E99CE00E944A0C40912209A8
:103F90005091230960912409709125092AE081E953
:103FA0009CE00E94330B6CED75E080E090E00E9495
:103FB000DA028FEF9FEF9093240280932302909375
:103FC00022028093210267EB72E089EA9CE00E9462
:103FD0008A0D10922209109223091092240910923E
:103FE000250967EB72E08FEA9CE00E948A0D81E070
:103FF00080931C0222C00E94050A60E080E00E94BB
:10400000AE0A68ED76E081E99CE00E944A0C61E02E
:1040100080E00E94AE0A68EE76E081E99CE00E94B2
:104020004A0C60ED77E080E090E00E94DA028FE0D9
:1040300090E0909322028093210285EB9CE00E9405
:10404000CB060E942C07C9CB0D3309F0C6CB86E105
:1040500090E090932202809321020E94050A60E082
:1040600080E00E94AE0A62EF76E081E99CE00E9467
:104070004A0C61E080E00E94AE0A6DEF76E0F0CD80
:10408000003309F50E94050A60E080E00E94AE0A54
:104090006AE077E081E99CE00E944A0C6CED75E0F3
:1040A00080E090E00E94DA028FEF9FEF909324026D
:1040B00080932302909322028093210290931E0208
:1040C00080931D0225CE013309F087CB87E190E074
:1040D0002ECE0E940C0300911E0910911F09209101
:1040E000200930912109601B710B820B930B6C32FC
:1040F00071408105910508F470CB0E940C03609318
:104100001E0970931F09809320099093210985EB64
:104110009CE00E943207882309F45FCB64E670E0DC
:1041200080E090E00E94DA0285EB9CE00E947F0430
:10413000882309F444CE0E94050A60E080E00E94D2
:10414000AE0A6EE576E081E99CE00E944A0C61E0EF
:1041500080E00E94AE0A6AE676E081E99CE00E9477
:104160004A0C88EBA82E8CE0B82E10E08091B70C9A
:104170001817D8F44501F5018081803130F46FE6DD
:1041800076E081E99CE00E944A0CFFEFAF1ABF0A7B
:10419000F401408150E070E060E020E181E99CE0C2
:1041A0000E94330B1F5F143009F76CED75E080E05F
:1041B00090E00E94DA020E94050A60E080E00E941E
:1041C000AE0A61E776E081E99CE00E944A0C64EF68
:1041D00071E080E090E00E94DA020E94E00B8C0126
:1041E000019629F50E94050A60E080E00E94AE0A6F
:1041F0006FE776E081E99CE00E944A0C61E080E094
:104200000E94AE0A6DE876E081E99CE00E944A0CCB
:1042100060ED77E080E090E00E94DA0285EB9CE0C0
:104220000E94CB060E942C0786E190E048CE63E90D
:1042300076E084EF9BE00E944A0CC8010E94B90B13
:1042400069E177E084EF9BE00E944A0C8091480985
:10425000909149090E94B90B8091480990914909B0
:1042600008171907A4F50E94050A60E080E00E9483
:10427000AE0A69E277E081E99CE00E944A0C61E0C5
:1042800080E00E94AE0AB801CE0109960E94940D0A
:1042900065EC76E0CE0101960E94E00DBE01675FFD
:1042A0007F4FCE0101960E94560DBC0181E99CE032
:1042B0000E941803CE0101960E94F50DCE010996C9
:1042C0000E94F50D64EC79E080E090E0A5CF081B3A
:1042D000190BC8010E94A612882309F472C00E941B
:1042E000050A60E080E00E94AE0A66E377E081E9BB
:1042F0009CE00E944A0C61E080E00E94AE0AB80196
:10430000CE0109960E94940D65EC76E0CE010196EF
:104310000E94E00DBE01675F7F4FCE0101960E94B3
:10432000560DBC0181E99CE00E941803CE01019664
:104330000E94F50DCE0109960E94F50D64EC79E01E
:1043400080E090E00E94DA0280911D0290911E02AE
:1043500028E1289FF001299FF00D1124E45BF64F1E
:104360001182108213821282158214822FEFC21AD8
:10437000D20A369634E0C316D10491F70E944C0C51
:104380000E94050A60E080E00E94AE0A64E477E0E3
:1043900081E99CE00E944A0C6CED75E080E090E0C1
:1043A0000E94DA028FEF9FEF909324028093230202
:1043B000909322028093210290931E0280931D020B
:1043C00010CE0E94050A60E080E00E94AE0A68ED0F
:1043D00076E081E99CE00E944A0C61E080E00E9466
:1043E000AE0A68EE76E081E99CE00E944A0C60ED3E
:1043F00077E080E090E00E94DA0286E190E019CE5A
:104400000D3309F0EAC950CE89EA9CE00E94F50D0F
:104410008FEA9CE00C94F50D1F93FC0199278827E7
:10442000BC01E89411911032E9F3193010F01E30FC
:10443000C8F31B3251F01D3249F4689406C00E9443
:104440003E22610F711D811D911D119110531A3073
:10445000B0F33EF490958095709561957F4F8F4FA6
:104460009F4F1F910895BB274A3031F4992322F4BE
:10447000BDE2909581959F4F0C947622592F482F3D
:10448000372F262F660F771F881F991F660F771FFC
:10449000881F991F620F731F841F951F660F771F58
:1044A000881F991F0895BB27FA01A62F621771056F
:1044B00081059105330B30FB66F0AA27660F771F45
:1044C000881F991FAA1FA21710F0A21B63953850CE
:1044D000A9F7A05DAA3308F0A95DA19336F7B11141
:1044E000B1931082CA010C948F22BB27FB01552780
:1044F000AA27880F991FAA1FA41710F0A41B839541
:104500005051B9F7A05DAA3308F0A95DA1930097B7
:1045100079F7B111B1931192CB010C948F22DC0188
:10452000FC01672F71917723E1F7329704C07C91EA
:104530006D9370836291AE17BF07C8F308950E9410
:10454000AA22A59F900DB49F900DA49F800D911D50
:1045500011240895A29FB001B39FC001A39F700DC5
:10456000811D1124911DB29F700D811D1124911D7B
:10457000089597FB072E16F4009407D077FD09D015
:104580000E94062307FC05D03EF4909581959F4F2D
:104590000895709561957F4F0895A1E21A2EAA1B88
:1045A000BB1BFD010DC0AA1FBB1FEE1FFF1FA217E3
:1045B000B307E407F50720F0A21BB30BE40BF50BE0
:1045C000661F771F881F991F1A9469F76095709569
:1045D000809590959B01AC01BD01CF010895EE0F30
:1045E000FF1F881F8BBF0790F691E02D1994692754
:1045F000962769277827872778270895B7FF0C948F
:104600009F220E949F22821B930B0895AA1BBB1B13
:1046100051E107C0AA1FBB1FA617B70710F0A61BC2
:10462000B70B881F991F5A95A9F780959095BC01E3
:10463000CD0108950F931F93CF93DF93823091059F
:1046400010F482E090E0E091C70CF091C80C30E0EB
:1046500020E0B0E0A0E0309799F42115310509F48D
:104660004AC0281B390B24303105D8F58A819B813B
:104670006115710589F1FB0193838283FE0111C0ED
:10468000408151810281138148175907E0F0481792
:10469000590799F4109761F012960C93129713969C
:1046A0001C933296CF01DF91CF911F910F91089506
:1046B0000093C70C1093C80CF4CF2115310551F0AD
:1046C0004217530738F0A901DB019A01BD01DF0150
:1046D000F801C1CFEF01F9CF9093C80C8093C70CBC
:1046E000CDCFFE01E20FF31F819391932250310948
:1046F00039832883D7CF2091C50C3091C60C232B4A
:1047000041F420912702309128023093C60C209367
:10471000C50C20912502309126022115310541F466
:104720002DB73EB74091290250912A02241B350B28
:10473000E091C50CF091C60CE217F307A0F42E1B14
:104740003F0B2817390778F0AC014E5F5F4F2417F5
:10475000350748F04E0F5F1F5093C60C4093C50CB1
:10476000819391939FCFF0E0E0E09CCFCF93DF93D4
:104770000097E9F0FC01329713821282A091C70CD6
:10478000B091C80CED0130E020E01097A1F4208139
:104790003181820F931F2091C50C3091C60C2817D0
:1047A000390709F061C0F093C60CE093C50CDF91A6
:1047B000CF910895EA01CE17DF07E8F54A815B81C2
:1047C0009E0141155105B1F7E901FB83EA83499147
:1047D0005991C40FD51FEC17FD0761F480819181B9
:1047E0000296840F951FE9019983888382819381C2
:1047F0009B838A83F0E0E0E012968D919C91139761
:104800000097B9F52D913C911197CD010296820F39
:10481000931F2091C50C3091C60C2817390739F623
:10482000309751F51092C80C1092C70CB093C60C7B
:10483000A093C50CBCCFD383C28340815181840F28
:10484000951FC817D90761F44E5F5F4F8881998122
:10485000480F591F518340838A819B8193838283B0
:104860002115310509F0B0CFF093C80CE093C70CC7
:104870009ECFFD01DC01C0CF13821282D7CF4F92B1
:104880005F926F927F928F929F92AF92BF92CF92E0
:10489000DF92EF92FF920F931F93CF93DF938C01E0
:1048A000009799F4CB01DF91CF911F910F91FF9069
:1048B000EF90DF90CF90BF90AF909F908F907F90C0
:1048C0006F905F904F900C941A23FC01E60FF71F36
:1048D0009C0122503109E217F30708F4AEC0D90158
:1048E000CD91DC911197C617D70720F1C530D105BE
:1048F00078F0CE0104978617970750F0C61BD70BA8
:104900002297C193D1936D937C93CF010E94B623DC
:10491000C801DF91CF911F910F91FF90EF90DF9031
:10492000CF90BF90AF909F908F907F906F905F904F
:104930004F9008955B01AC1ABD0A4C018C0E9D1E70
:10494000A091C70CB091C80C512C412CF12CE12C3A
:10495000109731F58091C50C9091C60C881599057A
:1049600009F05CC04616570608F058C08091250231
:1049700090912602009741F48DB79EB7409129028D
:1049800050912A02841B950BE817F90708F055C0CF
:10499000F093C60CE093C50CF90171836083B8CF26
:1049A0008D919C91119712966C90129713967C9012
:1049B0001397A815B90559F56C0142E0C40ED11C36
:1049C000CA14DB0420F1AC014A195B09DA01129622
:1049D000159780F06282738251834083D9016D9371
:1049E0007C93E114F10471F0D7011396FC93EE93DC
:1049F00012978ECF22968C0F9D1FF9019183808391
:104A0000F301EFCFF093C80CE093C70C81CF4816A9
:104A1000590608F42C017D01D3019ACFCB010E94E5
:104A20001A237C01009749F0AE01B8010E942825A5
:104A3000C8010E94B62387016BCF10E000E068CF69
:104A40009111089581568A5108F48052855808952D
:104A5000FB01DC0102C001900D9241505040D8F79B
:104A60000895FB01DC018D91019080190110D9F3AB
:104A7000990B0895FB01DC0101900D920020E1F7F4
:104A80000895FB0151915523A9F0BF01DC014D911F
:104A900045174111E1F759F4CD010190002049F08B
:104AA0004D9140154111C9F3FB014111EFCF81E058
:104AB00090E00197089511E0CDE5D1E000E006C057
:104AC000802FFE010E94EF222196011DCE35D107D5
:0A4AD00080E00807A9F7F894FFCF73
:104ADA00FFFF52075B071D0662076B07FF05760794
:104AEA008407D4058B079507A005FFFF01FFFFFF89
:104AFA00FFFFFFFFFF0000C90C80002C4C0000984C
:104B0A003A0000C8320000E8350000581B0000884F
:104B1A001300008CB9000098D00000E8E4000038C7
:104B2A00180000803E000068290000014F12064C60
:104B3A0024200F00043132332F3435362A373839DE
:104B4A002D43303D2B3E3F4041363738394F0243E3
:104B5A000237022B0214020E0208020202000000AF
:104B6A0000E90326036C0336049D037B038F0300CD
:104B7A00000000BD0A260318091709000000009565
:104B8A000732077F040D0A004572726F7220617541
:104B9A0074656E7469636163696F6E206C656374B2
:104BAA00757261004572726F72206C6563747572FA
:104BBA006120626C6F71756500244C494D50494102
:104BCA00522C0023003E3E205B434F43494E412076
:104BDA00454E56C38D415D204C494D5049415220A6
:104BEA00434F4D414E44413A204D65736120003C8C
:104BFA0000202D20003C3E003C2D2D53494E2050D4
:104C0A00524F445543544F532D2D3E00544F544157
:104C1A004C3A20240043414E54494441443A003E10
:104C2A003E205B4D455345524F20454E56C38D415C
:104C3A005D204D6573612000207C20436174200053
:104C4A002050726F642000207800454E5649414436
:104C5A004F3A004552524F522043414E5449444123
:104C6A004400302E454E5452414441532D312E506A
:104C7A004C41544F5320465545525445532D322EDC
:104C8A00424542494441532D332E504F53545245C5
:104C9A0053004F5043494F4E4553004D4553412011
:104CAA00003C53494E20434F4D414E4441533E2010
:104CBA0020004572726F7220617574656E74696343
:104CCA006163696F6E2065736372697475726100DE
:104CDA004572726F722065736372697475726120AE
:104CEA00626C6F717565000A3D3D3D3D3D3D3D3D40
:104CFA003D3D3D3D3D3D3D3D3D3D3D3D3D3D3D20F7
:104D0A004C4F47203D3D3D3D3D3D3D3D3D3D3D3DBB
:104D1A003D3D3D3D3D3D3D3D3D3D3D003D3D3D3DF6
:104D2A003D3D3D3D3D3D3D3D3D3D3D3D3D3D3D3DA9
:104D3A003D3D3D3D3D3D3D3D3D3D3D3D3D3D3D3D99
:104D4A003D3D3D3D3D3D3D3D3D3D3D3D3D3D3D3D89
:104D5A000A00494E494349414E444F2E2E2E003CEB
:104D6A003C205B434F43494E41205245434942450B
:104D7A005D20004C494D50494152003E3E205B4364
:104D8A004F43494E412050524F434553415D2043C2
:104D9A004F4D414E4441204C494D50494144413ABE
:104DAA00204D65736120003E3E205B434F43494ED0
:104DBA00412050524F434553415D20434F4D414E90
:104DCA0044412041475245474144413A204D657389
:104DDA00612000434F43494E4100302E5645522030
:104DEA0050454449444F53004C4953544F210020E5
:104DFA00202000454C494745204D4F444F3A00304A
:104E0A002E50454449444F2D312E52454341524775
:104E1A0041522D322E50414741522D332E434F4E8F
:104E2A0053554C544152004D4553412028302D31A1
:104E3A0034293A005245434152474152004D4F4EA0
:104E4A00544F3A2024004E4F2056414C49444100C9
:104E5A00454E54524144415300302E454D50414E27
:104E6A00414441532D312E4152455041532D322E4A
:104E7A0050415441434F4E455300504C41544F53B7
:104E8A00204655455254455300302E42414E444522
:104E9A004A412050414953412D312E414A4941430B
:104EAA004F2D322E53414E434F43484F0042454205
:104EBA004944415300302E4C494D4F4E4144412DF7
:104ECA00312E4147554150414E454C412D322E47D6
:104EDA004153454F534100302E4152455155495097
:104EEA00452D312E4252455641532D322E4F424CBA
:104EFA0045415300302E4E4F2020312E5349004D4C
:104F0A004F4E544F20494E56414C49444F0052454A
:104F1A0043415247412043414E43454C2E004143B1
:104F2A004552515545205441524A45544100544135
:104F3A00524A455441204F4B21005549443A0030CA
:104F4A000050524F434553414E444F2E2E2E00459A
:104F5A0052524F52204C4543545552410053414CF2
:104F6A00444F0053616C646F2061637475616C3ADD
:104F7A0020004D6F6E746F206120726563617267E5
:104F8A0061723A20005245434152474120455849EF
:104F9A00544F53410053616C646F3A2400524543A5
:104FAA0041524741202B24004552524F522045532B
:104FBA0043524954555241005245494E54454E5464
:104FCA004500434F4E4649524D41523F00302E4E06
:104FDA004F2020312E52464944005041474F20432A
:104FEA00414E43454C41444F00546F74616C2061FB
:104FFA002070616761723A200053414C444F204946
:10500A004E5355462E005041474F20455849544F5C
:10501A00534F21004D455341204C4942455241448A
:10502A004100415245515549504500425245564169
:10503A0053004C494D4F4E41444100414755415060
:10504A00414E454C410042414E44454A412050415F
:10505A0049534100414A4941434F00454D50414E51
:0C506A0041444153004152455041530065
:00000001FF
