:100000000C942E010C945F010C945F010C945F0121
:100010000C945F010C945F010C945F010C945F01E0
:100020000C945F010C945F010C945F010C945F01D0
:100030000C945F010C945F010C945F010C945F01C0
:100040000C945F010C945F010C945F010C945F01B0
:100050000C945F010C945F010C945F010C94F80305
:100060000C945F010C945F010C945F010C945F0190
:100070000C945F010C945F010C945F010C945F0180
:100080000C945F010C945F010C945F010C945F0170
:100090000C945F010C945F010C945F010C9442047A
:1000A0000C945F010C945F010C945F010C945F0150
:1000B0000C945F010C945F010C945F010C945F0140
:1000C0000C945F010C945F010C945F010C945F0130
:1000D0000C945F010C945F010C945F010C945F0120
:1000E0000C945F010C94D9010C9444020C94B4025A
:1000F0000C94A8010C9445020C94DD010C94FA02B6
:100100000C94B0010C94C7010C94E9020C94D50135
:100110000C94BD010C94DE020C94E3010C94B70125
:100120000C94E7010C94B8030C94C4020C94D7020D
:100130000C94B4010C94CF010C9491010C94960191
:100140000C94CB010C94AC010C94C1010C94B5023D
:100150000C94590600002100240027002A002D00DD
:100160003000330001010000040107010A01000012
:100170002200250028002B002E003100340002014F
:100180000000050108010B01050505050705080824
:100190000808020202020A0A080804040404010111
:1001A0000101010101010303030303030303040726
:1001B00007070C0C0C0C0C0C0C0C020202020606BD
:1001C0000606060606060B0B0B0B0B0B0B0B0102B0
:1001D0001020200808102040102040800201020159
:1001E0000804020101020408102040808040201011
:1001F000080402018004020180402010080402016A
:1002000008040201010204081020408001020408D1
:100210001020408000000A0B02090C0D0E08070395
:1002200004010000000000000000000000000000C9
:1002300000000000000000000000000000000000BE
:10024000121110000000000000000000000000007B
:1002500000000000000000000000590611241FBE2D
:10026000CFEFD1E2DEBFCDBF00E00CBF12E0A0E0D7
:10027000B2E0E8EEFCE000E00BBF02C007900D9298
:10028000A632B107D9F722E0A6E2B2E001C01D9282
:10029000A83EB207E1F711E0CEE2D1E000E006C0EF
:1002A00021970109802FFE010E946A06CD32D107F5
:1002B00080E00807A9F70E9466050C9472060C946A
:1002C0000000282F30E0F901EC5EFD4F9491F90118
:1002D000E253FE4F449128573E4FF90124912223C7
:1002E00009F435C0992311F191509231F8F4E92FB6
:1002F000F0E08827E158FE4F8F4F0C946A06B0015A
:10030000B4019101A801AC019601B701BD01C10181
:10031000C701CB01CF01D501D9019601DD01E30170
:10032000E701809180008F7780938000E22FF0E0DA
:10033000EE0FFF1FE259FE4FA591B4918FB7F894CD
:10034000EC91611148C040954E234C938FBF0895A6
:10035000809180008F7DE8CF80918000877FE4CFFF
:1003600084B58F7784BDE2CF84B58F7DFBCF80913C
:10037000B0008F778093B000D9CF8091B0008F7D8F
:10038000F9CF809190008F7780939000CFCF8091AC
:1003900090008F7DF9CF80919000877FF5CF80917D
:1003A000A0008F778093A000C1CF8091A0008F7DA7
:1003B000F9CF8091A000877FF5CF809120018F77C2
:1003C00080932001B3CF809120018F7DF9CF809160
:1003D0002001877FF5CF4E2BB8CF3FB7F89480919F
:1003E000E4029091E502A091E602B091E70226B501
:1003F000A89B05C02F3F19F00196A11DB11D3FBF5D
:10040000BA2FA92F982F8827BC01CD01620F711D2B
:10041000811D911D42E0660F771F881F991F4A9525
:10042000D1F708958F929F92AF92BF92CF92DF92B1
:10043000EF92FF924B015C010E94ED016B017C0188
:100440000E94ED016C197D098E099F09683E734079
:1004500081059105A8F321E0821A9108A108B1084D
:1004600088EEC80E83E0D81EE11CF11C81149104B3
:10047000A104B10429F7FF90EF90DF90CF90BF90D7
:10048000AF909F908F9008950895CF93DF93AC0124
:10049000E091BE02F091BF023097F1F09091BD0261
:1004A0008091BC029817C0F090E0292F30E0261709
:1004B000370754F4D901AA5DBD4F240F351FE90158
:1004C00028812C939F5FF1CF1092BD026093BC02F4
:1004D000CB01DF91CF911994DF91CF9108952091B5
:1004E0006C02260F3327331F21323105ECF42091A3
:1004F0009002FC0190E080E0243069F082E00895F1
:10050000A0916C022191AC01445B5D4FA40FB52F0B
:10051000B11D2C930196861798F380916C02680F99
:1005200060936C0280E0089581E00895109290023B
:1005300081E0809392021092910261E084E10E9436
:10054000610161E085E10E946101E9EBF0E08081F9
:100550008E7F808380818D7F808388E48093B80044
:1005600085E48093BC0008950895E091BD028091D8
:10057000BC02E81730F4F0E0EA5DFD4F808190E0C6
:1005800008958FEF9FEF08959091BD028091BC0276
:100590002FEF3FEF981748F4E92FF0E0EA5DFD4FA9
:1005A000208130E09F5F9093BD02C9010895809142
:1005B000BC029091BD02891B990B0895CF93DF93E4
:1005C000CB01EA01642F0E946F02CE01DF91CF912F
:1005D0000895CF93DF931F92CDB7DEB7698361E0B3
:1005E000CE0101960E946F0281E090E00F90DF91B2
:1005F000CF91089590E080E00895CF93DF9385ED4B
:100600008093BC008091480290914902A0914A02D7
:10061000B0914B020796A11DB11D23E0B695A79599
:10062000979587952A95D1F72091BC0024FD03C0AA
:100630001092900236C04091480250914902609158
:100640004A0270914B02452B462B472B69F30097CA
:10065000A105B10541F02AE22A95F1F700C0019702
:10066000A109B109E1CF8091470291E09093460240
:100670008823B9F0C091B800D091BA008091BC0035
:100680008A7B8093BC0060E084E10E94610160E0AD
:1006900085E10E9461010E949602D093BA00C09346
:1006A000B800DF91CF9108951F93CF93DF93182F58
:1006B000682F617089E00E946101C12FD0E0BE0106
:1006C00075956795617088E00E946101BE0175951E
:1006D000679575956795617087E00E946101BE011D
:1006E00023E0759567952A95E1F7617086E00E9491
:1006F0006101BE0134E0759567953A95E1F7617047
:1007000085E00E946101BE0145E0759567954A95B7
:10071000E1F7617084E00E94610156E0D595C795CC
:100720005A95E1F76C2F617083E00E946101612F9F
:10073000661F6627661F82E00E94610161E08BE010
:100740000E94610160E08BE00E94610183EC90E017
:100750000197F1F7DF91CF911F910895CF93C82FA3
:1007600060E08CE00E9461018C2FCF910C945403C7
:100770000F931F93CF93DF9302EC12E0D1E190919E
:10078000BC028091BD02981771F183ED92E00E9446
:10079000C402C82F833469F481E00E94AE03F801DB
:1007A0008D2F11928A95E9F71092C1021092C00222
:1007B000E6CF8091C0029091C10280319105FCF694
:1007C0009C012F5F3F4F3093C1022093C0028E5394
:1007D0009D4FFC01C08361E08CE00E9461018C2F81
:1007E0000E945403CCCFDF91CF911F910F910895B8
:1007F0001F920F920FB60F9211242F933F938F9356
:100800009F93AF93BF938091E0029091E102A091FA
:10081000E202B091E3023091DF0223E0230F2D3793
:1008200058F50196A11DB11D2093DF028093E002CF
:100830009093E102A093E202B093E3028091E4027C
:100840009091E502A091E602B091E7020196A11D08
:10085000B11D8093E4029093E502A093E602B09369
:10086000E702BF91AF919F918F913F912F910F9090
:100870000FBE0F901F90189526E8230F0296A11D1A
:10088000B11DD2CF1F920F920FB60F9211240BB64B
:100890000F922F933F934F935F936F937F938F9319
:1008A0009F93AF93BF93EF93FF938091B900887F9D
:1008B000803609F44DC008F040C0883209F4A9C060
:1008C00028F5803109F49DC0C8F4882309F4FBC0E1
:1008D000883009F496C0FF91EF91BF91AF919F913D
:1008E0008F917F916F915F914F913F912F910F90D9
:1008F0000BBE0F900FBE0F901F901895883109F412
:1009000088C0803241F780938F0214C0803409F48C
:100910009DC040F48033B9F38833E9F680938F02A9
:1009200085ECB0C0803509F485C0883509F496C0DF
:10093000883489F60E94FD02CECF883909F48CC034
:1009400038F5883729F050F4883611F0803719F6D9
:1009500083E08093900210928E0257C0883809F489
:100960007BC0803919F0803809F0B5CF80918E02B4
:10097000803208F071C0E0918E0281E08E0F80938A
:100980008E028091BB00F0E0E259FD4F80833DC0B4
:10099000803B39F0E0F4803A09F479C0883A09F0F4
:1009A0009ACF84E08093900210926D0210926C02B4
:1009B000E091B802F091B902199580916C02811111
:1009C0000FC081E080936C0210924C0209C0803C01
:1009D00009F4A6CF883C09F4A3CF883B09F07BCF6C
:1009E000E0916D0281E08E0F80936D02F0E0E45B98
:1009F000FD4F80818093BB0090916D0280916C02CD
:100A000029C08091B5028093BB0085EC8093BC0027
:100A100062CF9091B4028091B302981758F5E0919B
:100A2000B40281E08E0F8093B402F0E0ED56FD4FEA
:100A30008081E9CFE091B40281E08E0F8093B4020F
:100A40008091BB00F0E0ED56FD4F80839091B402A1
:100A50008091B3029817C8F285E8D8CFE091B4022C
:100A600081E08E0F8093B4028091BB00F0E0ED56E0
:100A7000FD4F80838091920281115CCF81E0809351
:100A8000910284EA8093BC001092900224CF85ECFE
:100A90008093BC001092900280918E02803230F4DC
:100AA000E0918E02F0E0E259FD4F108260918E02DB
:100AB00070E0E091B602F091B7028EE692E01995EF
:100AC00010928E0208CF10928F0234CF789484B5A2
:100AD000826084BD84B5816084BD85B5826085BD3A
:100AE00085B5816085BD80916E00816080936E00C8
:100AF00010928100809181008260809381008091BA
:100B0000810081608093810080918000816080936A
:100B100080008091B10084608093B1008091B0002A
:100B200081608093B00080919100826080939100F9
:100B3000809191008160809391008091900081600C
:100B4000809390008091A10082608093A1008091A9
:100B5000A10081608093A1008091A00081608093BA
:100B6000A000809121018260809321018091210168
:100B70008160809321018091200181608093200118
:100B800080917A00846080937A0080917A008260FC
:100B900080937A0080917A00816080937A008091BE
:100BA0007A00806880937A001092C1001092BD0292
:100BB0001092BC021092BB021092BA020E949602DE
:100BC00084E492E09093B9028093B80285E492E0C5
:100BD0009093B7028093B60280E18093BA0088EBCD
:100BE00093E09093BF028093BE02A2E1B2E026E2BE
:100BF00032E08D919D919927FC01E253FE4F449183
:100C000088579E4FFC018491882399F090E0880FCB
:100C1000991FFC01EC5AFE4FC591D491FC01E25999
:100C2000FE4F859194918FB7F894E881E42BE88387
:100C30008FBF2A173B07E9F664E170E080E090E09F
:100C40000E94120288E30E94AE03C3ECD0E0CE0102
:100C50000197F1F786E00E94AE03CE010197F1F70C
:100C60008FE00E94AE03CE010197F1F784E10E946C
:100C7000AE032197F1F781E00E94AE0362E070E0DD
:100C800080E090E00E94120280E80E94AE03E2EC55
:100C9000F2E081E1DF011D928A95E9F71092C1022D
:100CA0001092C002C0E0D0E02097F1F30E94000053
:100CB000FBCFE3EDF2E01382128288EE93E0A0E036
:100CC000B0E084839583A683B78384E092E0918328
:100CD00080830895EE0FFF1F881F8BBF0790F6914A
:080CE000E02D1994F894FFCFF8
:100CE80000000000E902DE02FA02B402D702C402E0
:100CF800B5020C000B0009000800070006000500FB
:060D0800040003000200DC
:00000001FF
